{
	"contracts/8_TimeManagement.sol": {
		"TimeManagement": {
			"abi": [
				{
					"inputs": [],
					"stateMutability": "nonpayable",
					"type": "constructor"
				},
				{
					"inputs": [
						{
							"internalType": "uint256",
							"name": "",
							"type": "uint256"
						}
					],
					"name": "Users",
					"outputs": [
						{
							"internalType": "uint256",
							"name": "_id",
							"type": "uint256"
						},
						{
							"internalType": "string",
							"name": "_name",
							"type": "string"
						},
						{
							"internalType": "uint256",
							"name": "_balance",
							"type": "uint256"
						}
					],
					"stateMutability": "view",
					"type": "function"
				},
				{
					"inputs": [
						{
							"internalType": "string",
							"name": "_name",
							"type": "string"
						},
						{
							"internalType": "uint256",
							"name": "_amt",
							"type": "uint256"
						}
					],
					"name": "addUser",
					"outputs": [],
					"stateMutability": "nonpayable",
					"type": "function"
				},
				{
					"inputs": [],
					"name": "userCount",
					"outputs": [
						{
							"internalType": "uint256",
							"name": "",
							"type": "uint256"
						}
					],
					"stateMutability": "view",
					"type": "function"
				}
			],
			"devdoc": {
				"kind": "dev",
				"methods": {},
				"version": 1
			},
			"evm": {
				"assembly": "    /* \"contracts/8_TimeManagement.sol\":62:1090  contract TimeManagement {\r... */\n  mstore(0x40, 0x80)\n    /* \"contracts/8_TimeManagement.sol\":120:121  0 */\n  0x00\n    /* \"contracts/8_TimeManagement.sol\":93:121  uint256 public userCount = 0 */\n  dup1\n  sstore\n    /* \"contracts/8_TimeManagement.sol\":290:300  1673363000 */\n  0x63bd7e38\n    /* \"contracts/8_TimeManagement.sol\":268:300  uint256 openingTime = 1673363000 */\n  0x02\n  sstore\n    /* \"contracts/8_TimeManagement.sol\":715:766  constructor() {\r... */\n  callvalue\n  dup1\n  iszero\n  tag_1\n  jumpi\n  0x00\n  dup1\n  revert\ntag_1:\n  pop\n    /* \"contracts/8_TimeManagement.sol\":748:758  msg.sender */\n  caller\n    /* \"contracts/8_TimeManagement.sol\":740:745  owner */\n  0x01\n  0x00\n    /* \"contracts/8_TimeManagement.sol\":740:758  owner = msg.sender */\n  0x0100\n  exp\n  dup2\n  sload\n  dup2\n  0xffffffffffffffffffffffffffffffffffffffff\n  mul\n  not\n  and\n  swap1\n  dup4\n  0xffffffffffffffffffffffffffffffffffffffff\n  and\n  mul\n  or\n  swap1\n  sstore\n  pop\n    /* \"contracts/8_TimeManagement.sol\":62:1090  contract TimeManagement {\r... */\n  dataSize(sub_0)\n  dup1\n  dataOffset(sub_0)\n  0x00\n  codecopy\n  0x00\n  return\nstop\n\nsub_0: assembly {\n        /* \"contracts/8_TimeManagement.sol\":62:1090  contract TimeManagement {\r... */\n      mstore(0x40, 0x80)\n      callvalue\n      dup1\n      iszero\n      tag_1\n      jumpi\n      0x00\n      dup1\n      revert\n    tag_1:\n      pop\n      jumpi(tag_2, lt(calldatasize, 0x04))\n      shr(0xe0, calldataload(0x00))\n      dup1\n      0x07973ccf\n      eq\n      tag_3\n      jumpi\n      dup1\n      0x1c5220c2\n      eq\n      tag_4\n      jumpi\n      dup1\n      0x1e98fd1c\n      eq\n      tag_5\n      jumpi\n    tag_2:\n      0x00\n      dup1\n      revert\n        /* \"contracts/8_TimeManagement.sol\":93:121  uint256 public userCount = 0 */\n    tag_3:\n      tag_6\n      tag_7\n      jump\t// in\n    tag_6:\n      mload(0x40)\n      tag_8\n      swap2\n      swap1\n      tag_9\n      jump\t// in\n    tag_8:\n      mload(0x40)\n      dup1\n      swap2\n      sub\n      swap1\n      return\n        /* \"contracts/8_TimeManagement.sol\":854:1087  function addUser(\r... */\n    tag_4:\n      tag_10\n      0x04\n      dup1\n      calldatasize\n      sub\n      dup2\n      add\n      swap1\n      tag_11\n      swap2\n      swap1\n      tag_12\n      jump\t// in\n    tag_11:\n      tag_13\n      jump\t// in\n    tag_10:\n      stop\n        /* \"contracts/8_TimeManagement.sol\":571:608  mapping(uint256 => User) public Users */\n    tag_5:\n      tag_14\n      0x04\n      dup1\n      calldatasize\n      sub\n      dup2\n      add\n      swap1\n      tag_15\n      swap2\n      swap1\n      tag_16\n      jump\t// in\n    tag_15:\n      tag_17\n      jump\t// in\n    tag_14:\n      mload(0x40)\n      tag_18\n      swap4\n      swap3\n      swap2\n      swap1\n      tag_19\n      jump\t// in\n    tag_18:\n      mload(0x40)\n      dup1\n      swap2\n      sub\n      swap1\n      return\n        /* \"contracts/8_TimeManagement.sol\":93:121  uint256 public userCount = 0 */\n    tag_7:\n      sload(0x00)\n      dup2\n      jump\t// out\n        /* \"contracts/8_TimeManagement.sol\":854:1087  function addUser(\r... */\n    tag_13:\n        /* \"contracts/8_TimeManagement.sol\":439:444  owner */\n      0x01\n      0x00\n      swap1\n      sload\n      swap1\n      0x0100\n      exp\n      swap1\n      div\n      0xffffffffffffffffffffffffffffffffffffffff\n      and\n        /* \"contracts/8_TimeManagement.sol\":425:444  msg.sender == owner */\n      0xffffffffffffffffffffffffffffffffffffffff\n      and\n        /* \"contracts/8_TimeManagement.sol\":425:435  msg.sender */\n      caller\n        /* \"contracts/8_TimeManagement.sol\":425:444  msg.sender == owner */\n      0xffffffffffffffffffffffffffffffffffffffff\n      and\n      eq\n        /* \"contracts/8_TimeManagement.sol\":417:445  require(msg.sender == owner) */\n      tag_21\n      jumpi\n      0x00\n      dup1\n      revert\n    tag_21:\n        /* \"contracts/8_TimeManagement.sol\":531:542  openingTime */\n      sload(0x02)\n        /* \"contracts/8_TimeManagement.sol\":512:527  block.timestamp */\n      timestamp\n        /* \"contracts/8_TimeManagement.sol\":512:542  block.timestamp >= openingTime */\n      lt\n      iszero\n        /* \"contracts/8_TimeManagement.sol\":504:543  require(block.timestamp >= openingTime) */\n      tag_23\n      jumpi\n      0x00\n      dup1\n      revert\n    tag_23:\n        /* \"contracts/8_TimeManagement.sol\":997:1017  incrementUserCount() */\n      tag_25\n        /* \"contracts/8_TimeManagement.sol\":997:1015  incrementUserCount */\n      tag_26\n        /* \"contracts/8_TimeManagement.sol\":997:1017  incrementUserCount() */\n      jump\t// in\n    tag_25:\n        /* \"contracts/8_TimeManagement.sol\":1051:1079  User(userCount, _name, _amt) */\n      mload(0x40)\n      dup1\n      0x60\n      add\n      0x40\n      mstore\n      dup1\n        /* \"contracts/8_TimeManagement.sol\":1056:1065  userCount */\n      sload(0x00)\n        /* \"contracts/8_TimeManagement.sol\":1051:1079  User(userCount, _name, _amt) */\n      dup2\n      mstore\n      0x20\n      add\n        /* \"contracts/8_TimeManagement.sol\":1067:1072  _name */\n      dup4\n        /* \"contracts/8_TimeManagement.sol\":1051:1079  User(userCount, _name, _amt) */\n      dup2\n      mstore\n      0x20\n      add\n        /* \"contracts/8_TimeManagement.sol\":1074:1078  _amt */\n      dup3\n        /* \"contracts/8_TimeManagement.sol\":1051:1079  User(userCount, _name, _amt) */\n      dup2\n      mstore\n      pop\n        /* \"contracts/8_TimeManagement.sol\":1032:1037  Users */\n      0x03\n        /* \"contracts/8_TimeManagement.sol\":1032:1048  Users[userCount] */\n      0x00\n        /* \"contracts/8_TimeManagement.sol\":1038:1047  userCount */\n      dup1\n      sload\n        /* \"contracts/8_TimeManagement.sol\":1032:1048  Users[userCount] */\n      dup2\n      mstore\n      0x20\n      add\n      swap1\n      dup2\n      mstore\n      0x20\n      add\n      0x00\n      keccak256\n        /* \"contracts/8_TimeManagement.sol\":1032:1079  Users[userCount] = User(userCount, _name, _amt) */\n      0x00\n      dup3\n      add\n      mload\n      dup2\n      0x00\n      add\n      sstore\n      0x20\n      dup3\n      add\n      mload\n      dup2\n      0x01\n      add\n      swap1\n      dup1\n      mload\n      swap1\n      0x20\n      add\n      swap1\n      tag_27\n      swap3\n      swap2\n      swap1\n      tag_28\n      jump\t// in\n    tag_27:\n      pop\n      0x40\n      dup3\n      add\n      mload\n      dup2\n      0x02\n      add\n      sstore\n      swap1\n      pop\n      pop\n        /* \"contracts/8_TimeManagement.sol\":854:1087  function addUser(\r... */\n      pop\n      pop\n      jump\t// out\n        /* \"contracts/8_TimeManagement.sol\":571:608  mapping(uint256 => User) public Users */\n    tag_17:\n      mstore(0x20, 0x03)\n      dup1\n      0x00\n      mstore\n      keccak256(0x00, 0x40)\n      0x00\n      swap2\n      pop\n      swap1\n      pop\n      dup1\n      0x00\n      add\n      sload\n      swap1\n      dup1\n      0x01\n      add\n      dup1\n      sload\n      tag_29\n      swap1\n      tag_30\n      jump\t// in\n    tag_29:\n      dup1\n      0x1f\n      add\n      0x20\n      dup1\n      swap2\n      div\n      mul\n      0x20\n      add\n      mload(0x40)\n      swap1\n      dup2\n      add\n      0x40\n      mstore\n      dup1\n      swap3\n      swap2\n      swap1\n      dup2\n      dup2\n      mstore\n      0x20\n      add\n      dup3\n      dup1\n      sload\n      tag_31\n      swap1\n      tag_30\n      jump\t// in\n    tag_31:\n      dup1\n      iszero\n      tag_32\n      jumpi\n      dup1\n      0x1f\n      lt\n      tag_33\n      jumpi\n      0x0100\n      dup1\n      dup4\n      sload\n      div\n      mul\n      dup4\n      mstore\n      swap2\n      0x20\n      add\n      swap2\n      jump(tag_32)\n    tag_33:\n      dup3\n      add\n      swap2\n      swap1\n      0x00\n      mstore\n      keccak256(0x00, 0x20)\n      swap1\n    tag_34:\n      dup2\n      sload\n      dup2\n      mstore\n      swap1\n      0x01\n      add\n      swap1\n      0x20\n      add\n      dup1\n      dup4\n      gt\n      tag_34\n      jumpi\n      dup3\n      swap1\n      sub\n      0x1f\n      and\n      dup3\n      add\n      swap2\n    tag_32:\n      pop\n      pop\n      pop\n      pop\n      pop\n      swap1\n      dup1\n      0x02\n      add\n      sload\n      swap1\n      pop\n      dup4\n      jump\t// out\n        /* \"contracts/8_TimeManagement.sol\":774:846  function incrementUserCount() internal {\r... */\n    tag_26:\n        /* \"contracts/8_TimeManagement.sol\":837:838  1 */\n      0x01\n        /* \"contracts/8_TimeManagement.sol\":824:833  userCount */\n      0x00\n      dup1\n        /* \"contracts/8_TimeManagement.sol\":824:838  userCount += 1 */\n      dup3\n      dup3\n      sload\n      tag_36\n      swap2\n      swap1\n      tag_37\n      jump\t// in\n    tag_36:\n      swap3\n      pop\n      pop\n      dup2\n      swap1\n      sstore\n      pop\n        /* \"contracts/8_TimeManagement.sol\":774:846  function incrementUserCount() internal {\r... */\n      jump\t// out\n    tag_28:\n      dup3\n      dup1\n      sload\n      tag_38\n      swap1\n      tag_30\n      jump\t// in\n    tag_38:\n      swap1\n      0x00\n      mstore\n      keccak256(0x00, 0x20)\n      swap1\n      0x1f\n      add\n      0x20\n      swap1\n      div\n      dup2\n      add\n      swap3\n      dup3\n      tag_40\n      jumpi\n      0x00\n      dup6\n      sstore\n      jump(tag_39)\n    tag_40:\n      dup3\n      0x1f\n      lt\n      tag_41\n      jumpi\n      dup1\n      mload\n      not(0xff)\n      and\n      dup4\n      dup1\n      add\n      or\n      dup6\n      sstore\n      jump(tag_39)\n    tag_41:\n      dup3\n      dup1\n      add\n      0x01\n      add\n      dup6\n      sstore\n      dup3\n      iszero\n      tag_39\n      jumpi\n      swap2\n      dup3\n      add\n    tag_42:\n      dup3\n      dup2\n      gt\n      iszero\n      tag_43\n      jumpi\n      dup3\n      mload\n      dup3\n      sstore\n      swap2\n      0x20\n      add\n      swap2\n      swap1\n      0x01\n      add\n      swap1\n      jump(tag_42)\n    tag_43:\n    tag_39:\n      pop\n      swap1\n      pop\n      tag_44\n      swap2\n      swap1\n      tag_45\n      jump\t// in\n    tag_44:\n      pop\n      swap1\n      jump\t// out\n    tag_45:\n    tag_46:\n      dup1\n      dup3\n      gt\n      iszero\n      tag_47\n      jumpi\n      0x00\n      dup2\n      0x00\n      swap1\n      sstore\n      pop\n      0x01\n      add\n      jump(tag_46)\n    tag_47:\n      pop\n      swap1\n      jump\t// out\n        /* \"#utility.yul\":7:419   */\n    tag_49:\n        /* \"#utility.yul\":85:90   */\n      0x00\n        /* \"#utility.yul\":110:176   */\n      tag_51\n        /* \"#utility.yul\":126:175   */\n      tag_52\n        /* \"#utility.yul\":168:174   */\n      dup5\n        /* \"#utility.yul\":126:175   */\n      tag_53\n      jump\t// in\n    tag_52:\n        /* \"#utility.yul\":110:176   */\n      tag_54\n      jump\t// in\n    tag_51:\n        /* \"#utility.yul\":101:176   */\n      swap1\n      pop\n        /* \"#utility.yul\":199:205   */\n      dup3\n        /* \"#utility.yul\":192:197   */\n      dup2\n        /* \"#utility.yul\":185:206   */\n      mstore\n        /* \"#utility.yul\":237:241   */\n      0x20\n        /* \"#utility.yul\":230:235   */\n      dup2\n        /* \"#utility.yul\":226:242   */\n      add\n        /* \"#utility.yul\":275:278   */\n      dup5\n        /* \"#utility.yul\":266:272   */\n      dup5\n        /* \"#utility.yul\":261:264   */\n      dup5\n        /* \"#utility.yul\":257:273   */\n      add\n        /* \"#utility.yul\":254:279   */\n      gt\n        /* \"#utility.yul\":251:363   */\n      iszero\n      tag_55\n      jumpi\n        /* \"#utility.yul\":282:361   */\n      tag_56\n      tag_57\n      jump\t// in\n    tag_56:\n        /* \"#utility.yul\":251:363   */\n    tag_55:\n        /* \"#utility.yul\":372:413   */\n      tag_58\n        /* \"#utility.yul\":406:412   */\n      dup5\n        /* \"#utility.yul\":401:404   */\n      dup3\n        /* \"#utility.yul\":396:399   */\n      dup6\n        /* \"#utility.yul\":372:413   */\n      tag_59\n      jump\t// in\n    tag_58:\n        /* \"#utility.yul\":91:419   */\n      pop\n        /* \"#utility.yul\":7:419   */\n      swap4\n      swap3\n      pop\n      pop\n      pop\n      jump\t// out\n        /* \"#utility.yul\":439:779   */\n    tag_60:\n        /* \"#utility.yul\":495:500   */\n      0x00\n        /* \"#utility.yul\":544:547   */\n      dup3\n        /* \"#utility.yul\":537:541   */\n      0x1f\n        /* \"#utility.yul\":529:535   */\n      dup4\n        /* \"#utility.yul\":525:542   */\n      add\n        /* \"#utility.yul\":521:548   */\n      slt\n        /* \"#utility.yul\":511:633   */\n      tag_62\n      jumpi\n        /* \"#utility.yul\":552:631   */\n      tag_63\n      tag_64\n      jump\t// in\n    tag_63:\n        /* \"#utility.yul\":511:633   */\n    tag_62:\n        /* \"#utility.yul\":669:675   */\n      dup2\n        /* \"#utility.yul\":656:676   */\n      calldataload\n        /* \"#utility.yul\":694:773   */\n      tag_65\n        /* \"#utility.yul\":769:772   */\n      dup5\n        /* \"#utility.yul\":761:767   */\n      dup3\n        /* \"#utility.yul\":754:758   */\n      0x20\n        /* \"#utility.yul\":746:752   */\n      dup7\n        /* \"#utility.yul\":742:759   */\n      add\n        /* \"#utility.yul\":694:773   */\n      tag_49\n      jump\t// in\n    tag_65:\n        /* \"#utility.yul\":685:773   */\n      swap2\n      pop\n        /* \"#utility.yul\":501:779   */\n      pop\n        /* \"#utility.yul\":439:779   */\n      swap3\n      swap2\n      pop\n      pop\n      jump\t// out\n        /* \"#utility.yul\":785:924   */\n    tag_66:\n        /* \"#utility.yul\":831:836   */\n      0x00\n        /* \"#utility.yul\":869:875   */\n      dup2\n        /* \"#utility.yul\":856:876   */\n      calldataload\n        /* \"#utility.yul\":847:876   */\n      swap1\n      pop\n        /* \"#utility.yul\":885:918   */\n      tag_68\n        /* \"#utility.yul\":912:917   */\n      dup2\n        /* \"#utility.yul\":885:918   */\n      tag_69\n      jump\t// in\n    tag_68:\n        /* \"#utility.yul\":785:924   */\n      swap3\n      swap2\n      pop\n      pop\n      jump\t// out\n        /* \"#utility.yul\":930:1584   */\n    tag_12:\n        /* \"#utility.yul\":1008:1014   */\n      0x00\n        /* \"#utility.yul\":1016:1022   */\n      dup1\n        /* \"#utility.yul\":1065:1067   */\n      0x40\n        /* \"#utility.yul\":1053:1062   */\n      dup4\n        /* \"#utility.yul\":1044:1051   */\n      dup6\n        /* \"#utility.yul\":1040:1063   */\n      sub\n        /* \"#utility.yul\":1036:1068   */\n      slt\n        /* \"#utility.yul\":1033:1152   */\n      iszero\n      tag_71\n      jumpi\n        /* \"#utility.yul\":1071:1150   */\n      tag_72\n      tag_73\n      jump\t// in\n    tag_72:\n        /* \"#utility.yul\":1033:1152   */\n    tag_71:\n        /* \"#utility.yul\":1219:1220   */\n      0x00\n        /* \"#utility.yul\":1208:1217   */\n      dup4\n        /* \"#utility.yul\":1204:1221   */\n      add\n        /* \"#utility.yul\":1191:1222   */\n      calldataload\n        /* \"#utility.yul\":1249:1267   */\n      0xffffffffffffffff\n        /* \"#utility.yul\":1241:1247   */\n      dup2\n        /* \"#utility.yul\":1238:1268   */\n      gt\n        /* \"#utility.yul\":1235:1352   */\n      iszero\n      tag_74\n      jumpi\n        /* \"#utility.yul\":1271:1350   */\n      tag_75\n      tag_76\n      jump\t// in\n    tag_75:\n        /* \"#utility.yul\":1235:1352   */\n    tag_74:\n        /* \"#utility.yul\":1376:1439   */\n      tag_77\n        /* \"#utility.yul\":1431:1438   */\n      dup6\n        /* \"#utility.yul\":1422:1428   */\n      dup3\n        /* \"#utility.yul\":1411:1420   */\n      dup7\n        /* \"#utility.yul\":1407:1429   */\n      add\n        /* \"#utility.yul\":1376:1439   */\n      tag_60\n      jump\t// in\n    tag_77:\n        /* \"#utility.yul\":1366:1439   */\n      swap3\n      pop\n        /* \"#utility.yul\":1162:1449   */\n      pop\n        /* \"#utility.yul\":1488:1490   */\n      0x20\n        /* \"#utility.yul\":1514:1567   */\n      tag_78\n        /* \"#utility.yul\":1559:1566   */\n      dup6\n        /* \"#utility.yul\":1550:1556   */\n      dup3\n        /* \"#utility.yul\":1539:1548   */\n      dup7\n        /* \"#utility.yul\":1535:1557   */\n      add\n        /* \"#utility.yul\":1514:1567   */\n      tag_66\n      jump\t// in\n    tag_78:\n        /* \"#utility.yul\":1504:1567   */\n      swap2\n      pop\n        /* \"#utility.yul\":1459:1577   */\n      pop\n        /* \"#utility.yul\":930:1584   */\n      swap3\n      pop\n      swap3\n      swap1\n      pop\n      jump\t// out\n        /* \"#utility.yul\":1590:1919   */\n    tag_16:\n        /* \"#utility.yul\":1649:1655   */\n      0x00\n        /* \"#utility.yul\":1698:1700   */\n      0x20\n        /* \"#utility.yul\":1686:1695   */\n      dup3\n        /* \"#utility.yul\":1677:1684   */\n      dup5\n        /* \"#utility.yul\":1673:1696   */\n      sub\n        /* \"#utility.yul\":1669:1701   */\n      slt\n        /* \"#utility.yul\":1666:1785   */\n      iszero\n      tag_80\n      jumpi\n        /* \"#utility.yul\":1704:1783   */\n      tag_81\n      tag_73\n      jump\t// in\n    tag_81:\n        /* \"#utility.yul\":1666:1785   */\n    tag_80:\n        /* \"#utility.yul\":1824:1825   */\n      0x00\n        /* \"#utility.yul\":1849:1902   */\n      tag_82\n        /* \"#utility.yul\":1894:1901   */\n      dup5\n        /* \"#utility.yul\":1885:1891   */\n      dup3\n        /* \"#utility.yul\":1874:1883   */\n      dup6\n        /* \"#utility.yul\":1870:1892   */\n      add\n        /* \"#utility.yul\":1849:1902   */\n      tag_66\n      jump\t// in\n    tag_82:\n        /* \"#utility.yul\":1839:1902   */\n      swap2\n      pop\n        /* \"#utility.yul\":1795:1912   */\n      pop\n        /* \"#utility.yul\":1590:1919   */\n      swap3\n      swap2\n      pop\n      pop\n      jump\t// out\n        /* \"#utility.yul\":1925:2289   */\n    tag_83:\n        /* \"#utility.yul\":2013:2016   */\n      0x00\n        /* \"#utility.yul\":2041:2080   */\n      tag_85\n        /* \"#utility.yul\":2074:2079   */\n      dup3\n        /* \"#utility.yul\":2041:2080   */\n      tag_86\n      jump\t// in\n    tag_85:\n        /* \"#utility.yul\":2096:2167   */\n      tag_87\n        /* \"#utility.yul\":2160:2166   */\n      dup2\n        /* \"#utility.yul\":2155:2158   */\n      dup6\n        /* \"#utility.yul\":2096:2167   */\n      tag_88\n      jump\t// in\n    tag_87:\n        /* \"#utility.yul\":2089:2167   */\n      swap4\n      pop\n        /* \"#utility.yul\":2176:2228   */\n      tag_89\n        /* \"#utility.yul\":2221:2227   */\n      dup2\n        /* \"#utility.yul\":2216:2219   */\n      dup6\n        /* \"#utility.yul\":2209:2213   */\n      0x20\n        /* \"#utility.yul\":2202:2207   */\n      dup7\n        /* \"#utility.yul\":2198:2214   */\n      add\n        /* \"#utility.yul\":2176:2228   */\n      tag_90\n      jump\t// in\n    tag_89:\n        /* \"#utility.yul\":2253:2282   */\n      tag_91\n        /* \"#utility.yul\":2275:2281   */\n      dup2\n        /* \"#utility.yul\":2253:2282   */\n      tag_92\n      jump\t// in\n    tag_91:\n        /* \"#utility.yul\":2248:2251   */\n      dup5\n        /* \"#utility.yul\":2244:2283   */\n      add\n        /* \"#utility.yul\":2237:2283   */\n      swap2\n      pop\n        /* \"#utility.yul\":2017:2289   */\n      pop\n        /* \"#utility.yul\":1925:2289   */\n      swap3\n      swap2\n      pop\n      pop\n      jump\t// out\n        /* \"#utility.yul\":2295:2413   */\n    tag_93:\n        /* \"#utility.yul\":2382:2406   */\n      tag_95\n        /* \"#utility.yul\":2400:2405   */\n      dup2\n        /* \"#utility.yul\":2382:2406   */\n      tag_96\n      jump\t// in\n    tag_95:\n        /* \"#utility.yul\":2377:2380   */\n      dup3\n        /* \"#utility.yul\":2370:2407   */\n      mstore\n        /* \"#utility.yul\":2295:2413   */\n      pop\n      pop\n      jump\t// out\n        /* \"#utility.yul\":2419:2641   */\n    tag_9:\n        /* \"#utility.yul\":2512:2516   */\n      0x00\n        /* \"#utility.yul\":2550:2552   */\n      0x20\n        /* \"#utility.yul\":2539:2548   */\n      dup3\n        /* \"#utility.yul\":2535:2553   */\n      add\n        /* \"#utility.yul\":2527:2553   */\n      swap1\n      pop\n        /* \"#utility.yul\":2563:2634   */\n      tag_98\n        /* \"#utility.yul\":2631:2632   */\n      0x00\n        /* \"#utility.yul\":2620:2629   */\n      dup4\n        /* \"#utility.yul\":2616:2633   */\n      add\n        /* \"#utility.yul\":2607:2613   */\n      dup5\n        /* \"#utility.yul\":2563:2634   */\n      tag_93\n      jump\t// in\n    tag_98:\n        /* \"#utility.yul\":2419:2641   */\n      swap3\n      swap2\n      pop\n      pop\n      jump\t// out\n        /* \"#utility.yul\":2647:3180   */\n    tag_19:\n        /* \"#utility.yul\":2816:2820   */\n      0x00\n        /* \"#utility.yul\":2854:2856   */\n      0x60\n        /* \"#utility.yul\":2843:2852   */\n      dup3\n        /* \"#utility.yul\":2839:2857   */\n      add\n        /* \"#utility.yul\":2831:2857   */\n      swap1\n      pop\n        /* \"#utility.yul\":2867:2938   */\n      tag_100\n        /* \"#utility.yul\":2935:2936   */\n      0x00\n        /* \"#utility.yul\":2924:2933   */\n      dup4\n        /* \"#utility.yul\":2920:2937   */\n      add\n        /* \"#utility.yul\":2911:2917   */\n      dup7\n        /* \"#utility.yul\":2867:2938   */\n      tag_93\n      jump\t// in\n    tag_100:\n        /* \"#utility.yul\":2985:2994   */\n      dup2\n        /* \"#utility.yul\":2979:2983   */\n      dup2\n        /* \"#utility.yul\":2975:2995   */\n      sub\n        /* \"#utility.yul\":2970:2972   */\n      0x20\n        /* \"#utility.yul\":2959:2968   */\n      dup4\n        /* \"#utility.yul\":2955:2973   */\n      add\n        /* \"#utility.yul\":2948:2996   */\n      mstore\n        /* \"#utility.yul\":3013:3091   */\n      tag_101\n        /* \"#utility.yul\":3086:3090   */\n      dup2\n        /* \"#utility.yul\":3077:3083   */\n      dup6\n        /* \"#utility.yul\":3013:3091   */\n      tag_83\n      jump\t// in\n    tag_101:\n        /* \"#utility.yul\":3005:3091   */\n      swap1\n      pop\n        /* \"#utility.yul\":3101:3173   */\n      tag_102\n        /* \"#utility.yul\":3169:3171   */\n      0x40\n        /* \"#utility.yul\":3158:3167   */\n      dup4\n        /* \"#utility.yul\":3154:3172   */\n      add\n        /* \"#utility.yul\":3145:3151   */\n      dup5\n        /* \"#utility.yul\":3101:3173   */\n      tag_93\n      jump\t// in\n    tag_102:\n        /* \"#utility.yul\":2647:3180   */\n      swap5\n      swap4\n      pop\n      pop\n      pop\n      pop\n      jump\t// out\n        /* \"#utility.yul\":3186:3315   */\n    tag_54:\n        /* \"#utility.yul\":3220:3226   */\n      0x00\n        /* \"#utility.yul\":3247:3267   */\n      tag_104\n      tag_105\n      jump\t// in\n    tag_104:\n        /* \"#utility.yul\":3237:3267   */\n      swap1\n      pop\n        /* \"#utility.yul\":3276:3309   */\n      tag_106\n        /* \"#utility.yul\":3304:3308   */\n      dup3\n        /* \"#utility.yul\":3296:3302   */\n      dup3\n        /* \"#utility.yul\":3276:3309   */\n      tag_107\n      jump\t// in\n    tag_106:\n        /* \"#utility.yul\":3186:3315   */\n      swap2\n      swap1\n      pop\n      jump\t// out\n        /* \"#utility.yul\":3321:3396   */\n    tag_105:\n        /* \"#utility.yul\":3354:3360   */\n      0x00\n        /* \"#utility.yul\":3387:3389   */\n      0x40\n        /* \"#utility.yul\":3381:3390   */\n      mload\n        /* \"#utility.yul\":3371:3390   */\n      swap1\n      pop\n        /* \"#utility.yul\":3321:3396   */\n      swap1\n      jump\t// out\n        /* \"#utility.yul\":3402:3710   */\n    tag_53:\n        /* \"#utility.yul\":3464:3468   */\n      0x00\n        /* \"#utility.yul\":3554:3572   */\n      0xffffffffffffffff\n        /* \"#utility.yul\":3546:3552   */\n      dup3\n        /* \"#utility.yul\":3543:3573   */\n      gt\n        /* \"#utility.yul\":3540:3596   */\n      iszero\n      tag_110\n      jumpi\n        /* \"#utility.yul\":3576:3594   */\n      tag_111\n      tag_112\n      jump\t// in\n    tag_111:\n        /* \"#utility.yul\":3540:3596   */\n    tag_110:\n        /* \"#utility.yul\":3614:3643   */\n      tag_113\n        /* \"#utility.yul\":3636:3642   */\n      dup3\n        /* \"#utility.yul\":3614:3643   */\n      tag_92\n      jump\t// in\n    tag_113:\n        /* \"#utility.yul\":3606:3643   */\n      swap1\n      pop\n        /* \"#utility.yul\":3698:3702   */\n      0x20\n        /* \"#utility.yul\":3692:3696   */\n      dup2\n        /* \"#utility.yul\":3688:3703   */\n      add\n        /* \"#utility.yul\":3680:3703   */\n      swap1\n      pop\n        /* \"#utility.yul\":3402:3710   */\n      swap2\n      swap1\n      pop\n      jump\t// out\n        /* \"#utility.yul\":3716:3815   */\n    tag_86:\n        /* \"#utility.yul\":3768:3774   */\n      0x00\n        /* \"#utility.yul\":3802:3807   */\n      dup2\n        /* \"#utility.yul\":3796:3808   */\n      mload\n        /* \"#utility.yul\":3786:3808   */\n      swap1\n      pop\n        /* \"#utility.yul\":3716:3815   */\n      swap2\n      swap1\n      pop\n      jump\t// out\n        /* \"#utility.yul\":3821:3990   */\n    tag_88:\n        /* \"#utility.yul\":3905:3916   */\n      0x00\n        /* \"#utility.yul\":3939:3945   */\n      dup3\n        /* \"#utility.yul\":3934:3937   */\n      dup3\n        /* \"#utility.yul\":3927:3946   */\n      mstore\n        /* \"#utility.yul\":3979:3983   */\n      0x20\n        /* \"#utility.yul\":3974:3977   */\n      dup3\n        /* \"#utility.yul\":3970:3984   */\n      add\n        /* \"#utility.yul\":3955:3984   */\n      swap1\n      pop\n        /* \"#utility.yul\":3821:3990   */\n      swap3\n      swap2\n      pop\n      pop\n      jump\t// out\n        /* \"#utility.yul\":3996:4301   */\n    tag_37:\n        /* \"#utility.yul\":4036:4039   */\n      0x00\n        /* \"#utility.yul\":4055:4075   */\n      tag_117\n        /* \"#utility.yul\":4073:4074   */\n      dup3\n        /* \"#utility.yul\":4055:4075   */\n      tag_96\n      jump\t// in\n    tag_117:\n        /* \"#utility.yul\":4050:4075   */\n      swap2\n      pop\n        /* \"#utility.yul\":4089:4109   */\n      tag_118\n        /* \"#utility.yul\":4107:4108   */\n      dup4\n        /* \"#utility.yul\":4089:4109   */\n      tag_96\n      jump\t// in\n    tag_118:\n        /* \"#utility.yul\":4084:4109   */\n      swap3\n      pop\n        /* \"#utility.yul\":4243:4244   */\n      dup3\n        /* \"#utility.yul\":4175:4241   */\n      0xffffffffffffffffffffffffffffffffffffffffffffffffffffffffffffffff\n        /* \"#utility.yul\":4171:4245   */\n      sub\n        /* \"#utility.yul\":4168:4169   */\n      dup3\n        /* \"#utility.yul\":4165:4246   */\n      gt\n        /* \"#utility.yul\":4162:4269   */\n      iszero\n      tag_119\n      jumpi\n        /* \"#utility.yul\":4249:4267   */\n      tag_120\n      tag_121\n      jump\t// in\n    tag_120:\n        /* \"#utility.yul\":4162:4269   */\n    tag_119:\n        /* \"#utility.yul\":4293:4294   */\n      dup3\n        /* \"#utility.yul\":4290:4291   */\n      dup3\n        /* \"#utility.yul\":4286:4295   */\n      add\n        /* \"#utility.yul\":4279:4295   */\n      swap1\n      pop\n        /* \"#utility.yul\":3996:4301   */\n      swap3\n      swap2\n      pop\n      pop\n      jump\t// out\n        /* \"#utility.yul\":4307:4384   */\n    tag_96:\n        /* \"#utility.yul\":4344:4351   */\n      0x00\n        /* \"#utility.yul\":4373:4378   */\n      dup2\n        /* \"#utility.yul\":4362:4378   */\n      swap1\n      pop\n        /* \"#utility.yul\":4307:4384   */\n      swap2\n      swap1\n      pop\n      jump\t// out\n        /* \"#utility.yul\":4390:4544   */\n    tag_59:\n        /* \"#utility.yul\":4474:4480   */\n      dup3\n        /* \"#utility.yul\":4469:4472   */\n      dup2\n        /* \"#utility.yul\":4464:4467   */\n      dup4\n        /* \"#utility.yul\":4451:4481   */\n      calldatacopy\n        /* \"#utility.yul\":4536:4537   */\n      0x00\n        /* \"#utility.yul\":4527:4533   */\n      dup4\n        /* \"#utility.yul\":4522:4525   */\n      dup4\n        /* \"#utility.yul\":4518:4534   */\n      add\n        /* \"#utility.yul\":4511:4538   */\n      mstore\n        /* \"#utility.yul\":4390:4544   */\n      pop\n      pop\n      pop\n      jump\t// out\n        /* \"#utility.yul\":4550:4857   */\n    tag_90:\n        /* \"#utility.yul\":4618:4619   */\n      0x00\n        /* \"#utility.yul\":4628:4741   */\n    tag_125:\n        /* \"#utility.yul\":4642:4648   */\n      dup4\n        /* \"#utility.yul\":4639:4640   */\n      dup2\n        /* \"#utility.yul\":4636:4649   */\n      lt\n        /* \"#utility.yul\":4628:4741   */\n      iszero\n      tag_127\n      jumpi\n        /* \"#utility.yul\":4727:4728   */\n      dup1\n        /* \"#utility.yul\":4722:4725   */\n      dup3\n        /* \"#utility.yul\":4718:4729   */\n      add\n        /* \"#utility.yul\":4712:4730   */\n      mload\n        /* \"#utility.yul\":4708:4709   */\n      dup2\n        /* \"#utility.yul\":4703:4706   */\n      dup5\n        /* \"#utility.yul\":4699:4710   */\n      add\n        /* \"#utility.yul\":4692:4731   */\n      mstore\n        /* \"#utility.yul\":4664:4666   */\n      0x20\n        /* \"#utility.yul\":4661:4662   */\n      dup2\n        /* \"#utility.yul\":4657:4667   */\n      add\n        /* \"#utility.yul\":4652:4667   */\n      swap1\n      pop\n        /* \"#utility.yul\":4628:4741   */\n      jump(tag_125)\n    tag_127:\n        /* \"#utility.yul\":4759:4765   */\n      dup4\n        /* \"#utility.yul\":4756:4757   */\n      dup2\n        /* \"#utility.yul\":4753:4766   */\n      gt\n        /* \"#utility.yul\":4750:4851   */\n      iszero\n      tag_128\n      jumpi\n        /* \"#utility.yul\":4839:4840   */\n      0x00\n        /* \"#utility.yul\":4830:4836   */\n      dup5\n        /* \"#utility.yul\":4825:4828   */\n      dup5\n        /* \"#utility.yul\":4821:4837   */\n      add\n        /* \"#utility.yul\":4814:4841   */\n      mstore\n        /* \"#utility.yul\":4750:4851   */\n    tag_128:\n        /* \"#utility.yul\":4599:4857   */\n      pop\n        /* \"#utility.yul\":4550:4857   */\n      pop\n      pop\n      pop\n      jump\t// out\n        /* \"#utility.yul\":4863:5183   */\n    tag_30:\n        /* \"#utility.yul\":4907:4913   */\n      0x00\n        /* \"#utility.yul\":4944:4945   */\n      0x02\n        /* \"#utility.yul\":4938:4942   */\n      dup3\n        /* \"#utility.yul\":4934:4946   */\n      div\n        /* \"#utility.yul\":4924:4946   */\n      swap1\n      pop\n        /* \"#utility.yul\":4991:4992   */\n      0x01\n        /* \"#utility.yul\":4985:4989   */\n      dup3\n        /* \"#utility.yul\":4981:4993   */\n      and\n        /* \"#utility.yul\":5012:5030   */\n      dup1\n        /* \"#utility.yul\":5002:5083   */\n      tag_130\n      jumpi\n        /* \"#utility.yul\":5068:5072   */\n      0x7f\n        /* \"#utility.yul\":5060:5066   */\n      dup3\n        /* \"#utility.yul\":5056:5073   */\n      and\n        /* \"#utility.yul\":5046:5073   */\n      swap2\n      pop\n        /* \"#utility.yul\":5002:5083   */\n    tag_130:\n        /* \"#utility.yul\":5130:5132   */\n      0x20\n        /* \"#utility.yul\":5122:5128   */\n      dup3\n        /* \"#utility.yul\":5119:5133   */\n      lt\n        /* \"#utility.yul\":5099:5117   */\n      dup2\n        /* \"#utility.yul\":5096:5134   */\n      eq\n        /* \"#utility.yul\":5093:5177   */\n      iszero\n      tag_131\n      jumpi\n        /* \"#utility.yul\":5149:5167   */\n      tag_132\n      tag_133\n      jump\t// in\n    tag_132:\n        /* \"#utility.yul\":5093:5177   */\n    tag_131:\n        /* \"#utility.yul\":4914:5183   */\n      pop\n        /* \"#utility.yul\":4863:5183   */\n      swap2\n      swap1\n      pop\n      jump\t// out\n        /* \"#utility.yul\":5189:5470   */\n    tag_107:\n        /* \"#utility.yul\":5272:5299   */\n      tag_135\n        /* \"#utility.yul\":5294:5298   */\n      dup3\n        /* \"#utility.yul\":5272:5299   */\n      tag_92\n      jump\t// in\n    tag_135:\n        /* \"#utility.yul\":5264:5270   */\n      dup2\n        /* \"#utility.yul\":5260:5300   */\n      add\n        /* \"#utility.yul\":5402:5408   */\n      dup2\n        /* \"#utility.yul\":5390:5400   */\n      dup2\n        /* \"#utility.yul\":5387:5409   */\n      lt\n        /* \"#utility.yul\":5366:5384   */\n      0xffffffffffffffff\n        /* \"#utility.yul\":5354:5364   */\n      dup3\n        /* \"#utility.yul\":5351:5385   */\n      gt\n        /* \"#utility.yul\":5348:5410   */\n      or\n        /* \"#utility.yul\":5345:5433   */\n      iszero\n      tag_136\n      jumpi\n        /* \"#utility.yul\":5413:5431   */\n      tag_137\n      tag_112\n      jump\t// in\n    tag_137:\n        /* \"#utility.yul\":5345:5433   */\n    tag_136:\n        /* \"#utility.yul\":5453:5463   */\n      dup1\n        /* \"#utility.yul\":5449:5451   */\n      0x40\n        /* \"#utility.yul\":5442:5464   */\n      mstore\n        /* \"#utility.yul\":5232:5470   */\n      pop\n        /* \"#utility.yul\":5189:5470   */\n      pop\n      pop\n      jump\t// out\n        /* \"#utility.yul\":5476:5656   */\n    tag_121:\n        /* \"#utility.yul\":5524:5601   */\n      0x4e487b7100000000000000000000000000000000000000000000000000000000\n        /* \"#utility.yul\":5521:5522   */\n      0x00\n        /* \"#utility.yul\":5514:5602   */\n      mstore\n        /* \"#utility.yul\":5621:5625   */\n      0x11\n        /* \"#utility.yul\":5618:5619   */\n      0x04\n        /* \"#utility.yul\":5611:5626   */\n      mstore\n        /* \"#utility.yul\":5645:5649   */\n      0x24\n        /* \"#utility.yul\":5642:5643   */\n      0x00\n        /* \"#utility.yul\":5635:5650   */\n      revert\n        /* \"#utility.yul\":5662:5842   */\n    tag_133:\n        /* \"#utility.yul\":5710:5787   */\n      0x4e487b7100000000000000000000000000000000000000000000000000000000\n        /* \"#utility.yul\":5707:5708   */\n      0x00\n        /* \"#utility.yul\":5700:5788   */\n      mstore\n        /* \"#utility.yul\":5807:5811   */\n      0x22\n        /* \"#utility.yul\":5804:5805   */\n      0x04\n        /* \"#utility.yul\":5797:5812   */\n      mstore\n        /* \"#utility.yul\":5831:5835   */\n      0x24\n        /* \"#utility.yul\":5828:5829   */\n      0x00\n        /* \"#utility.yul\":5821:5836   */\n      revert\n        /* \"#utility.yul\":5848:6028   */\n    tag_112:\n        /* \"#utility.yul\":5896:5973   */\n      0x4e487b7100000000000000000000000000000000000000000000000000000000\n        /* \"#utility.yul\":5893:5894   */\n      0x00\n        /* \"#utility.yul\":5886:5974   */\n      mstore\n        /* \"#utility.yul\":5993:5997   */\n      0x41\n        /* \"#utility.yul\":5990:5991   */\n      0x04\n        /* \"#utility.yul\":5983:5998   */\n      mstore\n        /* \"#utility.yul\":6017:6021   */\n      0x24\n        /* \"#utility.yul\":6014:6015   */\n      0x00\n        /* \"#utility.yul\":6007:6022   */\n      revert\n        /* \"#utility.yul\":6034:6151   */\n    tag_64:\n        /* \"#utility.yul\":6143:6144   */\n      0x00\n        /* \"#utility.yul\":6140:6141   */\n      dup1\n        /* \"#utility.yul\":6133:6145   */\n      revert\n        /* \"#utility.yul\":6157:6274   */\n    tag_57:\n        /* \"#utility.yul\":6266:6267   */\n      0x00\n        /* \"#utility.yul\":6263:6264   */\n      dup1\n        /* \"#utility.yul\":6256:6268   */\n      revert\n        /* \"#utility.yul\":6280:6397   */\n    tag_76:\n        /* \"#utility.yul\":6389:6390   */\n      0x00\n        /* \"#utility.yul\":6386:6387   */\n      dup1\n        /* \"#utility.yul\":6379:6391   */\n      revert\n        /* \"#utility.yul\":6403:6520   */\n    tag_73:\n        /* \"#utility.yul\":6512:6513   */\n      0x00\n        /* \"#utility.yul\":6509:6510   */\n      dup1\n        /* \"#utility.yul\":6502:6514   */\n      revert\n        /* \"#utility.yul\":6526:6628   */\n    tag_92:\n        /* \"#utility.yul\":6567:6573   */\n      0x00\n        /* \"#utility.yul\":6618:6620   */\n      0x1f\n        /* \"#utility.yul\":6614:6621   */\n      not\n        /* \"#utility.yul\":6609:6611   */\n      0x1f\n        /* \"#utility.yul\":6602:6607   */\n      dup4\n        /* \"#utility.yul\":6598:6612   */\n      add\n        /* \"#utility.yul\":6594:6622   */\n      and\n        /* \"#utility.yul\":6584:6622   */\n      swap1\n      pop\n        /* \"#utility.yul\":6526:6628   */\n      swap2\n      swap1\n      pop\n      jump\t// out\n        /* \"#utility.yul\":6634:6756   */\n    tag_69:\n        /* \"#utility.yul\":6707:6731   */\n      tag_147\n        /* \"#utility.yul\":6725:6730   */\n      dup2\n        /* \"#utility.yul\":6707:6731   */\n      tag_96\n      jump\t// in\n    tag_147:\n        /* \"#utility.yul\":6700:6705   */\n      dup2\n        /* \"#utility.yul\":6697:6732   */\n      eq\n        /* \"#utility.yul\":6687:6750   */\n      tag_148\n      jumpi\n        /* \"#utility.yul\":6746:6747   */\n      0x00\n        /* \"#utility.yul\":6743:6744   */\n      dup1\n        /* \"#utility.yul\":6736:6748   */\n      revert\n        /* \"#utility.yul\":6687:6750   */\n    tag_148:\n        /* \"#utility.yul\":6634:6756   */\n      pop\n      jump\t// out\n\n    auxdata: 0xa2646970667358221220b548bf2b1bfad5b25fe71548570e89486aa49f7a4352c96868b2e033a588871c64736f6c63430008070033\n}\n",
				"bytecode": {
					"linkReferences": {},
					"object": "6080604052600080556363bd7e3860025534801561001c57600080fd5b5033600160006101000a81548173ffffffffffffffffffffffffffffffffffffffff021916908373ffffffffffffffffffffffffffffffffffffffff1602179055506107278061006d6000396000f3fe608060405234801561001057600080fd5b50600436106100415760003560e01c806307973ccf146100465780631c5220c2146100645780631e98fd1c14610080575b600080fd5b61004e6100b2565b60405161005b9190610458565b60405180910390f35b61007e60048036038101906100799190610387565b6100b8565b005b61009a600480360381019061009591906103e3565b610192565b6040516100a993929190610473565b60405180910390f35b60005481565b600160009054906101000a900473ffffffffffffffffffffffffffffffffffffffff1673ffffffffffffffffffffffffffffffffffffffff163373ffffffffffffffffffffffffffffffffffffffff161461011257600080fd5b60025442101561012157600080fd5b610129610244565b6040518060600160405280600054815260200183815260200182815250600360008054815260200190815260200160002060008201518160000155602082015181600101908051906020019061018092919061025f565b50604082015181600201559050505050565b60036020528060005260406000206000915090508060000154908060010180546101bb906105c5565b80601f01602080910402602001604051908101604052809291908181526020018280546101e7906105c5565b80156102345780601f1061020957610100808354040283529160200191610234565b820191906000526020600020905b81548152906001019060200180831161021757829003601f168201915b5050505050908060020154905083565b60016000808282546102569190610523565b92505081905550565b82805461026b906105c5565b90600052602060002090601f01602090048101928261028d57600085556102d4565b82601f106102a657805160ff19168380011785556102d4565b828001600101855582156102d4579182015b828111156102d35782518255916020019190600101906102b8565b5b5090506102e191906102e5565b5090565b5b808211156102fe5760008160009055506001016102e6565b5090565b6000610315610310846104d6565b6104b1565b905082815260208101848484011115610331576103306106ba565b5b61033c848285610583565b509392505050565b600082601f830112610359576103586106b5565b5b8135610369848260208601610302565b91505092915050565b600081359050610381816106da565b92915050565b6000806040838503121561039e5761039d6106c4565b5b600083013567ffffffffffffffff8111156103bc576103bb6106bf565b5b6103c885828601610344565b92505060206103d985828601610372565b9150509250929050565b6000602082840312156103f9576103f86106c4565b5b600061040784828501610372565b91505092915050565b600061041b82610507565b6104258185610512565b9350610435818560208601610592565b61043e816106c9565b840191505092915050565b61045281610579565b82525050565b600060208201905061046d6000830184610449565b92915050565b60006060820190506104886000830186610449565b818103602083015261049a8185610410565b90506104a96040830184610449565b949350505050565b60006104bb6104cc565b90506104c782826105f7565b919050565b6000604051905090565b600067ffffffffffffffff8211156104f1576104f0610686565b5b6104fa826106c9565b9050602081019050919050565b600081519050919050565b600082825260208201905092915050565b600061052e82610579565b915061053983610579565b9250827fffffffffffffffffffffffffffffffffffffffffffffffffffffffffffffffff0382111561056e5761056d610628565b5b828201905092915050565b6000819050919050565b82818337600083830152505050565b60005b838110156105b0578082015181840152602081019050610595565b838111156105bf576000848401525b50505050565b600060028204905060018216806105dd57607f821691505b602082108114156105f1576105f0610657565b5b50919050565b610600826106c9565b810181811067ffffffffffffffff8211171561061f5761061e610686565b5b80604052505050565b7f4e487b7100000000000000000000000000000000000000000000000000000000600052601160045260246000fd5b7f4e487b7100000000000000000000000000000000000000000000000000000000600052602260045260246000fd5b7f4e487b7100000000000000000000000000000000000000000000000000000000600052604160045260246000fd5b600080fd5b600080fd5b600080fd5b600080fd5b6000601f19601f8301169050919050565b6106e381610579565b81146106ee57600080fd5b5056fea2646970667358221220b548bf2b1bfad5b25fe71548570e89486aa49f7a4352c96868b2e033a588871c64736f6c63430008070033",
					"opcodes": "PUSH1 0x80 PUSH1 0x40 MSTORE PUSH1 0x0 DUP1 SSTORE PUSH4 0x63BD7E38 PUSH1 0x2 SSTORE CALLVALUE DUP1 ISZERO PUSH2 0x1C JUMPI PUSH1 0x0 DUP1 REVERT JUMPDEST POP CALLER PUSH1 0x1 PUSH1 0x0 PUSH2 0x100 EXP DUP2 SLOAD DUP2 PUSH20 0xFFFFFFFFFFFFFFFFFFFFFFFFFFFFFFFFFFFFFFFF MUL NOT AND SWAP1 DUP4 PUSH20 0xFFFFFFFFFFFFFFFFFFFFFFFFFFFFFFFFFFFFFFFF AND MUL OR SWAP1 SSTORE POP PUSH2 0x727 DUP1 PUSH2 0x6D PUSH1 0x0 CODECOPY PUSH1 0x0 RETURN INVALID PUSH1 0x80 PUSH1 0x40 MSTORE CALLVALUE DUP1 ISZERO PUSH2 0x10 JUMPI PUSH1 0x0 DUP1 REVERT JUMPDEST POP PUSH1 0x4 CALLDATASIZE LT PUSH2 0x41 JUMPI PUSH1 0x0 CALLDATALOAD PUSH1 0xE0 SHR DUP1 PUSH4 0x7973CCF EQ PUSH2 0x46 JUMPI DUP1 PUSH4 0x1C5220C2 EQ PUSH2 0x64 JUMPI DUP1 PUSH4 0x1E98FD1C EQ PUSH2 0x80 JUMPI JUMPDEST PUSH1 0x0 DUP1 REVERT JUMPDEST PUSH2 0x4E PUSH2 0xB2 JUMP JUMPDEST PUSH1 0x40 MLOAD PUSH2 0x5B SWAP2 SWAP1 PUSH2 0x458 JUMP JUMPDEST PUSH1 0x40 MLOAD DUP1 SWAP2 SUB SWAP1 RETURN JUMPDEST PUSH2 0x7E PUSH1 0x4 DUP1 CALLDATASIZE SUB DUP2 ADD SWAP1 PUSH2 0x79 SWAP2 SWAP1 PUSH2 0x387 JUMP JUMPDEST PUSH2 0xB8 JUMP JUMPDEST STOP JUMPDEST PUSH2 0x9A PUSH1 0x4 DUP1 CALLDATASIZE SUB DUP2 ADD SWAP1 PUSH2 0x95 SWAP2 SWAP1 PUSH2 0x3E3 JUMP JUMPDEST PUSH2 0x192 JUMP JUMPDEST PUSH1 0x40 MLOAD PUSH2 0xA9 SWAP4 SWAP3 SWAP2 SWAP1 PUSH2 0x473 JUMP JUMPDEST PUSH1 0x40 MLOAD DUP1 SWAP2 SUB SWAP1 RETURN JUMPDEST PUSH1 0x0 SLOAD DUP2 JUMP JUMPDEST PUSH1 0x1 PUSH1 0x0 SWAP1 SLOAD SWAP1 PUSH2 0x100 EXP SWAP1 DIV PUSH20 0xFFFFFFFFFFFFFFFFFFFFFFFFFFFFFFFFFFFFFFFF AND PUSH20 0xFFFFFFFFFFFFFFFFFFFFFFFFFFFFFFFFFFFFFFFF AND CALLER PUSH20 0xFFFFFFFFFFFFFFFFFFFFFFFFFFFFFFFFFFFFFFFF AND EQ PUSH2 0x112 JUMPI PUSH1 0x0 DUP1 REVERT JUMPDEST PUSH1 0x2 SLOAD TIMESTAMP LT ISZERO PUSH2 0x121 JUMPI PUSH1 0x0 DUP1 REVERT JUMPDEST PUSH2 0x129 PUSH2 0x244 JUMP JUMPDEST PUSH1 0x40 MLOAD DUP1 PUSH1 0x60 ADD PUSH1 0x40 MSTORE DUP1 PUSH1 0x0 SLOAD DUP2 MSTORE PUSH1 0x20 ADD DUP4 DUP2 MSTORE PUSH1 0x20 ADD DUP3 DUP2 MSTORE POP PUSH1 0x3 PUSH1 0x0 DUP1 SLOAD DUP2 MSTORE PUSH1 0x20 ADD SWAP1 DUP2 MSTORE PUSH1 0x20 ADD PUSH1 0x0 KECCAK256 PUSH1 0x0 DUP3 ADD MLOAD DUP2 PUSH1 0x0 ADD SSTORE PUSH1 0x20 DUP3 ADD MLOAD DUP2 PUSH1 0x1 ADD SWAP1 DUP1 MLOAD SWAP1 PUSH1 0x20 ADD SWAP1 PUSH2 0x180 SWAP3 SWAP2 SWAP1 PUSH2 0x25F JUMP JUMPDEST POP PUSH1 0x40 DUP3 ADD MLOAD DUP2 PUSH1 0x2 ADD SSTORE SWAP1 POP POP POP POP JUMP JUMPDEST PUSH1 0x3 PUSH1 0x20 MSTORE DUP1 PUSH1 0x0 MSTORE PUSH1 0x40 PUSH1 0x0 KECCAK256 PUSH1 0x0 SWAP2 POP SWAP1 POP DUP1 PUSH1 0x0 ADD SLOAD SWAP1 DUP1 PUSH1 0x1 ADD DUP1 SLOAD PUSH2 0x1BB SWAP1 PUSH2 0x5C5 JUMP JUMPDEST DUP1 PUSH1 0x1F ADD PUSH1 0x20 DUP1 SWAP2 DIV MUL PUSH1 0x20 ADD PUSH1 0x40 MLOAD SWAP1 DUP2 ADD PUSH1 0x40 MSTORE DUP1 SWAP3 SWAP2 SWAP1 DUP2 DUP2 MSTORE PUSH1 0x20 ADD DUP3 DUP1 SLOAD PUSH2 0x1E7 SWAP1 PUSH2 0x5C5 JUMP JUMPDEST DUP1 ISZERO PUSH2 0x234 JUMPI DUP1 PUSH1 0x1F LT PUSH2 0x209 JUMPI PUSH2 0x100 DUP1 DUP4 SLOAD DIV MUL DUP4 MSTORE SWAP2 PUSH1 0x20 ADD SWAP2 PUSH2 0x234 JUMP JUMPDEST DUP3 ADD SWAP2 SWAP1 PUSH1 0x0 MSTORE PUSH1 0x20 PUSH1 0x0 KECCAK256 SWAP1 JUMPDEST DUP2 SLOAD DUP2 MSTORE SWAP1 PUSH1 0x1 ADD SWAP1 PUSH1 0x20 ADD DUP1 DUP4 GT PUSH2 0x217 JUMPI DUP3 SWAP1 SUB PUSH1 0x1F AND DUP3 ADD SWAP2 JUMPDEST POP POP POP POP POP SWAP1 DUP1 PUSH1 0x2 ADD SLOAD SWAP1 POP DUP4 JUMP JUMPDEST PUSH1 0x1 PUSH1 0x0 DUP1 DUP3 DUP3 SLOAD PUSH2 0x256 SWAP2 SWAP1 PUSH2 0x523 JUMP JUMPDEST SWAP3 POP POP DUP2 SWAP1 SSTORE POP JUMP JUMPDEST DUP3 DUP1 SLOAD PUSH2 0x26B SWAP1 PUSH2 0x5C5 JUMP JUMPDEST SWAP1 PUSH1 0x0 MSTORE PUSH1 0x20 PUSH1 0x0 KECCAK256 SWAP1 PUSH1 0x1F ADD PUSH1 0x20 SWAP1 DIV DUP2 ADD SWAP3 DUP3 PUSH2 0x28D JUMPI PUSH1 0x0 DUP6 SSTORE PUSH2 0x2D4 JUMP JUMPDEST DUP3 PUSH1 0x1F LT PUSH2 0x2A6 JUMPI DUP1 MLOAD PUSH1 0xFF NOT AND DUP4 DUP1 ADD OR DUP6 SSTORE PUSH2 0x2D4 JUMP JUMPDEST DUP3 DUP1 ADD PUSH1 0x1 ADD DUP6 SSTORE DUP3 ISZERO PUSH2 0x2D4 JUMPI SWAP2 DUP3 ADD JUMPDEST DUP3 DUP2 GT ISZERO PUSH2 0x2D3 JUMPI DUP3 MLOAD DUP3 SSTORE SWAP2 PUSH1 0x20 ADD SWAP2 SWAP1 PUSH1 0x1 ADD SWAP1 PUSH2 0x2B8 JUMP JUMPDEST JUMPDEST POP SWAP1 POP PUSH2 0x2E1 SWAP2 SWAP1 PUSH2 0x2E5 JUMP JUMPDEST POP SWAP1 JUMP JUMPDEST JUMPDEST DUP1 DUP3 GT ISZERO PUSH2 0x2FE JUMPI PUSH1 0x0 DUP2 PUSH1 0x0 SWAP1 SSTORE POP PUSH1 0x1 ADD PUSH2 0x2E6 JUMP JUMPDEST POP SWAP1 JUMP JUMPDEST PUSH1 0x0 PUSH2 0x315 PUSH2 0x310 DUP5 PUSH2 0x4D6 JUMP JUMPDEST PUSH2 0x4B1 JUMP JUMPDEST SWAP1 POP DUP3 DUP2 MSTORE PUSH1 0x20 DUP2 ADD DUP5 DUP5 DUP5 ADD GT ISZERO PUSH2 0x331 JUMPI PUSH2 0x330 PUSH2 0x6BA JUMP JUMPDEST JUMPDEST PUSH2 0x33C DUP5 DUP3 DUP6 PUSH2 0x583 JUMP JUMPDEST POP SWAP4 SWAP3 POP POP POP JUMP JUMPDEST PUSH1 0x0 DUP3 PUSH1 0x1F DUP4 ADD SLT PUSH2 0x359 JUMPI PUSH2 0x358 PUSH2 0x6B5 JUMP JUMPDEST JUMPDEST DUP2 CALLDATALOAD PUSH2 0x369 DUP5 DUP3 PUSH1 0x20 DUP7 ADD PUSH2 0x302 JUMP JUMPDEST SWAP2 POP POP SWAP3 SWAP2 POP POP JUMP JUMPDEST PUSH1 0x0 DUP2 CALLDATALOAD SWAP1 POP PUSH2 0x381 DUP2 PUSH2 0x6DA JUMP JUMPDEST SWAP3 SWAP2 POP POP JUMP JUMPDEST PUSH1 0x0 DUP1 PUSH1 0x40 DUP4 DUP6 SUB SLT ISZERO PUSH2 0x39E JUMPI PUSH2 0x39D PUSH2 0x6C4 JUMP JUMPDEST JUMPDEST PUSH1 0x0 DUP4 ADD CALLDATALOAD PUSH8 0xFFFFFFFFFFFFFFFF DUP2 GT ISZERO PUSH2 0x3BC JUMPI PUSH2 0x3BB PUSH2 0x6BF JUMP JUMPDEST JUMPDEST PUSH2 0x3C8 DUP6 DUP3 DUP7 ADD PUSH2 0x344 JUMP JUMPDEST SWAP3 POP POP PUSH1 0x20 PUSH2 0x3D9 DUP6 DUP3 DUP7 ADD PUSH2 0x372 JUMP JUMPDEST SWAP2 POP POP SWAP3 POP SWAP3 SWAP1 POP JUMP JUMPDEST PUSH1 0x0 PUSH1 0x20 DUP3 DUP5 SUB SLT ISZERO PUSH2 0x3F9 JUMPI PUSH2 0x3F8 PUSH2 0x6C4 JUMP JUMPDEST JUMPDEST PUSH1 0x0 PUSH2 0x407 DUP5 DUP3 DUP6 ADD PUSH2 0x372 JUMP JUMPDEST SWAP2 POP POP SWAP3 SWAP2 POP POP JUMP JUMPDEST PUSH1 0x0 PUSH2 0x41B DUP3 PUSH2 0x507 JUMP JUMPDEST PUSH2 0x425 DUP2 DUP6 PUSH2 0x512 JUMP JUMPDEST SWAP4 POP PUSH2 0x435 DUP2 DUP6 PUSH1 0x20 DUP7 ADD PUSH2 0x592 JUMP JUMPDEST PUSH2 0x43E DUP2 PUSH2 0x6C9 JUMP JUMPDEST DUP5 ADD SWAP2 POP POP SWAP3 SWAP2 POP POP JUMP JUMPDEST PUSH2 0x452 DUP2 PUSH2 0x579 JUMP JUMPDEST DUP3 MSTORE POP POP JUMP JUMPDEST PUSH1 0x0 PUSH1 0x20 DUP3 ADD SWAP1 POP PUSH2 0x46D PUSH1 0x0 DUP4 ADD DUP5 PUSH2 0x449 JUMP JUMPDEST SWAP3 SWAP2 POP POP JUMP JUMPDEST PUSH1 0x0 PUSH1 0x60 DUP3 ADD SWAP1 POP PUSH2 0x488 PUSH1 0x0 DUP4 ADD DUP7 PUSH2 0x449 JUMP JUMPDEST DUP2 DUP2 SUB PUSH1 0x20 DUP4 ADD MSTORE PUSH2 0x49A DUP2 DUP6 PUSH2 0x410 JUMP JUMPDEST SWAP1 POP PUSH2 0x4A9 PUSH1 0x40 DUP4 ADD DUP5 PUSH2 0x449 JUMP JUMPDEST SWAP5 SWAP4 POP POP POP POP JUMP JUMPDEST PUSH1 0x0 PUSH2 0x4BB PUSH2 0x4CC JUMP JUMPDEST SWAP1 POP PUSH2 0x4C7 DUP3 DUP3 PUSH2 0x5F7 JUMP JUMPDEST SWAP2 SWAP1 POP JUMP JUMPDEST PUSH1 0x0 PUSH1 0x40 MLOAD SWAP1 POP SWAP1 JUMP JUMPDEST PUSH1 0x0 PUSH8 0xFFFFFFFFFFFFFFFF DUP3 GT ISZERO PUSH2 0x4F1 JUMPI PUSH2 0x4F0 PUSH2 0x686 JUMP JUMPDEST JUMPDEST PUSH2 0x4FA DUP3 PUSH2 0x6C9 JUMP JUMPDEST SWAP1 POP PUSH1 0x20 DUP2 ADD SWAP1 POP SWAP2 SWAP1 POP JUMP JUMPDEST PUSH1 0x0 DUP2 MLOAD SWAP1 POP SWAP2 SWAP1 POP JUMP JUMPDEST PUSH1 0x0 DUP3 DUP3 MSTORE PUSH1 0x20 DUP3 ADD SWAP1 POP SWAP3 SWAP2 POP POP JUMP JUMPDEST PUSH1 0x0 PUSH2 0x52E DUP3 PUSH2 0x579 JUMP JUMPDEST SWAP2 POP PUSH2 0x539 DUP4 PUSH2 0x579 JUMP JUMPDEST SWAP3 POP DUP3 PUSH32 0xFFFFFFFFFFFFFFFFFFFFFFFFFFFFFFFFFFFFFFFFFFFFFFFFFFFFFFFFFFFFFFFF SUB DUP3 GT ISZERO PUSH2 0x56E JUMPI PUSH2 0x56D PUSH2 0x628 JUMP JUMPDEST JUMPDEST DUP3 DUP3 ADD SWAP1 POP SWAP3 SWAP2 POP POP JUMP JUMPDEST PUSH1 0x0 DUP2 SWAP1 POP SWAP2 SWAP1 POP JUMP JUMPDEST DUP3 DUP2 DUP4 CALLDATACOPY PUSH1 0x0 DUP4 DUP4 ADD MSTORE POP POP POP JUMP JUMPDEST PUSH1 0x0 JUMPDEST DUP4 DUP2 LT ISZERO PUSH2 0x5B0 JUMPI DUP1 DUP3 ADD MLOAD DUP2 DUP5 ADD MSTORE PUSH1 0x20 DUP2 ADD SWAP1 POP PUSH2 0x595 JUMP JUMPDEST DUP4 DUP2 GT ISZERO PUSH2 0x5BF JUMPI PUSH1 0x0 DUP5 DUP5 ADD MSTORE JUMPDEST POP POP POP POP JUMP JUMPDEST PUSH1 0x0 PUSH1 0x2 DUP3 DIV SWAP1 POP PUSH1 0x1 DUP3 AND DUP1 PUSH2 0x5DD JUMPI PUSH1 0x7F DUP3 AND SWAP2 POP JUMPDEST PUSH1 0x20 DUP3 LT DUP2 EQ ISZERO PUSH2 0x5F1 JUMPI PUSH2 0x5F0 PUSH2 0x657 JUMP JUMPDEST JUMPDEST POP SWAP2 SWAP1 POP JUMP JUMPDEST PUSH2 0x600 DUP3 PUSH2 0x6C9 JUMP JUMPDEST DUP2 ADD DUP2 DUP2 LT PUSH8 0xFFFFFFFFFFFFFFFF DUP3 GT OR ISZERO PUSH2 0x61F JUMPI PUSH2 0x61E PUSH2 0x686 JUMP JUMPDEST JUMPDEST DUP1 PUSH1 0x40 MSTORE POP POP POP JUMP JUMPDEST PUSH32 0x4E487B7100000000000000000000000000000000000000000000000000000000 PUSH1 0x0 MSTORE PUSH1 0x11 PUSH1 0x4 MSTORE PUSH1 0x24 PUSH1 0x0 REVERT JUMPDEST PUSH32 0x4E487B7100000000000000000000000000000000000000000000000000000000 PUSH1 0x0 MSTORE PUSH1 0x22 PUSH1 0x4 MSTORE PUSH1 0x24 PUSH1 0x0 REVERT JUMPDEST PUSH32 0x4E487B7100000000000000000000000000000000000000000000000000000000 PUSH1 0x0 MSTORE PUSH1 0x41 PUSH1 0x4 MSTORE PUSH1 0x24 PUSH1 0x0 REVERT JUMPDEST PUSH1 0x0 DUP1 REVERT JUMPDEST PUSH1 0x0 DUP1 REVERT JUMPDEST PUSH1 0x0 DUP1 REVERT JUMPDEST PUSH1 0x0 DUP1 REVERT JUMPDEST PUSH1 0x0 PUSH1 0x1F NOT PUSH1 0x1F DUP4 ADD AND SWAP1 POP SWAP2 SWAP1 POP JUMP JUMPDEST PUSH2 0x6E3 DUP2 PUSH2 0x579 JUMP JUMPDEST DUP2 EQ PUSH2 0x6EE JUMPI PUSH1 0x0 DUP1 REVERT JUMPDEST POP JUMP INVALID LOG2 PUSH5 0x6970667358 0x22 SLT KECCAK256 0xB5 BASEFEE 0xBF 0x2B SHL STATICCALL 0xD5 0xB2 0x5F 0xE7 ISZERO BASEFEE JUMPI 0xE DUP10 BASEFEE PUSH11 0xA49F7A4352C96868B2E033 0xA5 DUP9 DUP8 SHR PUSH5 0x736F6C6343 STOP ADDMOD SMOD STOP CALLER "
				},
				"gasEstimates": {
					"creation": {
						"codeDepositCost": "366200",
						"executionCost": "51783",
						"totalCost": "417983"
					},
					"external": {
						"Users(uint256)": "infinite",
						"addUser(string,uint256)": "infinite",
						"userCount()": "2407"
					},
					"internal": {
						"incrementUserCount()": "infinite"
					}
				},
				"methodIdentifiers": {
					"Users(uint256)": "1e98fd1c",
					"addUser(string,uint256)": "1c5220c2",
					"userCount()": "07973ccf"
				}
			},
			"storageLayout": {
				"storage": [
					{
						"astId": 4,
						"contract": "contracts/8_TimeManagement.sol:TimeManagement",
						"label": "userCount",
						"offset": 0,
						"slot": "0",
						"type": "t_uint256"
					},
					{
						"astId": 6,
						"contract": "contracts/8_TimeManagement.sol:TimeManagement",
						"label": "owner",
						"offset": 0,
						"slot": "1",
						"type": "t_address"
					},
					{
						"astId": 9,
						"contract": "contracts/8_TimeManagement.sol:TimeManagement",
						"label": "openingTime",
						"offset": 0,
						"slot": "2",
						"type": "t_uint256"
					},
					{
						"astId": 36,
						"contract": "contracts/8_TimeManagement.sol:TimeManagement",
						"label": "Users",
						"offset": 0,
						"slot": "3",
						"type": "t_mapping(t_uint256,t_struct(User)43_storage)"
					}
				],
				"types": {
					"t_address": {
						"encoding": "inplace",
						"label": "address",
						"numberOfBytes": "20"
					},
					"t_mapping(t_uint256,t_struct(User)43_storage)": {
						"encoding": "mapping",
						"key": "t_uint256",
						"label": "mapping(uint256 => struct TimeManagement.User)",
						"numberOfBytes": "32",
						"value": "t_struct(User)43_storage"
					},
					"t_string_storage": {
						"encoding": "bytes",
						"label": "string",
						"numberOfBytes": "32"
					},
					"t_struct(User)43_storage": {
						"encoding": "inplace",
						"label": "struct TimeManagement.User",
						"members": [
							{
								"astId": 38,
								"contract": "contracts/8_TimeManagement.sol:TimeManagement",
								"label": "_id",
								"offset": 0,
								"slot": "0",
								"type": "t_uint256"
							},
							{
								"astId": 40,
								"contract": "contracts/8_TimeManagement.sol:TimeManagement",
								"label": "_name",
								"offset": 0,
								"slot": "1",
								"type": "t_string_storage"
							},
							{
								"astId": 42,
								"contract": "contracts/8_TimeManagement.sol:TimeManagement",
								"label": "_balance",
								"offset": 0,
								"slot": "2",
								"type": "t_uint256"
							}
						],
						"numberOfBytes": "96"
					},
					"t_uint256": {
						"encoding": "inplace",
						"label": "uint256",
						"numberOfBytes": "32"
					}
				}
			},
			"userdoc": {
				"kind": "user",
				"methods": {},
				"version": 1
			}
		}
	}
}