{
	"contracts/99_ShanToken.sol": {
		"ShanToken": {
			"abi": [
				{
					"inputs": [],
					"stateMutability": "nonpayable",
					"type": "constructor"
				},
				{
					"anonymous": false,
					"inputs": [
						{
							"indexed": true,
							"internalType": "address",
							"name": "owner",
							"type": "address"
						},
						{
							"indexed": true,
							"internalType": "address",
							"name": "spender",
							"type": "address"
						},
						{
							"indexed": false,
							"internalType": "uint256",
							"name": "value",
							"type": "uint256"
						}
					],
					"name": "Approval",
					"type": "event"
				},
				{
					"anonymous": false,
					"inputs": [
						{
							"indexed": true,
							"internalType": "address",
							"name": "from",
							"type": "address"
						},
						{
							"indexed": true,
							"internalType": "address",
							"name": "to",
							"type": "address"
						},
						{
							"indexed": false,
							"internalType": "uint256",
							"name": "value",
							"type": "uint256"
						}
					],
					"name": "Transfer",
					"type": "event"
				},
				{
					"inputs": [
						{
							"internalType": "address",
							"name": "owner",
							"type": "address"
						},
						{
							"internalType": "address",
							"name": "spender",
							"type": "address"
						}
					],
					"name": "allowance",
					"outputs": [
						{
							"internalType": "uint256",
							"name": "",
							"type": "uint256"
						}
					],
					"stateMutability": "view",
					"type": "function"
				},
				{
					"inputs": [
						{
							"internalType": "address",
							"name": "spender",
							"type": "address"
						},
						{
							"internalType": "uint256",
							"name": "amount",
							"type": "uint256"
						}
					],
					"name": "approve",
					"outputs": [
						{
							"internalType": "bool",
							"name": "",
							"type": "bool"
						}
					],
					"stateMutability": "nonpayable",
					"type": "function"
				},
				{
					"inputs": [
						{
							"internalType": "address",
							"name": "account",
							"type": "address"
						}
					],
					"name": "balanceOf",
					"outputs": [
						{
							"internalType": "uint256",
							"name": "",
							"type": "uint256"
						}
					],
					"stateMutability": "view",
					"type": "function"
				},
				{
					"inputs": [
						{
							"internalType": "address",
							"name": "recipient",
							"type": "address"
						},
						{
							"internalType": "uint256",
							"name": "amount",
							"type": "uint256"
						}
					],
					"name": "mint",
					"outputs": [],
					"stateMutability": "nonpayable",
					"type": "function"
				},
				{
					"inputs": [],
					"name": "totalSupply",
					"outputs": [
						{
							"internalType": "uint256",
							"name": "",
							"type": "uint256"
						}
					],
					"stateMutability": "view",
					"type": "function"
				},
				{
					"inputs": [
						{
							"internalType": "address",
							"name": "recipient",
							"type": "address"
						},
						{
							"internalType": "uint256",
							"name": "amount",
							"type": "uint256"
						}
					],
					"name": "transfer",
					"outputs": [
						{
							"internalType": "bool",
							"name": "",
							"type": "bool"
						}
					],
					"stateMutability": "nonpayable",
					"type": "function"
				},
				{
					"inputs": [
						{
							"internalType": "address",
							"name": "sender",
							"type": "address"
						},
						{
							"internalType": "address",
							"name": "recipient",
							"type": "address"
						},
						{
							"internalType": "uint256",
							"name": "amount",
							"type": "uint256"
						}
					],
					"name": "transferFrom",
					"outputs": [
						{
							"internalType": "bool",
							"name": "",
							"type": "bool"
						}
					],
					"stateMutability": "nonpayable",
					"type": "function"
				}
			],
			"devdoc": {
				"kind": "dev",
				"methods": {},
				"version": 1
			},
			"evm": {
				"assembly": "    /* \"contracts/99_ShanToken.sol\":741:3030  contract ShanToken is IERC20 {\r... */\n  mstore(0x40, 0x80)\n    /* \"contracts/99_ShanToken.sol\":1217:1303  constructor() {\r... */\n  callvalue\n  dup1\n  iszero\n  tag_1\n  jumpi\n  0x00\n  dup1\n  revert\ntag_1:\n  pop\n    /* \"contracts/99_ShanToken.sol\":1258:1268  msg.sender */\n  caller\n    /* \"contracts/99_ShanToken.sol\":1242:1255  _mintingAgent */\n  0x00\n  dup1\n    /* \"contracts/99_ShanToken.sol\":1242:1268  _mintingAgent = msg.sender */\n  0x0100\n  exp\n  dup2\n  sload\n  dup2\n  0xffffffffffffffffffffffffffffffffffffffff\n  mul\n  not\n  and\n  swap1\n  dup4\n  0xffffffffffffffffffffffffffffffffffffffff\n  and\n  mul\n  or\n  swap1\n  sstore\n  pop\n    /* \"contracts/99_ShanToken.sol\":1294:1295  0 */\n  0x00\n    /* \"contracts/99_ShanToken.sol\":1279:1291  _totalSupply */\n  0x01\n    /* \"contracts/99_ShanToken.sol\":1279:1295  _totalSupply = 0 */\n  dup2\n  swap1\n  sstore\n  pop\n    /* \"contracts/99_ShanToken.sol\":741:3030  contract ShanToken is IERC20 {\r... */\n  dataSize(sub_0)\n  dup1\n  dataOffset(sub_0)\n  0x00\n  codecopy\n  0x00\n  return\nstop\n\nsub_0: assembly {\n        /* \"contracts/99_ShanToken.sol\":741:3030  contract ShanToken is IERC20 {\r... */\n      mstore(0x40, 0x80)\n      callvalue\n      dup1\n      iszero\n      tag_1\n      jumpi\n      0x00\n      dup1\n      revert\n    tag_1:\n      pop\n      jumpi(tag_2, lt(calldatasize, 0x04))\n      shr(0xe0, calldataload(0x00))\n      dup1\n      0x40c10f19\n      gt\n      tag_10\n      jumpi\n      dup1\n      0x40c10f19\n      eq\n      tag_6\n      jumpi\n      dup1\n      0x70a08231\n      eq\n      tag_7\n      jumpi\n      dup1\n      0xa9059cbb\n      eq\n      tag_8\n      jumpi\n      dup1\n      0xdd62ed3e\n      eq\n      tag_9\n      jumpi\n      jump(tag_2)\n    tag_10:\n      dup1\n      0x095ea7b3\n      eq\n      tag_3\n      jumpi\n      dup1\n      0x18160ddd\n      eq\n      tag_4\n      jumpi\n      dup1\n      0x23b872dd\n      eq\n      tag_5\n      jumpi\n    tag_2:\n      0x00\n      dup1\n      revert\n        /* \"contracts/99_ShanToken.sol\":1880:2096  function approve(address spender, uint256 amount) public override returns (bool) {\r... */\n    tag_3:\n      tag_11\n      0x04\n      dup1\n      calldatasize\n      sub\n      dup2\n      add\n      swap1\n      tag_12\n      swap2\n      swap1\n      tag_13\n      jump\t// in\n    tag_12:\n      tag_14\n      jump\t// in\n    tag_11:\n      mload(0x40)\n      tag_15\n      swap2\n      swap1\n      tag_16\n      jump\t// in\n    tag_15:\n      mload(0x40)\n      dup1\n      swap2\n      sub\n      swap1\n      return\n        /* \"contracts/99_ShanToken.sol\":1311:1411  function totalSupply() public view override returns (uint256) {\r... */\n    tag_4:\n      tag_17\n      tag_18\n      jump\t// in\n    tag_17:\n      mload(0x40)\n      tag_19\n      swap2\n      swap1\n      tag_20\n      jump\t// in\n    tag_19:\n      mload(0x40)\n      dup1\n      swap2\n      sub\n      swap1\n      return\n        /* \"contracts/99_ShanToken.sol\":2104:2579  function transferFrom(address sender, address recipient, uint256 amount) public override returns (bool) {\r... */\n    tag_5:\n      tag_21\n      0x04\n      dup1\n      calldatasize\n      sub\n      dup2\n      add\n      swap1\n      tag_22\n      swap2\n      swap1\n      tag_23\n      jump\t// in\n    tag_22:\n      tag_24\n      jump\t// in\n    tag_21:\n      mload(0x40)\n      tag_25\n      swap2\n      swap1\n      tag_16\n      jump\t// in\n    tag_25:\n      mload(0x40)\n      dup1\n      swap2\n      sub\n      swap1\n      return\n        /* \"contracts/99_ShanToken.sol\":2738:3027  function mint(address recipient, uint256 amount) public {\r... */\n    tag_6:\n      tag_26\n      0x04\n      dup1\n      calldatasize\n      sub\n      dup2\n      add\n      swap1\n      tag_27\n      swap2\n      swap1\n      tag_13\n      jump\t// in\n    tag_27:\n      tag_28\n      jump\t// in\n    tag_26:\n      stop\n        /* \"contracts/99_ShanToken.sol\":1419:1539  function balanceOf(address account) public view  override returns (uint256) {\r... */\n    tag_7:\n      tag_29\n      0x04\n      dup1\n      calldatasize\n      sub\n      dup2\n      add\n      swap1\n      tag_30\n      swap2\n      swap1\n      tag_31\n      jump\t// in\n    tag_30:\n      tag_32\n      jump\t// in\n    tag_29:\n      mload(0x40)\n      tag_33\n      swap2\n      swap1\n      tag_20\n      jump\t// in\n    tag_33:\n      mload(0x40)\n      dup1\n      swap2\n      sub\n      swap1\n      return\n        /* \"contracts/99_ShanToken.sol\":1547:1872  function transfer(address recipient, uint256 amount) public  override returns (bool) {\r... */\n    tag_8:\n      tag_34\n      0x04\n      dup1\n      calldatasize\n      sub\n      dup2\n      add\n      swap1\n      tag_35\n      swap2\n      swap1\n      tag_13\n      jump\t// in\n    tag_35:\n      tag_36\n      jump\t// in\n    tag_34:\n      mload(0x40)\n      tag_37\n      swap2\n      swap1\n      tag_16\n      jump\t// in\n    tag_37:\n      mload(0x40)\n      dup1\n      swap2\n      sub\n      swap1\n      return\n        /* \"contracts/99_ShanToken.sol\":2587:2730  function allowance(address owner, address spender) public view override returns (uint256) {\r... */\n    tag_9:\n      tag_38\n      0x04\n      dup1\n      calldatasize\n      sub\n      dup2\n      add\n      swap1\n      tag_39\n      swap2\n      swap1\n      tag_40\n      jump\t// in\n    tag_39:\n      tag_41\n      jump\t// in\n    tag_38:\n      mload(0x40)\n      tag_42\n      swap2\n      swap1\n      tag_20\n      jump\t// in\n    tag_42:\n      mload(0x40)\n      dup1\n      swap2\n      sub\n      swap1\n      return\n        /* \"contracts/99_ShanToken.sol\":1880:2096  function approve(address spender, uint256 amount) public override returns (bool) {\r... */\n    tag_14:\n        /* \"contracts/99_ShanToken.sol\":1955:1959  bool */\n      0x00\n        /* \"contracts/99_ShanToken.sol\":2007:2013  amount */\n      dup2\n        /* \"contracts/99_ShanToken.sol\":1972:1983  _allowances */\n      0x03\n        /* \"contracts/99_ShanToken.sol\":1972:1995  _allowances[msg.sender] */\n      0x00\n        /* \"contracts/99_ShanToken.sol\":1984:1994  msg.sender */\n      caller\n        /* \"contracts/99_ShanToken.sol\":1972:1995  _allowances[msg.sender] */\n      0xffffffffffffffffffffffffffffffffffffffff\n      and\n      0xffffffffffffffffffffffffffffffffffffffff\n      and\n      dup2\n      mstore\n      0x20\n      add\n      swap1\n      dup2\n      mstore\n      0x20\n      add\n      0x00\n      keccak256\n        /* \"contracts/99_ShanToken.sol\":1972:2004  _allowances[msg.sender][spender] */\n      0x00\n        /* \"contracts/99_ShanToken.sol\":1996:2003  spender */\n      dup6\n        /* \"contracts/99_ShanToken.sol\":1972:2004  _allowances[msg.sender][spender] */\n      0xffffffffffffffffffffffffffffffffffffffff\n      and\n      0xffffffffffffffffffffffffffffffffffffffff\n      and\n      dup2\n      mstore\n      0x20\n      add\n      swap1\n      dup2\n      mstore\n      0x20\n      add\n      0x00\n      keccak256\n        /* \"contracts/99_ShanToken.sol\":1972:2013  _allowances[msg.sender][spender] = amount */\n      dup2\n      swap1\n      sstore\n      pop\n        /* \"contracts/99_ShanToken.sol\":2050:2057  spender */\n      dup3\n        /* \"contracts/99_ShanToken.sol\":2029:2066  Approval(msg.sender, spender, amount) */\n      0xffffffffffffffffffffffffffffffffffffffff\n      and\n        /* \"contracts/99_ShanToken.sol\":2038:2048  msg.sender */\n      caller\n        /* \"contracts/99_ShanToken.sol\":2029:2066  Approval(msg.sender, spender, amount) */\n      0xffffffffffffffffffffffffffffffffffffffff\n      and\n      0x8c5be1e5ebec7d5bd14f71427d1e84f3dd0314c0f7b2291e5b200ac8c7c3b925\n        /* \"contracts/99_ShanToken.sol\":2059:2065  amount */\n      dup5\n        /* \"contracts/99_ShanToken.sol\":2029:2066  Approval(msg.sender, spender, amount) */\n      mload(0x40)\n      tag_44\n      swap2\n      swap1\n      tag_20\n      jump\t// in\n    tag_44:\n      mload(0x40)\n      dup1\n      swap2\n      sub\n      swap1\n      log3\n        /* \"contracts/99_ShanToken.sol\":2084:2088  true */\n      0x01\n        /* \"contracts/99_ShanToken.sol\":2077:2088  return true */\n      swap1\n      pop\n        /* \"contracts/99_ShanToken.sol\":1880:2096  function approve(address spender, uint256 amount) public override returns (bool) {\r... */\n      swap3\n      swap2\n      pop\n      pop\n      jump\t// out\n        /* \"contracts/99_ShanToken.sol\":1311:1411  function totalSupply() public view override returns (uint256) {\r... */\n    tag_18:\n        /* \"contracts/99_ShanToken.sol\":1364:1371  uint256 */\n      0x00\n        /* \"contracts/99_ShanToken.sol\":1391:1403  _totalSupply */\n      sload(0x01)\n        /* \"contracts/99_ShanToken.sol\":1384:1403  return _totalSupply */\n      swap1\n      pop\n        /* \"contracts/99_ShanToken.sol\":1311:1411  function totalSupply() public view override returns (uint256) {\r... */\n      swap1\n      jump\t// out\n        /* \"contracts/99_ShanToken.sol\":2104:2579  function transferFrom(address sender, address recipient, uint256 amount) public override returns (bool) {\r... */\n    tag_24:\n        /* \"contracts/99_ShanToken.sol\":2202:2206  bool */\n      0x00\n        /* \"contracts/99_ShanToken.sol\":2248:2254  amount */\n      dup2\n        /* \"contracts/99_ShanToken.sol\":2227:2236  _balances */\n      0x02\n        /* \"contracts/99_ShanToken.sol\":2227:2244  _balances[sender] */\n      0x00\n        /* \"contracts/99_ShanToken.sol\":2237:2243  sender */\n      dup7\n        /* \"contracts/99_ShanToken.sol\":2227:2244  _balances[sender] */\n      0xffffffffffffffffffffffffffffffffffffffff\n      and\n      0xffffffffffffffffffffffffffffffffffffffff\n      and\n      dup2\n      mstore\n      0x20\n      add\n      swap1\n      dup2\n      mstore\n      0x20\n      add\n      0x00\n      keccak256\n      sload\n        /* \"contracts/99_ShanToken.sol\":2227:2254  _balances[sender] >= amount */\n      lt\n      iszero\n        /* \"contracts/99_ShanToken.sol\":2219:2276  require(_balances[sender] >= amount, \"Not enough tokens\") */\n      tag_47\n      jumpi\n      mload(0x40)\n      0x08c379a000000000000000000000000000000000000000000000000000000000\n      dup2\n      mstore\n      0x04\n      add\n      tag_48\n      swap1\n      tag_49\n      jump\t// in\n    tag_48:\n      mload(0x40)\n      dup1\n      swap2\n      sub\n      swap1\n      revert\n    tag_47:\n        /* \"contracts/99_ShanToken.sol\":2330:2336  amount */\n      dup2\n        /* \"contracts/99_ShanToken.sol\":2295:2306  _allowances */\n      0x03\n        /* \"contracts/99_ShanToken.sol\":2295:2314  _allowances[sender] */\n      0x00\n        /* \"contracts/99_ShanToken.sol\":2307:2313  sender */\n      dup7\n        /* \"contracts/99_ShanToken.sol\":2295:2314  _allowances[sender] */\n      0xffffffffffffffffffffffffffffffffffffffff\n      and\n      0xffffffffffffffffffffffffffffffffffffffff\n      and\n      dup2\n      mstore\n      0x20\n      add\n      swap1\n      dup2\n      mstore\n      0x20\n      add\n      0x00\n      keccak256\n        /* \"contracts/99_ShanToken.sol\":2295:2326  _allowances[sender][msg.sender] */\n      0x00\n        /* \"contracts/99_ShanToken.sol\":2315:2325  msg.sender */\n      caller\n        /* \"contracts/99_ShanToken.sol\":2295:2326  _allowances[sender][msg.sender] */\n      0xffffffffffffffffffffffffffffffffffffffff\n      and\n      0xffffffffffffffffffffffffffffffffffffffff\n      and\n      dup2\n      mstore\n      0x20\n      add\n      swap1\n      dup2\n      mstore\n      0x20\n      add\n      0x00\n      keccak256\n      sload\n        /* \"contracts/99_ShanToken.sol\":2295:2336  _allowances[sender][msg.sender] >= amount */\n      lt\n      iszero\n        /* \"contracts/99_ShanToken.sol\":2287:2367  require(_allowances[sender][msg.sender] >= amount, \"Not enough approved tokens\") */\n      tag_50\n      jumpi\n      mload(0x40)\n      0x08c379a000000000000000000000000000000000000000000000000000000000\n      dup2\n      mstore\n      0x04\n      add\n      tag_51\n      swap1\n      tag_52\n      jump\t// in\n    tag_51:\n      mload(0x40)\n      dup1\n      swap2\n      sub\n      swap1\n      revert\n    tag_50:\n        /* \"contracts/99_ShanToken.sol\":2399:2405  amount */\n      dup2\n        /* \"contracts/99_ShanToken.sol\":2378:2387  _balances */\n      0x02\n        /* \"contracts/99_ShanToken.sol\":2378:2395  _balances[sender] */\n      0x00\n        /* \"contracts/99_ShanToken.sol\":2388:2394  sender */\n      dup7\n        /* \"contracts/99_ShanToken.sol\":2378:2395  _balances[sender] */\n      0xffffffffffffffffffffffffffffffffffffffff\n      and\n      0xffffffffffffffffffffffffffffffffffffffff\n      and\n      dup2\n      mstore\n      0x20\n      add\n      swap1\n      dup2\n      mstore\n      0x20\n      add\n      0x00\n      keccak256\n      0x00\n        /* \"contracts/99_ShanToken.sol\":2378:2405  _balances[sender] -= amount */\n      dup3\n      dup3\n      sload\n      tag_53\n      swap2\n      swap1\n      tag_54\n      jump\t// in\n    tag_53:\n      swap3\n      pop\n      pop\n      dup2\n      swap1\n      sstore\n      pop\n        /* \"contracts/99_ShanToken.sol\":2451:2457  amount */\n      dup2\n        /* \"contracts/99_ShanToken.sol\":2416:2427  _allowances */\n      0x03\n        /* \"contracts/99_ShanToken.sol\":2416:2435  _allowances[sender] */\n      0x00\n        /* \"contracts/99_ShanToken.sol\":2428:2434  sender */\n      dup7\n        /* \"contracts/99_ShanToken.sol\":2416:2435  _allowances[sender] */\n      0xffffffffffffffffffffffffffffffffffffffff\n      and\n      0xffffffffffffffffffffffffffffffffffffffff\n      and\n      dup2\n      mstore\n      0x20\n      add\n      swap1\n      dup2\n      mstore\n      0x20\n      add\n      0x00\n      keccak256\n        /* \"contracts/99_ShanToken.sol\":2416:2447  _allowances[sender][msg.sender] */\n      0x00\n        /* \"contracts/99_ShanToken.sol\":2436:2446  msg.sender */\n      caller\n        /* \"contracts/99_ShanToken.sol\":2416:2447  _allowances[sender][msg.sender] */\n      0xffffffffffffffffffffffffffffffffffffffff\n      and\n      0xffffffffffffffffffffffffffffffffffffffff\n      and\n      dup2\n      mstore\n      0x20\n      add\n      swap1\n      dup2\n      mstore\n      0x20\n      add\n      0x00\n      keccak256\n      0x00\n        /* \"contracts/99_ShanToken.sol\":2416:2457  _allowances[sender][msg.sender] -= amount */\n      dup3\n      dup3\n      sload\n      tag_55\n      swap2\n      swap1\n      tag_54\n      jump\t// in\n    tag_55:\n      swap3\n      pop\n      pop\n      dup2\n      swap1\n      sstore\n      pop\n        /* \"contracts/99_ShanToken.sol\":2492:2498  amount */\n      dup2\n        /* \"contracts/99_ShanToken.sol\":2468:2477  _balances */\n      0x02\n        /* \"contracts/99_ShanToken.sol\":2468:2488  _balances[recipient] */\n      0x00\n        /* \"contracts/99_ShanToken.sol\":2478:2487  recipient */\n      dup6\n        /* \"contracts/99_ShanToken.sol\":2468:2488  _balances[recipient] */\n      0xffffffffffffffffffffffffffffffffffffffff\n      and\n      0xffffffffffffffffffffffffffffffffffffffff\n      and\n      dup2\n      mstore\n      0x20\n      add\n      swap1\n      dup2\n      mstore\n      0x20\n      add\n      0x00\n      keccak256\n      0x00\n        /* \"contracts/99_ShanToken.sol\":2468:2498  _balances[recipient] += amount */\n      dup3\n      dup3\n      sload\n      tag_56\n      swap2\n      swap1\n      tag_57\n      jump\t// in\n    tag_56:\n      swap3\n      pop\n      pop\n      dup2\n      swap1\n      sstore\n      pop\n        /* \"contracts/99_ShanToken.sol\":2531:2540  recipient */\n      dup3\n        /* \"contracts/99_ShanToken.sol\":2514:2549  Transfer(sender, recipient, amount) */\n      0xffffffffffffffffffffffffffffffffffffffff\n      and\n        /* \"contracts/99_ShanToken.sol\":2523:2529  sender */\n      dup5\n        /* \"contracts/99_ShanToken.sol\":2514:2549  Transfer(sender, recipient, amount) */\n      0xffffffffffffffffffffffffffffffffffffffff\n      and\n      0xddf252ad1be2c89b69c2b068fc378daa952ba7f163c4a11628f55a4df523b3ef\n        /* \"contracts/99_ShanToken.sol\":2542:2548  amount */\n      dup5\n        /* \"contracts/99_ShanToken.sol\":2514:2549  Transfer(sender, recipient, amount) */\n      mload(0x40)\n      tag_58\n      swap2\n      swap1\n      tag_20\n      jump\t// in\n    tag_58:\n      mload(0x40)\n      dup1\n      swap2\n      sub\n      swap1\n      log3\n        /* \"contracts/99_ShanToken.sol\":2567:2571  true */\n      0x01\n        /* \"contracts/99_ShanToken.sol\":2560:2571  return true */\n      swap1\n      pop\n        /* \"contracts/99_ShanToken.sol\":2104:2579  function transferFrom(address sender, address recipient, uint256 amount) public override returns (bool) {\r... */\n      swap4\n      swap3\n      pop\n      pop\n      pop\n      jump\t// out\n        /* \"contracts/99_ShanToken.sol\":2738:3027  function mint(address recipient, uint256 amount) public {\r... */\n    tag_28:\n        /* \"contracts/99_ShanToken.sol\":2827:2840  _mintingAgent */\n      0x00\n      dup1\n      sload\n      swap1\n      0x0100\n      exp\n      swap1\n      div\n      0xffffffffffffffffffffffffffffffffffffffff\n      and\n        /* \"contracts/99_ShanToken.sol\":2813:2840  msg.sender == _mintingAgent */\n      0xffffffffffffffffffffffffffffffffffffffff\n      and\n        /* \"contracts/99_ShanToken.sol\":2813:2823  msg.sender */\n      caller\n        /* \"contracts/99_ShanToken.sol\":2813:2840  msg.sender == _mintingAgent */\n      0xffffffffffffffffffffffffffffffffffffffff\n      and\n      eq\n        /* \"contracts/99_ShanToken.sol\":2805:2887  require(msg.sender == _mintingAgent, \"Only the minting agent can mint new tokens\") */\n      tag_60\n      jumpi\n      mload(0x40)\n      0x08c379a000000000000000000000000000000000000000000000000000000000\n      dup2\n      mstore\n      0x04\n      add\n      tag_61\n      swap1\n      tag_62\n      jump\t// in\n    tag_61:\n      mload(0x40)\n      dup1\n      swap2\n      sub\n      swap1\n      revert\n    tag_60:\n        /* \"contracts/99_ShanToken.sol\":2914:2920  amount */\n      dup1\n        /* \"contracts/99_ShanToken.sol\":2898:2910  _totalSupply */\n      0x01\n      0x00\n        /* \"contracts/99_ShanToken.sol\":2898:2920  _totalSupply += amount */\n      dup3\n      dup3\n      sload\n      tag_63\n      swap2\n      swap1\n      tag_57\n      jump\t// in\n    tag_63:\n      swap3\n      pop\n      pop\n      dup2\n      swap1\n      sstore\n      pop\n        /* \"contracts/99_ShanToken.sol\":2955:2961  amount */\n      dup1\n        /* \"contracts/99_ShanToken.sol\":2931:2940  _balances */\n      0x02\n        /* \"contracts/99_ShanToken.sol\":2931:2951  _balances[recipient] */\n      0x00\n        /* \"contracts/99_ShanToken.sol\":2941:2950  recipient */\n      dup5\n        /* \"contracts/99_ShanToken.sol\":2931:2951  _balances[recipient] */\n      0xffffffffffffffffffffffffffffffffffffffff\n      and\n      0xffffffffffffffffffffffffffffffffffffffff\n      and\n      dup2\n      mstore\n      0x20\n      add\n      swap1\n      dup2\n      mstore\n      0x20\n      add\n      0x00\n      keccak256\n      0x00\n        /* \"contracts/99_ShanToken.sol\":2931:2961  _balances[recipient] += amount */\n      dup3\n      dup3\n      sload\n      tag_64\n      swap2\n      swap1\n      tag_57\n      jump\t// in\n    tag_64:\n      swap3\n      pop\n      pop\n      dup2\n      swap1\n      sstore\n      pop\n        /* \"contracts/99_ShanToken.sol\":3001:3010  recipient */\n      dup2\n        /* \"contracts/99_ShanToken.sol\":2977:3019  Transfer(_mintingAgent, recipient, amount) */\n      0xffffffffffffffffffffffffffffffffffffffff\n      and\n        /* \"contracts/99_ShanToken.sol\":2986:2999  _mintingAgent */\n      0x00\n      dup1\n      sload\n      swap1\n      0x0100\n      exp\n      swap1\n      div\n      0xffffffffffffffffffffffffffffffffffffffff\n      and\n        /* \"contracts/99_ShanToken.sol\":2977:3019  Transfer(_mintingAgent, recipient, amount) */\n      0xffffffffffffffffffffffffffffffffffffffff\n      and\n      0xddf252ad1be2c89b69c2b068fc378daa952ba7f163c4a11628f55a4df523b3ef\n        /* \"contracts/99_ShanToken.sol\":3012:3018  amount */\n      dup4\n        /* \"contracts/99_ShanToken.sol\":2977:3019  Transfer(_mintingAgent, recipient, amount) */\n      mload(0x40)\n      tag_65\n      swap2\n      swap1\n      tag_20\n      jump\t// in\n    tag_65:\n      mload(0x40)\n      dup1\n      swap2\n      sub\n      swap1\n      log3\n        /* \"contracts/99_ShanToken.sol\":2738:3027  function mint(address recipient, uint256 amount) public {\r... */\n      pop\n      pop\n      jump\t// out\n        /* \"contracts/99_ShanToken.sol\":1419:1539  function balanceOf(address account) public view  override returns (uint256) {\r... */\n    tag_32:\n        /* \"contracts/99_ShanToken.sol\":1486:1493  uint256 */\n      0x00\n        /* \"contracts/99_ShanToken.sol\":1513:1522  _balances */\n      0x02\n        /* \"contracts/99_ShanToken.sol\":1513:1531  _balances[account] */\n      0x00\n        /* \"contracts/99_ShanToken.sol\":1523:1530  account */\n      dup4\n        /* \"contracts/99_ShanToken.sol\":1513:1531  _balances[account] */\n      0xffffffffffffffffffffffffffffffffffffffff\n      and\n      0xffffffffffffffffffffffffffffffffffffffff\n      and\n      dup2\n      mstore\n      0x20\n      add\n      swap1\n      dup2\n      mstore\n      0x20\n      add\n      0x00\n      keccak256\n      sload\n        /* \"contracts/99_ShanToken.sol\":1506:1531  return _balances[account] */\n      swap1\n      pop\n        /* \"contracts/99_ShanToken.sol\":1419:1539  function balanceOf(address account) public view  override returns (uint256) {\r... */\n      swap2\n      swap1\n      pop\n      jump\t// out\n        /* \"contracts/99_ShanToken.sol\":1547:1872  function transfer(address recipient, uint256 amount) public  override returns (bool) {\r... */\n    tag_36:\n        /* \"contracts/99_ShanToken.sol\":1626:1630  bool */\n      0x00\n        /* \"contracts/99_ShanToken.sol\":1676:1682  amount */\n      dup2\n        /* \"contracts/99_ShanToken.sol\":1651:1660  _balances */\n      0x02\n        /* \"contracts/99_ShanToken.sol\":1651:1672  _balances[msg.sender] */\n      0x00\n        /* \"contracts/99_ShanToken.sol\":1661:1671  msg.sender */\n      caller\n        /* \"contracts/99_ShanToken.sol\":1651:1672  _balances[msg.sender] */\n      0xffffffffffffffffffffffffffffffffffffffff\n      and\n      0xffffffffffffffffffffffffffffffffffffffff\n      and\n      dup2\n      mstore\n      0x20\n      add\n      swap1\n      dup2\n      mstore\n      0x20\n      add\n      0x00\n      keccak256\n      sload\n        /* \"contracts/99_ShanToken.sol\":1651:1682  _balances[msg.sender] >= amount */\n      lt\n      iszero\n        /* \"contracts/99_ShanToken.sol\":1643:1704  require(_balances[msg.sender] >= amount, \"Not enough tokens\") */\n      tag_68\n      jumpi\n      mload(0x40)\n      0x08c379a000000000000000000000000000000000000000000000000000000000\n      dup2\n      mstore\n      0x04\n      add\n      tag_69\n      swap1\n      tag_49\n      jump\t// in\n    tag_69:\n      mload(0x40)\n      dup1\n      swap2\n      sub\n      swap1\n      revert\n    tag_68:\n        /* \"contracts/99_ShanToken.sol\":1740:1746  amount */\n      dup2\n        /* \"contracts/99_ShanToken.sol\":1715:1724  _balances */\n      0x02\n        /* \"contracts/99_ShanToken.sol\":1715:1736  _balances[msg.sender] */\n      0x00\n        /* \"contracts/99_ShanToken.sol\":1725:1735  msg.sender */\n      caller\n        /* \"contracts/99_ShanToken.sol\":1715:1736  _balances[msg.sender] */\n      0xffffffffffffffffffffffffffffffffffffffff\n      and\n      0xffffffffffffffffffffffffffffffffffffffff\n      and\n      dup2\n      mstore\n      0x20\n      add\n      swap1\n      dup2\n      mstore\n      0x20\n      add\n      0x00\n      keccak256\n      0x00\n        /* \"contracts/99_ShanToken.sol\":1715:1746  _balances[msg.sender] -= amount */\n      dup3\n      dup3\n      sload\n      tag_70\n      swap2\n      swap1\n      tag_54\n      jump\t// in\n    tag_70:\n      swap3\n      pop\n      pop\n      dup2\n      swap1\n      sstore\n      pop\n        /* \"contracts/99_ShanToken.sol\":1781:1787  amount */\n      dup2\n        /* \"contracts/99_ShanToken.sol\":1757:1766  _balances */\n      0x02\n        /* \"contracts/99_ShanToken.sol\":1757:1777  _balances[recipient] */\n      0x00\n        /* \"contracts/99_ShanToken.sol\":1767:1776  recipient */\n      dup6\n        /* \"contracts/99_ShanToken.sol\":1757:1777  _balances[recipient] */\n      0xffffffffffffffffffffffffffffffffffffffff\n      and\n      0xffffffffffffffffffffffffffffffffffffffff\n      and\n      dup2\n      mstore\n      0x20\n      add\n      swap1\n      dup2\n      mstore\n      0x20\n      add\n      0x00\n      keccak256\n      0x00\n        /* \"contracts/99_ShanToken.sol\":1757:1787  _balances[recipient] += amount */\n      dup3\n      dup3\n      sload\n      tag_71\n      swap2\n      swap1\n      tag_57\n      jump\t// in\n    tag_71:\n      swap3\n      pop\n      pop\n      dup2\n      swap1\n      sstore\n      pop\n        /* \"contracts/99_ShanToken.sol\":1824:1833  recipient */\n      dup3\n        /* \"contracts/99_ShanToken.sol\":1803:1842  Transfer(msg.sender, recipient, amount) */\n      0xffffffffffffffffffffffffffffffffffffffff\n      and\n        /* \"contracts/99_ShanToken.sol\":1812:1822  msg.sender */\n      caller\n        /* \"contracts/99_ShanToken.sol\":1803:1842  Transfer(msg.sender, recipient, amount) */\n      0xffffffffffffffffffffffffffffffffffffffff\n      and\n      0xddf252ad1be2c89b69c2b068fc378daa952ba7f163c4a11628f55a4df523b3ef\n        /* \"contracts/99_ShanToken.sol\":1835:1841  amount */\n      dup5\n        /* \"contracts/99_ShanToken.sol\":1803:1842  Transfer(msg.sender, recipient, amount) */\n      mload(0x40)\n      tag_72\n      swap2\n      swap1\n      tag_20\n      jump\t// in\n    tag_72:\n      mload(0x40)\n      dup1\n      swap2\n      sub\n      swap1\n      log3\n        /* \"contracts/99_ShanToken.sol\":1860:1864  true */\n      0x01\n        /* \"contracts/99_ShanToken.sol\":1853:1864  return true */\n      swap1\n      pop\n        /* \"contracts/99_ShanToken.sol\":1547:1872  function transfer(address recipient, uint256 amount) public  override returns (bool) {\r... */\n      swap3\n      swap2\n      pop\n      pop\n      jump\t// out\n        /* \"contracts/99_ShanToken.sol\":2587:2730  function allowance(address owner, address spender) public view override returns (uint256) {\r... */\n    tag_41:\n        /* \"contracts/99_ShanToken.sol\":2668:2675  uint256 */\n      0x00\n        /* \"contracts/99_ShanToken.sol\":2695:2706  _allowances */\n      0x03\n        /* \"contracts/99_ShanToken.sol\":2695:2713  _allowances[owner] */\n      0x00\n        /* \"contracts/99_ShanToken.sol\":2707:2712  owner */\n      dup5\n        /* \"contracts/99_ShanToken.sol\":2695:2713  _allowances[owner] */\n      0xffffffffffffffffffffffffffffffffffffffff\n      and\n      0xffffffffffffffffffffffffffffffffffffffff\n      and\n      dup2\n      mstore\n      0x20\n      add\n      swap1\n      dup2\n      mstore\n      0x20\n      add\n      0x00\n      keccak256\n        /* \"contracts/99_ShanToken.sol\":2695:2722  _allowances[owner][spender] */\n      0x00\n        /* \"contracts/99_ShanToken.sol\":2714:2721  spender */\n      dup4\n        /* \"contracts/99_ShanToken.sol\":2695:2722  _allowances[owner][spender] */\n      0xffffffffffffffffffffffffffffffffffffffff\n      and\n      0xffffffffffffffffffffffffffffffffffffffff\n      and\n      dup2\n      mstore\n      0x20\n      add\n      swap1\n      dup2\n      mstore\n      0x20\n      add\n      0x00\n      keccak256\n      sload\n        /* \"contracts/99_ShanToken.sol\":2688:2722  return _allowances[owner][spender] */\n      swap1\n      pop\n        /* \"contracts/99_ShanToken.sol\":2587:2730  function allowance(address owner, address spender) public view override returns (uint256) {\r... */\n      swap3\n      swap2\n      pop\n      pop\n      jump\t// out\n        /* \"#utility.yul\":7:146   */\n    tag_75:\n        /* \"#utility.yul\":53:58   */\n      0x00\n        /* \"#utility.yul\":91:97   */\n      dup2\n        /* \"#utility.yul\":78:98   */\n      calldataload\n        /* \"#utility.yul\":69:98   */\n      swap1\n      pop\n        /* \"#utility.yul\":107:140   */\n      tag_77\n        /* \"#utility.yul\":134:139   */\n      dup2\n        /* \"#utility.yul\":107:140   */\n      tag_78\n      jump\t// in\n    tag_77:\n        /* \"#utility.yul\":7:146   */\n      swap3\n      swap2\n      pop\n      pop\n      jump\t// out\n        /* \"#utility.yul\":152:291   */\n    tag_79:\n        /* \"#utility.yul\":198:203   */\n      0x00\n        /* \"#utility.yul\":236:242   */\n      dup2\n        /* \"#utility.yul\":223:243   */\n      calldataload\n        /* \"#utility.yul\":214:243   */\n      swap1\n      pop\n        /* \"#utility.yul\":252:285   */\n      tag_81\n        /* \"#utility.yul\":279:284   */\n      dup2\n        /* \"#utility.yul\":252:285   */\n      tag_82\n      jump\t// in\n    tag_81:\n        /* \"#utility.yul\":152:291   */\n      swap3\n      swap2\n      pop\n      pop\n      jump\t// out\n        /* \"#utility.yul\":297:626   */\n    tag_31:\n        /* \"#utility.yul\":356:362   */\n      0x00\n        /* \"#utility.yul\":405:407   */\n      0x20\n        /* \"#utility.yul\":393:402   */\n      dup3\n        /* \"#utility.yul\":384:391   */\n      dup5\n        /* \"#utility.yul\":380:403   */\n      sub\n        /* \"#utility.yul\":376:408   */\n      slt\n        /* \"#utility.yul\":373:492   */\n      iszero\n      tag_84\n      jumpi\n        /* \"#utility.yul\":411:490   */\n      tag_85\n      tag_86\n      jump\t// in\n    tag_85:\n        /* \"#utility.yul\":373:492   */\n    tag_84:\n        /* \"#utility.yul\":531:532   */\n      0x00\n        /* \"#utility.yul\":556:609   */\n      tag_87\n        /* \"#utility.yul\":601:608   */\n      dup5\n        /* \"#utility.yul\":592:598   */\n      dup3\n        /* \"#utility.yul\":581:590   */\n      dup6\n        /* \"#utility.yul\":577:599   */\n      add\n        /* \"#utility.yul\":556:609   */\n      tag_75\n      jump\t// in\n    tag_87:\n        /* \"#utility.yul\":546:609   */\n      swap2\n      pop\n        /* \"#utility.yul\":502:619   */\n      pop\n        /* \"#utility.yul\":297:626   */\n      swap3\n      swap2\n      pop\n      pop\n      jump\t// out\n        /* \"#utility.yul\":632:1106   */\n    tag_40:\n        /* \"#utility.yul\":700:706   */\n      0x00\n        /* \"#utility.yul\":708:714   */\n      dup1\n        /* \"#utility.yul\":757:759   */\n      0x40\n        /* \"#utility.yul\":745:754   */\n      dup4\n        /* \"#utility.yul\":736:743   */\n      dup6\n        /* \"#utility.yul\":732:755   */\n      sub\n        /* \"#utility.yul\":728:760   */\n      slt\n        /* \"#utility.yul\":725:844   */\n      iszero\n      tag_89\n      jumpi\n        /* \"#utility.yul\":763:842   */\n      tag_90\n      tag_86\n      jump\t// in\n    tag_90:\n        /* \"#utility.yul\":725:844   */\n    tag_89:\n        /* \"#utility.yul\":883:884   */\n      0x00\n        /* \"#utility.yul\":908:961   */\n      tag_91\n        /* \"#utility.yul\":953:960   */\n      dup6\n        /* \"#utility.yul\":944:950   */\n      dup3\n        /* \"#utility.yul\":933:942   */\n      dup7\n        /* \"#utility.yul\":929:951   */\n      add\n        /* \"#utility.yul\":908:961   */\n      tag_75\n      jump\t// in\n    tag_91:\n        /* \"#utility.yul\":898:961   */\n      swap3\n      pop\n        /* \"#utility.yul\":854:971   */\n      pop\n        /* \"#utility.yul\":1010:1012   */\n      0x20\n        /* \"#utility.yul\":1036:1089   */\n      tag_92\n        /* \"#utility.yul\":1081:1088   */\n      dup6\n        /* \"#utility.yul\":1072:1078   */\n      dup3\n        /* \"#utility.yul\":1061:1070   */\n      dup7\n        /* \"#utility.yul\":1057:1079   */\n      add\n        /* \"#utility.yul\":1036:1089   */\n      tag_75\n      jump\t// in\n    tag_92:\n        /* \"#utility.yul\":1026:1089   */\n      swap2\n      pop\n        /* \"#utility.yul\":981:1099   */\n      pop\n        /* \"#utility.yul\":632:1106   */\n      swap3\n      pop\n      swap3\n      swap1\n      pop\n      jump\t// out\n        /* \"#utility.yul\":1112:1731   */\n    tag_23:\n        /* \"#utility.yul\":1189:1195   */\n      0x00\n        /* \"#utility.yul\":1197:1203   */\n      dup1\n        /* \"#utility.yul\":1205:1211   */\n      0x00\n        /* \"#utility.yul\":1254:1256   */\n      0x60\n        /* \"#utility.yul\":1242:1251   */\n      dup5\n        /* \"#utility.yul\":1233:1240   */\n      dup7\n        /* \"#utility.yul\":1229:1252   */\n      sub\n        /* \"#utility.yul\":1225:1257   */\n      slt\n        /* \"#utility.yul\":1222:1341   */\n      iszero\n      tag_94\n      jumpi\n        /* \"#utility.yul\":1260:1339   */\n      tag_95\n      tag_86\n      jump\t// in\n    tag_95:\n        /* \"#utility.yul\":1222:1341   */\n    tag_94:\n        /* \"#utility.yul\":1380:1381   */\n      0x00\n        /* \"#utility.yul\":1405:1458   */\n      tag_96\n        /* \"#utility.yul\":1450:1457   */\n      dup7\n        /* \"#utility.yul\":1441:1447   */\n      dup3\n        /* \"#utility.yul\":1430:1439   */\n      dup8\n        /* \"#utility.yul\":1426:1448   */\n      add\n        /* \"#utility.yul\":1405:1458   */\n      tag_75\n      jump\t// in\n    tag_96:\n        /* \"#utility.yul\":1395:1458   */\n      swap4\n      pop\n        /* \"#utility.yul\":1351:1468   */\n      pop\n        /* \"#utility.yul\":1507:1509   */\n      0x20\n        /* \"#utility.yul\":1533:1586   */\n      tag_97\n        /* \"#utility.yul\":1578:1585   */\n      dup7\n        /* \"#utility.yul\":1569:1575   */\n      dup3\n        /* \"#utility.yul\":1558:1567   */\n      dup8\n        /* \"#utility.yul\":1554:1576   */\n      add\n        /* \"#utility.yul\":1533:1586   */\n      tag_75\n      jump\t// in\n    tag_97:\n        /* \"#utility.yul\":1523:1586   */\n      swap3\n      pop\n        /* \"#utility.yul\":1478:1596   */\n      pop\n        /* \"#utility.yul\":1635:1637   */\n      0x40\n        /* \"#utility.yul\":1661:1714   */\n      tag_98\n        /* \"#utility.yul\":1706:1713   */\n      dup7\n        /* \"#utility.yul\":1697:1703   */\n      dup3\n        /* \"#utility.yul\":1686:1695   */\n      dup8\n        /* \"#utility.yul\":1682:1704   */\n      add\n        /* \"#utility.yul\":1661:1714   */\n      tag_79\n      jump\t// in\n    tag_98:\n        /* \"#utility.yul\":1651:1714   */\n      swap2\n      pop\n        /* \"#utility.yul\":1606:1724   */\n      pop\n        /* \"#utility.yul\":1112:1731   */\n      swap3\n      pop\n      swap3\n      pop\n      swap3\n      jump\t// out\n        /* \"#utility.yul\":1737:2211   */\n    tag_13:\n        /* \"#utility.yul\":1805:1811   */\n      0x00\n        /* \"#utility.yul\":1813:1819   */\n      dup1\n        /* \"#utility.yul\":1862:1864   */\n      0x40\n        /* \"#utility.yul\":1850:1859   */\n      dup4\n        /* \"#utility.yul\":1841:1848   */\n      dup6\n        /* \"#utility.yul\":1837:1860   */\n      sub\n        /* \"#utility.yul\":1833:1865   */\n      slt\n        /* \"#utility.yul\":1830:1949   */\n      iszero\n      tag_100\n      jumpi\n        /* \"#utility.yul\":1868:1947   */\n      tag_101\n      tag_86\n      jump\t// in\n    tag_101:\n        /* \"#utility.yul\":1830:1949   */\n    tag_100:\n        /* \"#utility.yul\":1988:1989   */\n      0x00\n        /* \"#utility.yul\":2013:2066   */\n      tag_102\n        /* \"#utility.yul\":2058:2065   */\n      dup6\n        /* \"#utility.yul\":2049:2055   */\n      dup3\n        /* \"#utility.yul\":2038:2047   */\n      dup7\n        /* \"#utility.yul\":2034:2056   */\n      add\n        /* \"#utility.yul\":2013:2066   */\n      tag_75\n      jump\t// in\n    tag_102:\n        /* \"#utility.yul\":2003:2066   */\n      swap3\n      pop\n        /* \"#utility.yul\":1959:2076   */\n      pop\n        /* \"#utility.yul\":2115:2117   */\n      0x20\n        /* \"#utility.yul\":2141:2194   */\n      tag_103\n        /* \"#utility.yul\":2186:2193   */\n      dup6\n        /* \"#utility.yul\":2177:2183   */\n      dup3\n        /* \"#utility.yul\":2166:2175   */\n      dup7\n        /* \"#utility.yul\":2162:2184   */\n      add\n        /* \"#utility.yul\":2141:2194   */\n      tag_79\n      jump\t// in\n    tag_103:\n        /* \"#utility.yul\":2131:2194   */\n      swap2\n      pop\n        /* \"#utility.yul\":2086:2204   */\n      pop\n        /* \"#utility.yul\":1737:2211   */\n      swap3\n      pop\n      swap3\n      swap1\n      pop\n      jump\t// out\n        /* \"#utility.yul\":2217:2326   */\n    tag_104:\n        /* \"#utility.yul\":2298:2319   */\n      tag_106\n        /* \"#utility.yul\":2313:2318   */\n      dup2\n        /* \"#utility.yul\":2298:2319   */\n      tag_107\n      jump\t// in\n    tag_106:\n        /* \"#utility.yul\":2293:2296   */\n      dup3\n        /* \"#utility.yul\":2286:2320   */\n      mstore\n        /* \"#utility.yul\":2217:2326   */\n      pop\n      pop\n      jump\t// out\n        /* \"#utility.yul\":2332:2698   */\n    tag_108:\n        /* \"#utility.yul\":2474:2477   */\n      0x00\n        /* \"#utility.yul\":2495:2562   */\n      tag_110\n        /* \"#utility.yul\":2559:2561   */\n      0x2a\n        /* \"#utility.yul\":2554:2557   */\n      dup4\n        /* \"#utility.yul\":2495:2562   */\n      tag_111\n      jump\t// in\n    tag_110:\n        /* \"#utility.yul\":2488:2562   */\n      swap2\n      pop\n        /* \"#utility.yul\":2571:2664   */\n      tag_112\n        /* \"#utility.yul\":2660:2663   */\n      dup3\n        /* \"#utility.yul\":2571:2664   */\n      tag_113\n      jump\t// in\n    tag_112:\n        /* \"#utility.yul\":2689:2691   */\n      0x40\n        /* \"#utility.yul\":2684:2687   */\n      dup3\n        /* \"#utility.yul\":2680:2692   */\n      add\n        /* \"#utility.yul\":2673:2692   */\n      swap1\n      pop\n        /* \"#utility.yul\":2332:2698   */\n      swap2\n      swap1\n      pop\n      jump\t// out\n        /* \"#utility.yul\":2704:3070   */\n    tag_114:\n        /* \"#utility.yul\":2846:2849   */\n      0x00\n        /* \"#utility.yul\":2867:2934   */\n      tag_116\n        /* \"#utility.yul\":2931:2933   */\n      0x1a\n        /* \"#utility.yul\":2926:2929   */\n      dup4\n        /* \"#utility.yul\":2867:2934   */\n      tag_111\n      jump\t// in\n    tag_116:\n        /* \"#utility.yul\":2860:2934   */\n      swap2\n      pop\n        /* \"#utility.yul\":2943:3036   */\n      tag_117\n        /* \"#utility.yul\":3032:3035   */\n      dup3\n        /* \"#utility.yul\":2943:3036   */\n      tag_118\n      jump\t// in\n    tag_117:\n        /* \"#utility.yul\":3061:3063   */\n      0x20\n        /* \"#utility.yul\":3056:3059   */\n      dup3\n        /* \"#utility.yul\":3052:3064   */\n      add\n        /* \"#utility.yul\":3045:3064   */\n      swap1\n      pop\n        /* \"#utility.yul\":2704:3070   */\n      swap2\n      swap1\n      pop\n      jump\t// out\n        /* \"#utility.yul\":3076:3442   */\n    tag_119:\n        /* \"#utility.yul\":3218:3221   */\n      0x00\n        /* \"#utility.yul\":3239:3306   */\n      tag_121\n        /* \"#utility.yul\":3303:3305   */\n      0x11\n        /* \"#utility.yul\":3298:3301   */\n      dup4\n        /* \"#utility.yul\":3239:3306   */\n      tag_111\n      jump\t// in\n    tag_121:\n        /* \"#utility.yul\":3232:3306   */\n      swap2\n      pop\n        /* \"#utility.yul\":3315:3408   */\n      tag_122\n        /* \"#utility.yul\":3404:3407   */\n      dup3\n        /* \"#utility.yul\":3315:3408   */\n      tag_123\n      jump\t// in\n    tag_122:\n        /* \"#utility.yul\":3433:3435   */\n      0x20\n        /* \"#utility.yul\":3428:3431   */\n      dup3\n        /* \"#utility.yul\":3424:3436   */\n      add\n        /* \"#utility.yul\":3417:3436   */\n      swap1\n      pop\n        /* \"#utility.yul\":3076:3442   */\n      swap2\n      swap1\n      pop\n      jump\t// out\n        /* \"#utility.yul\":3448:3566   */\n    tag_124:\n        /* \"#utility.yul\":3535:3559   */\n      tag_126\n        /* \"#utility.yul\":3553:3558   */\n      dup2\n        /* \"#utility.yul\":3535:3559   */\n      tag_127\n      jump\t// in\n    tag_126:\n        /* \"#utility.yul\":3530:3533   */\n      dup3\n        /* \"#utility.yul\":3523:3560   */\n      mstore\n        /* \"#utility.yul\":3448:3566   */\n      pop\n      pop\n      jump\t// out\n        /* \"#utility.yul\":3572:3782   */\n    tag_16:\n        /* \"#utility.yul\":3659:3663   */\n      0x00\n        /* \"#utility.yul\":3697:3699   */\n      0x20\n        /* \"#utility.yul\":3686:3695   */\n      dup3\n        /* \"#utility.yul\":3682:3700   */\n      add\n        /* \"#utility.yul\":3674:3700   */\n      swap1\n      pop\n        /* \"#utility.yul\":3710:3775   */\n      tag_129\n        /* \"#utility.yul\":3772:3773   */\n      0x00\n        /* \"#utility.yul\":3761:3770   */\n      dup4\n        /* \"#utility.yul\":3757:3774   */\n      add\n        /* \"#utility.yul\":3748:3754   */\n      dup5\n        /* \"#utility.yul\":3710:3775   */\n      tag_104\n      jump\t// in\n    tag_129:\n        /* \"#utility.yul\":3572:3782   */\n      swap3\n      swap2\n      pop\n      pop\n      jump\t// out\n        /* \"#utility.yul\":3788:4207   */\n    tag_62:\n        /* \"#utility.yul\":3954:3958   */\n      0x00\n        /* \"#utility.yul\":3992:3994   */\n      0x20\n        /* \"#utility.yul\":3981:3990   */\n      dup3\n        /* \"#utility.yul\":3977:3995   */\n      add\n        /* \"#utility.yul\":3969:3995   */\n      swap1\n      pop\n        /* \"#utility.yul\":4041:4050   */\n      dup2\n        /* \"#utility.yul\":4035:4039   */\n      dup2\n        /* \"#utility.yul\":4031:4051   */\n      sub\n        /* \"#utility.yul\":4027:4028   */\n      0x00\n        /* \"#utility.yul\":4016:4025   */\n      dup4\n        /* \"#utility.yul\":4012:4029   */\n      add\n        /* \"#utility.yul\":4005:4052   */\n      mstore\n        /* \"#utility.yul\":4069:4200   */\n      tag_131\n        /* \"#utility.yul\":4195:4199   */\n      dup2\n        /* \"#utility.yul\":4069:4200   */\n      tag_108\n      jump\t// in\n    tag_131:\n        /* \"#utility.yul\":4061:4200   */\n      swap1\n      pop\n        /* \"#utility.yul\":3788:4207   */\n      swap2\n      swap1\n      pop\n      jump\t// out\n        /* \"#utility.yul\":4213:4632   */\n    tag_52:\n        /* \"#utility.yul\":4379:4383   */\n      0x00\n        /* \"#utility.yul\":4417:4419   */\n      0x20\n        /* \"#utility.yul\":4406:4415   */\n      dup3\n        /* \"#utility.yul\":4402:4420   */\n      add\n        /* \"#utility.yul\":4394:4420   */\n      swap1\n      pop\n        /* \"#utility.yul\":4466:4475   */\n      dup2\n        /* \"#utility.yul\":4460:4464   */\n      dup2\n        /* \"#utility.yul\":4456:4476   */\n      sub\n        /* \"#utility.yul\":4452:4453   */\n      0x00\n        /* \"#utility.yul\":4441:4450   */\n      dup4\n        /* \"#utility.yul\":4437:4454   */\n      add\n        /* \"#utility.yul\":4430:4477   */\n      mstore\n        /* \"#utility.yul\":4494:4625   */\n      tag_133\n        /* \"#utility.yul\":4620:4624   */\n      dup2\n        /* \"#utility.yul\":4494:4625   */\n      tag_114\n      jump\t// in\n    tag_133:\n        /* \"#utility.yul\":4486:4625   */\n      swap1\n      pop\n        /* \"#utility.yul\":4213:4632   */\n      swap2\n      swap1\n      pop\n      jump\t// out\n        /* \"#utility.yul\":4638:5057   */\n    tag_49:\n        /* \"#utility.yul\":4804:4808   */\n      0x00\n        /* \"#utility.yul\":4842:4844   */\n      0x20\n        /* \"#utility.yul\":4831:4840   */\n      dup3\n        /* \"#utility.yul\":4827:4845   */\n      add\n        /* \"#utility.yul\":4819:4845   */\n      swap1\n      pop\n        /* \"#utility.yul\":4891:4900   */\n      dup2\n        /* \"#utility.yul\":4885:4889   */\n      dup2\n        /* \"#utility.yul\":4881:4901   */\n      sub\n        /* \"#utility.yul\":4877:4878   */\n      0x00\n        /* \"#utility.yul\":4866:4875   */\n      dup4\n        /* \"#utility.yul\":4862:4879   */\n      add\n        /* \"#utility.yul\":4855:4902   */\n      mstore\n        /* \"#utility.yul\":4919:5050   */\n      tag_135\n        /* \"#utility.yul\":5045:5049   */\n      dup2\n        /* \"#utility.yul\":4919:5050   */\n      tag_119\n      jump\t// in\n    tag_135:\n        /* \"#utility.yul\":4911:5050   */\n      swap1\n      pop\n        /* \"#utility.yul\":4638:5057   */\n      swap2\n      swap1\n      pop\n      jump\t// out\n        /* \"#utility.yul\":5063:5285   */\n    tag_20:\n        /* \"#utility.yul\":5156:5160   */\n      0x00\n        /* \"#utility.yul\":5194:5196   */\n      0x20\n        /* \"#utility.yul\":5183:5192   */\n      dup3\n        /* \"#utility.yul\":5179:5197   */\n      add\n        /* \"#utility.yul\":5171:5197   */\n      swap1\n      pop\n        /* \"#utility.yul\":5207:5278   */\n      tag_137\n        /* \"#utility.yul\":5275:5276   */\n      0x00\n        /* \"#utility.yul\":5264:5273   */\n      dup4\n        /* \"#utility.yul\":5260:5277   */\n      add\n        /* \"#utility.yul\":5251:5257   */\n      dup5\n        /* \"#utility.yul\":5207:5278   */\n      tag_124\n      jump\t// in\n    tag_137:\n        /* \"#utility.yul\":5063:5285   */\n      swap3\n      swap2\n      pop\n      pop\n      jump\t// out\n        /* \"#utility.yul\":5372:5541   */\n    tag_111:\n        /* \"#utility.yul\":5456:5467   */\n      0x00\n        /* \"#utility.yul\":5490:5496   */\n      dup3\n        /* \"#utility.yul\":5485:5488   */\n      dup3\n        /* \"#utility.yul\":5478:5497   */\n      mstore\n        /* \"#utility.yul\":5530:5534   */\n      0x20\n        /* \"#utility.yul\":5525:5528   */\n      dup3\n        /* \"#utility.yul\":5521:5535   */\n      add\n        /* \"#utility.yul\":5506:5535   */\n      swap1\n      pop\n        /* \"#utility.yul\":5372:5541   */\n      swap3\n      swap2\n      pop\n      pop\n      jump\t// out\n        /* \"#utility.yul\":5547:5852   */\n    tag_57:\n        /* \"#utility.yul\":5587:5590   */\n      0x00\n        /* \"#utility.yul\":5606:5626   */\n      tag_142\n        /* \"#utility.yul\":5624:5625   */\n      dup3\n        /* \"#utility.yul\":5606:5626   */\n      tag_127\n      jump\t// in\n    tag_142:\n        /* \"#utility.yul\":5601:5626   */\n      swap2\n      pop\n        /* \"#utility.yul\":5640:5660   */\n      tag_143\n        /* \"#utility.yul\":5658:5659   */\n      dup4\n        /* \"#utility.yul\":5640:5660   */\n      tag_127\n      jump\t// in\n    tag_143:\n        /* \"#utility.yul\":5635:5660   */\n      swap3\n      pop\n        /* \"#utility.yul\":5794:5795   */\n      dup3\n        /* \"#utility.yul\":5726:5792   */\n      0xffffffffffffffffffffffffffffffffffffffffffffffffffffffffffffffff\n        /* \"#utility.yul\":5722:5796   */\n      sub\n        /* \"#utility.yul\":5719:5720   */\n      dup3\n        /* \"#utility.yul\":5716:5797   */\n      gt\n        /* \"#utility.yul\":5713:5820   */\n      iszero\n      tag_144\n      jumpi\n        /* \"#utility.yul\":5800:5818   */\n      tag_145\n      tag_146\n      jump\t// in\n    tag_145:\n        /* \"#utility.yul\":5713:5820   */\n    tag_144:\n        /* \"#utility.yul\":5844:5845   */\n      dup3\n        /* \"#utility.yul\":5841:5842   */\n      dup3\n        /* \"#utility.yul\":5837:5846   */\n      add\n        /* \"#utility.yul\":5830:5846   */\n      swap1\n      pop\n        /* \"#utility.yul\":5547:5852   */\n      swap3\n      swap2\n      pop\n      pop\n      jump\t// out\n        /* \"#utility.yul\":5858:6049   */\n    tag_54:\n        /* \"#utility.yul\":5898:5902   */\n      0x00\n        /* \"#utility.yul\":5918:5938   */\n      tag_148\n        /* \"#utility.yul\":5936:5937   */\n      dup3\n        /* \"#utility.yul\":5918:5938   */\n      tag_127\n      jump\t// in\n    tag_148:\n        /* \"#utility.yul\":5913:5938   */\n      swap2\n      pop\n        /* \"#utility.yul\":5952:5972   */\n      tag_149\n        /* \"#utility.yul\":5970:5971   */\n      dup4\n        /* \"#utility.yul\":5952:5972   */\n      tag_127\n      jump\t// in\n    tag_149:\n        /* \"#utility.yul\":5947:5972   */\n      swap3\n      pop\n        /* \"#utility.yul\":5991:5992   */\n      dup3\n        /* \"#utility.yul\":5988:5989   */\n      dup3\n        /* \"#utility.yul\":5985:5993   */\n      lt\n        /* \"#utility.yul\":5982:6016   */\n      iszero\n      tag_150\n      jumpi\n        /* \"#utility.yul\":5996:6014   */\n      tag_151\n      tag_146\n      jump\t// in\n    tag_151:\n        /* \"#utility.yul\":5982:6016   */\n    tag_150:\n        /* \"#utility.yul\":6041:6042   */\n      dup3\n        /* \"#utility.yul\":6038:6039   */\n      dup3\n        /* \"#utility.yul\":6034:6043   */\n      sub\n        /* \"#utility.yul\":6026:6043   */\n      swap1\n      pop\n        /* \"#utility.yul\":5858:6049   */\n      swap3\n      swap2\n      pop\n      pop\n      jump\t// out\n        /* \"#utility.yul\":6055:6151   */\n    tag_152:\n        /* \"#utility.yul\":6092:6099   */\n      0x00\n        /* \"#utility.yul\":6121:6145   */\n      tag_154\n        /* \"#utility.yul\":6139:6144   */\n      dup3\n        /* \"#utility.yul\":6121:6145   */\n      tag_155\n      jump\t// in\n    tag_154:\n        /* \"#utility.yul\":6110:6145   */\n      swap1\n      pop\n        /* \"#utility.yul\":6055:6151   */\n      swap2\n      swap1\n      pop\n      jump\t// out\n        /* \"#utility.yul\":6157:6247   */\n    tag_107:\n        /* \"#utility.yul\":6191:6198   */\n      0x00\n        /* \"#utility.yul\":6234:6239   */\n      dup2\n        /* \"#utility.yul\":6227:6240   */\n      iszero\n        /* \"#utility.yul\":6220:6241   */\n      iszero\n        /* \"#utility.yul\":6209:6241   */\n      swap1\n      pop\n        /* \"#utility.yul\":6157:6247   */\n      swap2\n      swap1\n      pop\n      jump\t// out\n        /* \"#utility.yul\":6253:6379   */\n    tag_155:\n        /* \"#utility.yul\":6290:6297   */\n      0x00\n        /* \"#utility.yul\":6330:6372   */\n      0xffffffffffffffffffffffffffffffffffffffff\n        /* \"#utility.yul\":6323:6328   */\n      dup3\n        /* \"#utility.yul\":6319:6373   */\n      and\n        /* \"#utility.yul\":6308:6373   */\n      swap1\n      pop\n        /* \"#utility.yul\":6253:6379   */\n      swap2\n      swap1\n      pop\n      jump\t// out\n        /* \"#utility.yul\":6385:6462   */\n    tag_127:\n        /* \"#utility.yul\":6422:6429   */\n      0x00\n        /* \"#utility.yul\":6451:6456   */\n      dup2\n        /* \"#utility.yul\":6440:6456   */\n      swap1\n      pop\n        /* \"#utility.yul\":6385:6462   */\n      swap2\n      swap1\n      pop\n      jump\t// out\n        /* \"#utility.yul\":6468:6648   */\n    tag_146:\n        /* \"#utility.yul\":6516:6593   */\n      0x4e487b7100000000000000000000000000000000000000000000000000000000\n        /* \"#utility.yul\":6513:6514   */\n      0x00\n        /* \"#utility.yul\":6506:6594   */\n      mstore\n        /* \"#utility.yul\":6613:6617   */\n      0x11\n        /* \"#utility.yul\":6610:6611   */\n      0x04\n        /* \"#utility.yul\":6603:6618   */\n      mstore\n        /* \"#utility.yul\":6637:6641   */\n      0x24\n        /* \"#utility.yul\":6634:6635   */\n      0x00\n        /* \"#utility.yul\":6627:6642   */\n      revert\n        /* \"#utility.yul\":6777:6894   */\n    tag_86:\n        /* \"#utility.yul\":6886:6887   */\n      0x00\n        /* \"#utility.yul\":6883:6884   */\n      dup1\n        /* \"#utility.yul\":6876:6888   */\n      revert\n        /* \"#utility.yul\":6900:7129   */\n    tag_113:\n        /* \"#utility.yul\":7040:7074   */\n      0x4f6e6c7920746865206d696e74696e67206167656e742063616e206d696e7420\n        /* \"#utility.yul\":7036:7037   */\n      0x00\n        /* \"#utility.yul\":7028:7034   */\n      dup3\n        /* \"#utility.yul\":7024:7038   */\n      add\n        /* \"#utility.yul\":7017:7075   */\n      mstore\n        /* \"#utility.yul\":7109:7121   */\n      0x6e657720746f6b656e7300000000000000000000000000000000000000000000\n        /* \"#utility.yul\":7104:7106   */\n      0x20\n        /* \"#utility.yul\":7096:7102   */\n      dup3\n        /* \"#utility.yul\":7092:7107   */\n      add\n        /* \"#utility.yul\":7085:7122   */\n      mstore\n        /* \"#utility.yul\":6900:7129   */\n      pop\n      jump\t// out\n        /* \"#utility.yul\":7135:7311   */\n    tag_118:\n        /* \"#utility.yul\":7275:7303   */\n      0x4e6f7420656e6f75676820617070726f76656420746f6b656e73000000000000\n        /* \"#utility.yul\":7271:7272   */\n      0x00\n        /* \"#utility.yul\":7263:7269   */\n      dup3\n        /* \"#utility.yul\":7259:7273   */\n      add\n        /* \"#utility.yul\":7252:7304   */\n      mstore\n        /* \"#utility.yul\":7135:7311   */\n      pop\n      jump\t// out\n        /* \"#utility.yul\":7317:7484   */\n    tag_123:\n        /* \"#utility.yul\":7457:7476   */\n      0x4e6f7420656e6f75676820746f6b656e73000000000000000000000000000000\n        /* \"#utility.yul\":7453:7454   */\n      0x00\n        /* \"#utility.yul\":7445:7451   */\n      dup3\n        /* \"#utility.yul\":7441:7455   */\n      add\n        /* \"#utility.yul\":7434:7477   */\n      mstore\n        /* \"#utility.yul\":7317:7484   */\n      pop\n      jump\t// out\n        /* \"#utility.yul\":7490:7612   */\n    tag_78:\n        /* \"#utility.yul\":7563:7587   */\n      tag_167\n        /* \"#utility.yul\":7581:7586   */\n      dup2\n        /* \"#utility.yul\":7563:7587   */\n      tag_152\n      jump\t// in\n    tag_167:\n        /* \"#utility.yul\":7556:7561   */\n      dup2\n        /* \"#utility.yul\":7553:7588   */\n      eq\n        /* \"#utility.yul\":7543:7606   */\n      tag_168\n      jumpi\n        /* \"#utility.yul\":7602:7603   */\n      0x00\n        /* \"#utility.yul\":7599:7600   */\n      dup1\n        /* \"#utility.yul\":7592:7604   */\n      revert\n        /* \"#utility.yul\":7543:7606   */\n    tag_168:\n        /* \"#utility.yul\":7490:7612   */\n      pop\n      jump\t// out\n        /* \"#utility.yul\":7618:7740   */\n    tag_82:\n        /* \"#utility.yul\":7691:7715   */\n      tag_170\n        /* \"#utility.yul\":7709:7714   */\n      dup2\n        /* \"#utility.yul\":7691:7715   */\n      tag_127\n      jump\t// in\n    tag_170:\n        /* \"#utility.yul\":7684:7689   */\n      dup2\n        /* \"#utility.yul\":7681:7716   */\n      eq\n        /* \"#utility.yul\":7671:7734   */\n      tag_171\n      jumpi\n        /* \"#utility.yul\":7730:7731   */\n      0x00\n        /* \"#utility.yul\":7727:7728   */\n      dup1\n        /* \"#utility.yul\":7720:7732   */\n      revert\n        /* \"#utility.yul\":7671:7734   */\n    tag_171:\n        /* \"#utility.yul\":7618:7740   */\n      pop\n      jump\t// out\n\n    auxdata: 0xa264697066735822122034872ef5285016709afc5105549cc5d9b52f59661dcc490ecc0623f4b9ddb1c164736f6c63430008070033\n}\n",
				"bytecode": {
					"linkReferences": {},
					"object": "608060405234801561001057600080fd5b50336000806101000a81548173ffffffffffffffffffffffffffffffffffffffff021916908373ffffffffffffffffffffffffffffffffffffffff1602179055506000600181905550610df2806100686000396000f3fe608060405234801561001057600080fd5b506004361061007d5760003560e01c806340c10f191161005b57806340c10f191461010057806370a082311461011c578063a9059cbb1461014c578063dd62ed3e1461017c5761007d565b8063095ea7b31461008257806318160ddd146100b257806323b872dd146100d0575b600080fd5b61009c60048036038101906100979190610a79565b6101ac565b6040516100a99190610b40565b60405180910390f35b6100ba61029e565b6040516100c79190610bbb565b60405180910390f35b6100ea60048036038101906100e59190610a26565b6102a8565b6040516100f79190610b40565b60405180910390f35b61011a60048036038101906101159190610a79565b61059a565b005b610136600480360381019061013191906109b9565b610720565b6040516101439190610bbb565b60405180910390f35b61016660048036038101906101619190610a79565b610769565b6040516101739190610b40565b60405180910390f35b610196600480360381019061019191906109e6565b610908565b6040516101a39190610bbb565b60405180910390f35b600081600360003373ffffffffffffffffffffffffffffffffffffffff1673ffffffffffffffffffffffffffffffffffffffff16815260200190815260200160002060008573ffffffffffffffffffffffffffffffffffffffff1673ffffffffffffffffffffffffffffffffffffffff168152602001908152602001600020819055508273ffffffffffffffffffffffffffffffffffffffff163373ffffffffffffffffffffffffffffffffffffffff167f8c5be1e5ebec7d5bd14f71427d1e84f3dd0314c0f7b2291e5b200ac8c7c3b9258460405161028c9190610bbb565b60405180910390a36001905092915050565b6000600154905090565b600081600260008673ffffffffffffffffffffffffffffffffffffffff1673ffffffffffffffffffffffffffffffffffffffff16815260200190815260200160002054101561032c576040517f08c379a000000000000000000000000000000000000000000000000000000000815260040161032390610b9b565b60405180910390fd5b81600360008673ffffffffffffffffffffffffffffffffffffffff1673ffffffffffffffffffffffffffffffffffffffff16815260200190815260200160002060003373ffffffffffffffffffffffffffffffffffffffff1673ffffffffffffffffffffffffffffffffffffffff1681526020019081526020016000205410156103eb576040517f08c379a00000000000000000000000000000000000000000000000000000000081526004016103e290610b7b565b60405180910390fd5b81600260008673ffffffffffffffffffffffffffffffffffffffff1673ffffffffffffffffffffffffffffffffffffffff168152602001908152602001600020600082825461043a9190610c3d565b9250508190555081600360008673ffffffffffffffffffffffffffffffffffffffff1673ffffffffffffffffffffffffffffffffffffffff16815260200190815260200160002060003373ffffffffffffffffffffffffffffffffffffffff1673ffffffffffffffffffffffffffffffffffffffff16815260200190815260200160002060008282546104cd9190610c3d565b9250508190555081600260008573ffffffffffffffffffffffffffffffffffffffff1673ffffffffffffffffffffffffffffffffffffffff16815260200190815260200160002060008282546105239190610be7565b925050819055508273ffffffffffffffffffffffffffffffffffffffff168473ffffffffffffffffffffffffffffffffffffffff167fddf252ad1be2c89b69c2b068fc378daa952ba7f163c4a11628f55a4df523b3ef846040516105879190610bbb565b60405180910390a3600190509392505050565b60008054906101000a900473ffffffffffffffffffffffffffffffffffffffff1673ffffffffffffffffffffffffffffffffffffffff163373ffffffffffffffffffffffffffffffffffffffff1614610628576040517f08c379a000000000000000000000000000000000000000000000000000000000815260040161061f90610b5b565b60405180910390fd5b806001600082825461063a9190610be7565b9250508190555080600260008473ffffffffffffffffffffffffffffffffffffffff1673ffffffffffffffffffffffffffffffffffffffff16815260200190815260200160002060008282546106909190610be7565b925050819055508173ffffffffffffffffffffffffffffffffffffffff1660008054906101000a900473ffffffffffffffffffffffffffffffffffffffff1673ffffffffffffffffffffffffffffffffffffffff167fddf252ad1be2c89b69c2b068fc378daa952ba7f163c4a11628f55a4df523b3ef836040516107149190610bbb565b60405180910390a35050565b6000600260008373ffffffffffffffffffffffffffffffffffffffff1673ffffffffffffffffffffffffffffffffffffffff168152602001908152602001600020549050919050565b600081600260003373ffffffffffffffffffffffffffffffffffffffff1673ffffffffffffffffffffffffffffffffffffffff1681526020019081526020016000205410156107ed576040517f08c379a00000000000000000000000000000000000000000000000000000000081526004016107e490610b9b565b60405180910390fd5b81600260003373ffffffffffffffffffffffffffffffffffffffff1673ffffffffffffffffffffffffffffffffffffffff168152602001908152602001600020600082825461083c9190610c3d565b9250508190555081600260008573ffffffffffffffffffffffffffffffffffffffff1673ffffffffffffffffffffffffffffffffffffffff16815260200190815260200160002060008282546108929190610be7565b925050819055508273ffffffffffffffffffffffffffffffffffffffff163373ffffffffffffffffffffffffffffffffffffffff167fddf252ad1be2c89b69c2b068fc378daa952ba7f163c4a11628f55a4df523b3ef846040516108f69190610bbb565b60405180910390a36001905092915050565b6000600360008473ffffffffffffffffffffffffffffffffffffffff1673ffffffffffffffffffffffffffffffffffffffff16815260200190815260200160002060008373ffffffffffffffffffffffffffffffffffffffff1673ffffffffffffffffffffffffffffffffffffffff16815260200190815260200160002054905092915050565b60008135905061099e81610d8e565b92915050565b6000813590506109b381610da5565b92915050565b6000602082840312156109cf576109ce610ce8565b5b60006109dd8482850161098f565b91505092915050565b600080604083850312156109fd576109fc610ce8565b5b6000610a0b8582860161098f565b9250506020610a1c8582860161098f565b9150509250929050565b600080600060608486031215610a3f57610a3e610ce8565b5b6000610a4d8682870161098f565b9350506020610a5e8682870161098f565b9250506040610a6f868287016109a4565b9150509250925092565b60008060408385031215610a9057610a8f610ce8565b5b6000610a9e8582860161098f565b9250506020610aaf858286016109a4565b9150509250929050565b610ac281610c83565b82525050565b6000610ad5602a83610bd6565b9150610ae082610ced565b604082019050919050565b6000610af8601a83610bd6565b9150610b0382610d3c565b602082019050919050565b6000610b1b601183610bd6565b9150610b2682610d65565b602082019050919050565b610b3a81610caf565b82525050565b6000602082019050610b556000830184610ab9565b92915050565b60006020820190508181036000830152610b7481610ac8565b9050919050565b60006020820190508181036000830152610b9481610aeb565b9050919050565b60006020820190508181036000830152610bb481610b0e565b9050919050565b6000602082019050610bd06000830184610b31565b92915050565b600082825260208201905092915050565b6000610bf282610caf565b9150610bfd83610caf565b9250827fffffffffffffffffffffffffffffffffffffffffffffffffffffffffffffffff03821115610c3257610c31610cb9565b5b828201905092915050565b6000610c4882610caf565b9150610c5383610caf565b925082821015610c6657610c65610cb9565b5b828203905092915050565b6000610c7c82610c8f565b9050919050565b60008115159050919050565b600073ffffffffffffffffffffffffffffffffffffffff82169050919050565b6000819050919050565b7f4e487b7100000000000000000000000000000000000000000000000000000000600052601160045260246000fd5b600080fd5b7f4f6e6c7920746865206d696e74696e67206167656e742063616e206d696e742060008201527f6e657720746f6b656e7300000000000000000000000000000000000000000000602082015250565b7f4e6f7420656e6f75676820617070726f76656420746f6b656e73000000000000600082015250565b7f4e6f7420656e6f75676820746f6b656e73000000000000000000000000000000600082015250565b610d9781610c71565b8114610da257600080fd5b50565b610dae81610caf565b8114610db957600080fd5b5056fea264697066735822122034872ef5285016709afc5105549cc5d9b52f59661dcc490ecc0623f4b9ddb1c164736f6c63430008070033",
					"opcodes": "PUSH1 0x80 PUSH1 0x40 MSTORE CALLVALUE DUP1 ISZERO PUSH2 0x10 JUMPI PUSH1 0x0 DUP1 REVERT JUMPDEST POP CALLER PUSH1 0x0 DUP1 PUSH2 0x100 EXP DUP2 SLOAD DUP2 PUSH20 0xFFFFFFFFFFFFFFFFFFFFFFFFFFFFFFFFFFFFFFFF MUL NOT AND SWAP1 DUP4 PUSH20 0xFFFFFFFFFFFFFFFFFFFFFFFFFFFFFFFFFFFFFFFF AND MUL OR SWAP1 SSTORE POP PUSH1 0x0 PUSH1 0x1 DUP2 SWAP1 SSTORE POP PUSH2 0xDF2 DUP1 PUSH2 0x68 PUSH1 0x0 CODECOPY PUSH1 0x0 RETURN INVALID PUSH1 0x80 PUSH1 0x40 MSTORE CALLVALUE DUP1 ISZERO PUSH2 0x10 JUMPI PUSH1 0x0 DUP1 REVERT JUMPDEST POP PUSH1 0x4 CALLDATASIZE LT PUSH2 0x7D JUMPI PUSH1 0x0 CALLDATALOAD PUSH1 0xE0 SHR DUP1 PUSH4 0x40C10F19 GT PUSH2 0x5B JUMPI DUP1 PUSH4 0x40C10F19 EQ PUSH2 0x100 JUMPI DUP1 PUSH4 0x70A08231 EQ PUSH2 0x11C JUMPI DUP1 PUSH4 0xA9059CBB EQ PUSH2 0x14C JUMPI DUP1 PUSH4 0xDD62ED3E EQ PUSH2 0x17C JUMPI PUSH2 0x7D JUMP JUMPDEST DUP1 PUSH4 0x95EA7B3 EQ PUSH2 0x82 JUMPI DUP1 PUSH4 0x18160DDD EQ PUSH2 0xB2 JUMPI DUP1 PUSH4 0x23B872DD EQ PUSH2 0xD0 JUMPI JUMPDEST PUSH1 0x0 DUP1 REVERT JUMPDEST PUSH2 0x9C PUSH1 0x4 DUP1 CALLDATASIZE SUB DUP2 ADD SWAP1 PUSH2 0x97 SWAP2 SWAP1 PUSH2 0xA79 JUMP JUMPDEST PUSH2 0x1AC JUMP JUMPDEST PUSH1 0x40 MLOAD PUSH2 0xA9 SWAP2 SWAP1 PUSH2 0xB40 JUMP JUMPDEST PUSH1 0x40 MLOAD DUP1 SWAP2 SUB SWAP1 RETURN JUMPDEST PUSH2 0xBA PUSH2 0x29E JUMP JUMPDEST PUSH1 0x40 MLOAD PUSH2 0xC7 SWAP2 SWAP1 PUSH2 0xBBB JUMP JUMPDEST PUSH1 0x40 MLOAD DUP1 SWAP2 SUB SWAP1 RETURN JUMPDEST PUSH2 0xEA PUSH1 0x4 DUP1 CALLDATASIZE SUB DUP2 ADD SWAP1 PUSH2 0xE5 SWAP2 SWAP1 PUSH2 0xA26 JUMP JUMPDEST PUSH2 0x2A8 JUMP JUMPDEST PUSH1 0x40 MLOAD PUSH2 0xF7 SWAP2 SWAP1 PUSH2 0xB40 JUMP JUMPDEST PUSH1 0x40 MLOAD DUP1 SWAP2 SUB SWAP1 RETURN JUMPDEST PUSH2 0x11A PUSH1 0x4 DUP1 CALLDATASIZE SUB DUP2 ADD SWAP1 PUSH2 0x115 SWAP2 SWAP1 PUSH2 0xA79 JUMP JUMPDEST PUSH2 0x59A JUMP JUMPDEST STOP JUMPDEST PUSH2 0x136 PUSH1 0x4 DUP1 CALLDATASIZE SUB DUP2 ADD SWAP1 PUSH2 0x131 SWAP2 SWAP1 PUSH2 0x9B9 JUMP JUMPDEST PUSH2 0x720 JUMP JUMPDEST PUSH1 0x40 MLOAD PUSH2 0x143 SWAP2 SWAP1 PUSH2 0xBBB JUMP JUMPDEST PUSH1 0x40 MLOAD DUP1 SWAP2 SUB SWAP1 RETURN JUMPDEST PUSH2 0x166 PUSH1 0x4 DUP1 CALLDATASIZE SUB DUP2 ADD SWAP1 PUSH2 0x161 SWAP2 SWAP1 PUSH2 0xA79 JUMP JUMPDEST PUSH2 0x769 JUMP JUMPDEST PUSH1 0x40 MLOAD PUSH2 0x173 SWAP2 SWAP1 PUSH2 0xB40 JUMP JUMPDEST PUSH1 0x40 MLOAD DUP1 SWAP2 SUB SWAP1 RETURN JUMPDEST PUSH2 0x196 PUSH1 0x4 DUP1 CALLDATASIZE SUB DUP2 ADD SWAP1 PUSH2 0x191 SWAP2 SWAP1 PUSH2 0x9E6 JUMP JUMPDEST PUSH2 0x908 JUMP JUMPDEST PUSH1 0x40 MLOAD PUSH2 0x1A3 SWAP2 SWAP1 PUSH2 0xBBB JUMP JUMPDEST PUSH1 0x40 MLOAD DUP1 SWAP2 SUB SWAP1 RETURN JUMPDEST PUSH1 0x0 DUP2 PUSH1 0x3 PUSH1 0x0 CALLER PUSH20 0xFFFFFFFFFFFFFFFFFFFFFFFFFFFFFFFFFFFFFFFF AND PUSH20 0xFFFFFFFFFFFFFFFFFFFFFFFFFFFFFFFFFFFFFFFF AND DUP2 MSTORE PUSH1 0x20 ADD SWAP1 DUP2 MSTORE PUSH1 0x20 ADD PUSH1 0x0 KECCAK256 PUSH1 0x0 DUP6 PUSH20 0xFFFFFFFFFFFFFFFFFFFFFFFFFFFFFFFFFFFFFFFF AND PUSH20 0xFFFFFFFFFFFFFFFFFFFFFFFFFFFFFFFFFFFFFFFF AND DUP2 MSTORE PUSH1 0x20 ADD SWAP1 DUP2 MSTORE PUSH1 0x20 ADD PUSH1 0x0 KECCAK256 DUP2 SWAP1 SSTORE POP DUP3 PUSH20 0xFFFFFFFFFFFFFFFFFFFFFFFFFFFFFFFFFFFFFFFF AND CALLER PUSH20 0xFFFFFFFFFFFFFFFFFFFFFFFFFFFFFFFFFFFFFFFF AND PUSH32 0x8C5BE1E5EBEC7D5BD14F71427D1E84F3DD0314C0F7B2291E5B200AC8C7C3B925 DUP5 PUSH1 0x40 MLOAD PUSH2 0x28C SWAP2 SWAP1 PUSH2 0xBBB JUMP JUMPDEST PUSH1 0x40 MLOAD DUP1 SWAP2 SUB SWAP1 LOG3 PUSH1 0x1 SWAP1 POP SWAP3 SWAP2 POP POP JUMP JUMPDEST PUSH1 0x0 PUSH1 0x1 SLOAD SWAP1 POP SWAP1 JUMP JUMPDEST PUSH1 0x0 DUP2 PUSH1 0x2 PUSH1 0x0 DUP7 PUSH20 0xFFFFFFFFFFFFFFFFFFFFFFFFFFFFFFFFFFFFFFFF AND PUSH20 0xFFFFFFFFFFFFFFFFFFFFFFFFFFFFFFFFFFFFFFFF AND DUP2 MSTORE PUSH1 0x20 ADD SWAP1 DUP2 MSTORE PUSH1 0x20 ADD PUSH1 0x0 KECCAK256 SLOAD LT ISZERO PUSH2 0x32C JUMPI PUSH1 0x40 MLOAD PUSH32 0x8C379A000000000000000000000000000000000000000000000000000000000 DUP2 MSTORE PUSH1 0x4 ADD PUSH2 0x323 SWAP1 PUSH2 0xB9B JUMP JUMPDEST PUSH1 0x40 MLOAD DUP1 SWAP2 SUB SWAP1 REVERT JUMPDEST DUP2 PUSH1 0x3 PUSH1 0x0 DUP7 PUSH20 0xFFFFFFFFFFFFFFFFFFFFFFFFFFFFFFFFFFFFFFFF AND PUSH20 0xFFFFFFFFFFFFFFFFFFFFFFFFFFFFFFFFFFFFFFFF AND DUP2 MSTORE PUSH1 0x20 ADD SWAP1 DUP2 MSTORE PUSH1 0x20 ADD PUSH1 0x0 KECCAK256 PUSH1 0x0 CALLER PUSH20 0xFFFFFFFFFFFFFFFFFFFFFFFFFFFFFFFFFFFFFFFF AND PUSH20 0xFFFFFFFFFFFFFFFFFFFFFFFFFFFFFFFFFFFFFFFF AND DUP2 MSTORE PUSH1 0x20 ADD SWAP1 DUP2 MSTORE PUSH1 0x20 ADD PUSH1 0x0 KECCAK256 SLOAD LT ISZERO PUSH2 0x3EB JUMPI PUSH1 0x40 MLOAD PUSH32 0x8C379A000000000000000000000000000000000000000000000000000000000 DUP2 MSTORE PUSH1 0x4 ADD PUSH2 0x3E2 SWAP1 PUSH2 0xB7B JUMP JUMPDEST PUSH1 0x40 MLOAD DUP1 SWAP2 SUB SWAP1 REVERT JUMPDEST DUP2 PUSH1 0x2 PUSH1 0x0 DUP7 PUSH20 0xFFFFFFFFFFFFFFFFFFFFFFFFFFFFFFFFFFFFFFFF AND PUSH20 0xFFFFFFFFFFFFFFFFFFFFFFFFFFFFFFFFFFFFFFFF AND DUP2 MSTORE PUSH1 0x20 ADD SWAP1 DUP2 MSTORE PUSH1 0x20 ADD PUSH1 0x0 KECCAK256 PUSH1 0x0 DUP3 DUP3 SLOAD PUSH2 0x43A SWAP2 SWAP1 PUSH2 0xC3D JUMP JUMPDEST SWAP3 POP POP DUP2 SWAP1 SSTORE POP DUP2 PUSH1 0x3 PUSH1 0x0 DUP7 PUSH20 0xFFFFFFFFFFFFFFFFFFFFFFFFFFFFFFFFFFFFFFFF AND PUSH20 0xFFFFFFFFFFFFFFFFFFFFFFFFFFFFFFFFFFFFFFFF AND DUP2 MSTORE PUSH1 0x20 ADD SWAP1 DUP2 MSTORE PUSH1 0x20 ADD PUSH1 0x0 KECCAK256 PUSH1 0x0 CALLER PUSH20 0xFFFFFFFFFFFFFFFFFFFFFFFFFFFFFFFFFFFFFFFF AND PUSH20 0xFFFFFFFFFFFFFFFFFFFFFFFFFFFFFFFFFFFFFFFF AND DUP2 MSTORE PUSH1 0x20 ADD SWAP1 DUP2 MSTORE PUSH1 0x20 ADD PUSH1 0x0 KECCAK256 PUSH1 0x0 DUP3 DUP3 SLOAD PUSH2 0x4CD SWAP2 SWAP1 PUSH2 0xC3D JUMP JUMPDEST SWAP3 POP POP DUP2 SWAP1 SSTORE POP DUP2 PUSH1 0x2 PUSH1 0x0 DUP6 PUSH20 0xFFFFFFFFFFFFFFFFFFFFFFFFFFFFFFFFFFFFFFFF AND PUSH20 0xFFFFFFFFFFFFFFFFFFFFFFFFFFFFFFFFFFFFFFFF AND DUP2 MSTORE PUSH1 0x20 ADD SWAP1 DUP2 MSTORE PUSH1 0x20 ADD PUSH1 0x0 KECCAK256 PUSH1 0x0 DUP3 DUP3 SLOAD PUSH2 0x523 SWAP2 SWAP1 PUSH2 0xBE7 JUMP JUMPDEST SWAP3 POP POP DUP2 SWAP1 SSTORE POP DUP3 PUSH20 0xFFFFFFFFFFFFFFFFFFFFFFFFFFFFFFFFFFFFFFFF AND DUP5 PUSH20 0xFFFFFFFFFFFFFFFFFFFFFFFFFFFFFFFFFFFFFFFF AND PUSH32 0xDDF252AD1BE2C89B69C2B068FC378DAA952BA7F163C4A11628F55A4DF523B3EF DUP5 PUSH1 0x40 MLOAD PUSH2 0x587 SWAP2 SWAP1 PUSH2 0xBBB JUMP JUMPDEST PUSH1 0x40 MLOAD DUP1 SWAP2 SUB SWAP1 LOG3 PUSH1 0x1 SWAP1 POP SWAP4 SWAP3 POP POP POP JUMP JUMPDEST PUSH1 0x0 DUP1 SLOAD SWAP1 PUSH2 0x100 EXP SWAP1 DIV PUSH20 0xFFFFFFFFFFFFFFFFFFFFFFFFFFFFFFFFFFFFFFFF AND PUSH20 0xFFFFFFFFFFFFFFFFFFFFFFFFFFFFFFFFFFFFFFFF AND CALLER PUSH20 0xFFFFFFFFFFFFFFFFFFFFFFFFFFFFFFFFFFFFFFFF AND EQ PUSH2 0x628 JUMPI PUSH1 0x40 MLOAD PUSH32 0x8C379A000000000000000000000000000000000000000000000000000000000 DUP2 MSTORE PUSH1 0x4 ADD PUSH2 0x61F SWAP1 PUSH2 0xB5B JUMP JUMPDEST PUSH1 0x40 MLOAD DUP1 SWAP2 SUB SWAP1 REVERT JUMPDEST DUP1 PUSH1 0x1 PUSH1 0x0 DUP3 DUP3 SLOAD PUSH2 0x63A SWAP2 SWAP1 PUSH2 0xBE7 JUMP JUMPDEST SWAP3 POP POP DUP2 SWAP1 SSTORE POP DUP1 PUSH1 0x2 PUSH1 0x0 DUP5 PUSH20 0xFFFFFFFFFFFFFFFFFFFFFFFFFFFFFFFFFFFFFFFF AND PUSH20 0xFFFFFFFFFFFFFFFFFFFFFFFFFFFFFFFFFFFFFFFF AND DUP2 MSTORE PUSH1 0x20 ADD SWAP1 DUP2 MSTORE PUSH1 0x20 ADD PUSH1 0x0 KECCAK256 PUSH1 0x0 DUP3 DUP3 SLOAD PUSH2 0x690 SWAP2 SWAP1 PUSH2 0xBE7 JUMP JUMPDEST SWAP3 POP POP DUP2 SWAP1 SSTORE POP DUP2 PUSH20 0xFFFFFFFFFFFFFFFFFFFFFFFFFFFFFFFFFFFFFFFF AND PUSH1 0x0 DUP1 SLOAD SWAP1 PUSH2 0x100 EXP SWAP1 DIV PUSH20 0xFFFFFFFFFFFFFFFFFFFFFFFFFFFFFFFFFFFFFFFF AND PUSH20 0xFFFFFFFFFFFFFFFFFFFFFFFFFFFFFFFFFFFFFFFF AND PUSH32 0xDDF252AD1BE2C89B69C2B068FC378DAA952BA7F163C4A11628F55A4DF523B3EF DUP4 PUSH1 0x40 MLOAD PUSH2 0x714 SWAP2 SWAP1 PUSH2 0xBBB JUMP JUMPDEST PUSH1 0x40 MLOAD DUP1 SWAP2 SUB SWAP1 LOG3 POP POP JUMP JUMPDEST PUSH1 0x0 PUSH1 0x2 PUSH1 0x0 DUP4 PUSH20 0xFFFFFFFFFFFFFFFFFFFFFFFFFFFFFFFFFFFFFFFF AND PUSH20 0xFFFFFFFFFFFFFFFFFFFFFFFFFFFFFFFFFFFFFFFF AND DUP2 MSTORE PUSH1 0x20 ADD SWAP1 DUP2 MSTORE PUSH1 0x20 ADD PUSH1 0x0 KECCAK256 SLOAD SWAP1 POP SWAP2 SWAP1 POP JUMP JUMPDEST PUSH1 0x0 DUP2 PUSH1 0x2 PUSH1 0x0 CALLER PUSH20 0xFFFFFFFFFFFFFFFFFFFFFFFFFFFFFFFFFFFFFFFF AND PUSH20 0xFFFFFFFFFFFFFFFFFFFFFFFFFFFFFFFFFFFFFFFF AND DUP2 MSTORE PUSH1 0x20 ADD SWAP1 DUP2 MSTORE PUSH1 0x20 ADD PUSH1 0x0 KECCAK256 SLOAD LT ISZERO PUSH2 0x7ED JUMPI PUSH1 0x40 MLOAD PUSH32 0x8C379A000000000000000000000000000000000000000000000000000000000 DUP2 MSTORE PUSH1 0x4 ADD PUSH2 0x7E4 SWAP1 PUSH2 0xB9B JUMP JUMPDEST PUSH1 0x40 MLOAD DUP1 SWAP2 SUB SWAP1 REVERT JUMPDEST DUP2 PUSH1 0x2 PUSH1 0x0 CALLER PUSH20 0xFFFFFFFFFFFFFFFFFFFFFFFFFFFFFFFFFFFFFFFF AND PUSH20 0xFFFFFFFFFFFFFFFFFFFFFFFFFFFFFFFFFFFFFFFF AND DUP2 MSTORE PUSH1 0x20 ADD SWAP1 DUP2 MSTORE PUSH1 0x20 ADD PUSH1 0x0 KECCAK256 PUSH1 0x0 DUP3 DUP3 SLOAD PUSH2 0x83C SWAP2 SWAP1 PUSH2 0xC3D JUMP JUMPDEST SWAP3 POP POP DUP2 SWAP1 SSTORE POP DUP2 PUSH1 0x2 PUSH1 0x0 DUP6 PUSH20 0xFFFFFFFFFFFFFFFFFFFFFFFFFFFFFFFFFFFFFFFF AND PUSH20 0xFFFFFFFFFFFFFFFFFFFFFFFFFFFFFFFFFFFFFFFF AND DUP2 MSTORE PUSH1 0x20 ADD SWAP1 DUP2 MSTORE PUSH1 0x20 ADD PUSH1 0x0 KECCAK256 PUSH1 0x0 DUP3 DUP3 SLOAD PUSH2 0x892 SWAP2 SWAP1 PUSH2 0xBE7 JUMP JUMPDEST SWAP3 POP POP DUP2 SWAP1 SSTORE POP DUP3 PUSH20 0xFFFFFFFFFFFFFFFFFFFFFFFFFFFFFFFFFFFFFFFF AND CALLER PUSH20 0xFFFFFFFFFFFFFFFFFFFFFFFFFFFFFFFFFFFFFFFF AND PUSH32 0xDDF252AD1BE2C89B69C2B068FC378DAA952BA7F163C4A11628F55A4DF523B3EF DUP5 PUSH1 0x40 MLOAD PUSH2 0x8F6 SWAP2 SWAP1 PUSH2 0xBBB JUMP JUMPDEST PUSH1 0x40 MLOAD DUP1 SWAP2 SUB SWAP1 LOG3 PUSH1 0x1 SWAP1 POP SWAP3 SWAP2 POP POP JUMP JUMPDEST PUSH1 0x0 PUSH1 0x3 PUSH1 0x0 DUP5 PUSH20 0xFFFFFFFFFFFFFFFFFFFFFFFFFFFFFFFFFFFFFFFF AND PUSH20 0xFFFFFFFFFFFFFFFFFFFFFFFFFFFFFFFFFFFFFFFF AND DUP2 MSTORE PUSH1 0x20 ADD SWAP1 DUP2 MSTORE PUSH1 0x20 ADD PUSH1 0x0 KECCAK256 PUSH1 0x0 DUP4 PUSH20 0xFFFFFFFFFFFFFFFFFFFFFFFFFFFFFFFFFFFFFFFF AND PUSH20 0xFFFFFFFFFFFFFFFFFFFFFFFFFFFFFFFFFFFFFFFF AND DUP2 MSTORE PUSH1 0x20 ADD SWAP1 DUP2 MSTORE PUSH1 0x20 ADD PUSH1 0x0 KECCAK256 SLOAD SWAP1 POP SWAP3 SWAP2 POP POP JUMP JUMPDEST PUSH1 0x0 DUP2 CALLDATALOAD SWAP1 POP PUSH2 0x99E DUP2 PUSH2 0xD8E JUMP JUMPDEST SWAP3 SWAP2 POP POP JUMP JUMPDEST PUSH1 0x0 DUP2 CALLDATALOAD SWAP1 POP PUSH2 0x9B3 DUP2 PUSH2 0xDA5 JUMP JUMPDEST SWAP3 SWAP2 POP POP JUMP JUMPDEST PUSH1 0x0 PUSH1 0x20 DUP3 DUP5 SUB SLT ISZERO PUSH2 0x9CF JUMPI PUSH2 0x9CE PUSH2 0xCE8 JUMP JUMPDEST JUMPDEST PUSH1 0x0 PUSH2 0x9DD DUP5 DUP3 DUP6 ADD PUSH2 0x98F JUMP JUMPDEST SWAP2 POP POP SWAP3 SWAP2 POP POP JUMP JUMPDEST PUSH1 0x0 DUP1 PUSH1 0x40 DUP4 DUP6 SUB SLT ISZERO PUSH2 0x9FD JUMPI PUSH2 0x9FC PUSH2 0xCE8 JUMP JUMPDEST JUMPDEST PUSH1 0x0 PUSH2 0xA0B DUP6 DUP3 DUP7 ADD PUSH2 0x98F JUMP JUMPDEST SWAP3 POP POP PUSH1 0x20 PUSH2 0xA1C DUP6 DUP3 DUP7 ADD PUSH2 0x98F JUMP JUMPDEST SWAP2 POP POP SWAP3 POP SWAP3 SWAP1 POP JUMP JUMPDEST PUSH1 0x0 DUP1 PUSH1 0x0 PUSH1 0x60 DUP5 DUP7 SUB SLT ISZERO PUSH2 0xA3F JUMPI PUSH2 0xA3E PUSH2 0xCE8 JUMP JUMPDEST JUMPDEST PUSH1 0x0 PUSH2 0xA4D DUP7 DUP3 DUP8 ADD PUSH2 0x98F JUMP JUMPDEST SWAP4 POP POP PUSH1 0x20 PUSH2 0xA5E DUP7 DUP3 DUP8 ADD PUSH2 0x98F JUMP JUMPDEST SWAP3 POP POP PUSH1 0x40 PUSH2 0xA6F DUP7 DUP3 DUP8 ADD PUSH2 0x9A4 JUMP JUMPDEST SWAP2 POP POP SWAP3 POP SWAP3 POP SWAP3 JUMP JUMPDEST PUSH1 0x0 DUP1 PUSH1 0x40 DUP4 DUP6 SUB SLT ISZERO PUSH2 0xA90 JUMPI PUSH2 0xA8F PUSH2 0xCE8 JUMP JUMPDEST JUMPDEST PUSH1 0x0 PUSH2 0xA9E DUP6 DUP3 DUP7 ADD PUSH2 0x98F JUMP JUMPDEST SWAP3 POP POP PUSH1 0x20 PUSH2 0xAAF DUP6 DUP3 DUP7 ADD PUSH2 0x9A4 JUMP JUMPDEST SWAP2 POP POP SWAP3 POP SWAP3 SWAP1 POP JUMP JUMPDEST PUSH2 0xAC2 DUP2 PUSH2 0xC83 JUMP JUMPDEST DUP3 MSTORE POP POP JUMP JUMPDEST PUSH1 0x0 PUSH2 0xAD5 PUSH1 0x2A DUP4 PUSH2 0xBD6 JUMP JUMPDEST SWAP2 POP PUSH2 0xAE0 DUP3 PUSH2 0xCED JUMP JUMPDEST PUSH1 0x40 DUP3 ADD SWAP1 POP SWAP2 SWAP1 POP JUMP JUMPDEST PUSH1 0x0 PUSH2 0xAF8 PUSH1 0x1A DUP4 PUSH2 0xBD6 JUMP JUMPDEST SWAP2 POP PUSH2 0xB03 DUP3 PUSH2 0xD3C JUMP JUMPDEST PUSH1 0x20 DUP3 ADD SWAP1 POP SWAP2 SWAP1 POP JUMP JUMPDEST PUSH1 0x0 PUSH2 0xB1B PUSH1 0x11 DUP4 PUSH2 0xBD6 JUMP JUMPDEST SWAP2 POP PUSH2 0xB26 DUP3 PUSH2 0xD65 JUMP JUMPDEST PUSH1 0x20 DUP3 ADD SWAP1 POP SWAP2 SWAP1 POP JUMP JUMPDEST PUSH2 0xB3A DUP2 PUSH2 0xCAF JUMP JUMPDEST DUP3 MSTORE POP POP JUMP JUMPDEST PUSH1 0x0 PUSH1 0x20 DUP3 ADD SWAP1 POP PUSH2 0xB55 PUSH1 0x0 DUP4 ADD DUP5 PUSH2 0xAB9 JUMP JUMPDEST SWAP3 SWAP2 POP POP JUMP JUMPDEST PUSH1 0x0 PUSH1 0x20 DUP3 ADD SWAP1 POP DUP2 DUP2 SUB PUSH1 0x0 DUP4 ADD MSTORE PUSH2 0xB74 DUP2 PUSH2 0xAC8 JUMP JUMPDEST SWAP1 POP SWAP2 SWAP1 POP JUMP JUMPDEST PUSH1 0x0 PUSH1 0x20 DUP3 ADD SWAP1 POP DUP2 DUP2 SUB PUSH1 0x0 DUP4 ADD MSTORE PUSH2 0xB94 DUP2 PUSH2 0xAEB JUMP JUMPDEST SWAP1 POP SWAP2 SWAP1 POP JUMP JUMPDEST PUSH1 0x0 PUSH1 0x20 DUP3 ADD SWAP1 POP DUP2 DUP2 SUB PUSH1 0x0 DUP4 ADD MSTORE PUSH2 0xBB4 DUP2 PUSH2 0xB0E JUMP JUMPDEST SWAP1 POP SWAP2 SWAP1 POP JUMP JUMPDEST PUSH1 0x0 PUSH1 0x20 DUP3 ADD SWAP1 POP PUSH2 0xBD0 PUSH1 0x0 DUP4 ADD DUP5 PUSH2 0xB31 JUMP JUMPDEST SWAP3 SWAP2 POP POP JUMP JUMPDEST PUSH1 0x0 DUP3 DUP3 MSTORE PUSH1 0x20 DUP3 ADD SWAP1 POP SWAP3 SWAP2 POP POP JUMP JUMPDEST PUSH1 0x0 PUSH2 0xBF2 DUP3 PUSH2 0xCAF JUMP JUMPDEST SWAP2 POP PUSH2 0xBFD DUP4 PUSH2 0xCAF JUMP JUMPDEST SWAP3 POP DUP3 PUSH32 0xFFFFFFFFFFFFFFFFFFFFFFFFFFFFFFFFFFFFFFFFFFFFFFFFFFFFFFFFFFFFFFFF SUB DUP3 GT ISZERO PUSH2 0xC32 JUMPI PUSH2 0xC31 PUSH2 0xCB9 JUMP JUMPDEST JUMPDEST DUP3 DUP3 ADD SWAP1 POP SWAP3 SWAP2 POP POP JUMP JUMPDEST PUSH1 0x0 PUSH2 0xC48 DUP3 PUSH2 0xCAF JUMP JUMPDEST SWAP2 POP PUSH2 0xC53 DUP4 PUSH2 0xCAF JUMP JUMPDEST SWAP3 POP DUP3 DUP3 LT ISZERO PUSH2 0xC66 JUMPI PUSH2 0xC65 PUSH2 0xCB9 JUMP JUMPDEST JUMPDEST DUP3 DUP3 SUB SWAP1 POP SWAP3 SWAP2 POP POP JUMP JUMPDEST PUSH1 0x0 PUSH2 0xC7C DUP3 PUSH2 0xC8F JUMP JUMPDEST SWAP1 POP SWAP2 SWAP1 POP JUMP JUMPDEST PUSH1 0x0 DUP2 ISZERO ISZERO SWAP1 POP SWAP2 SWAP1 POP JUMP JUMPDEST PUSH1 0x0 PUSH20 0xFFFFFFFFFFFFFFFFFFFFFFFFFFFFFFFFFFFFFFFF DUP3 AND SWAP1 POP SWAP2 SWAP1 POP JUMP JUMPDEST PUSH1 0x0 DUP2 SWAP1 POP SWAP2 SWAP1 POP JUMP JUMPDEST PUSH32 0x4E487B7100000000000000000000000000000000000000000000000000000000 PUSH1 0x0 MSTORE PUSH1 0x11 PUSH1 0x4 MSTORE PUSH1 0x24 PUSH1 0x0 REVERT JUMPDEST PUSH1 0x0 DUP1 REVERT JUMPDEST PUSH32 0x4F6E6C7920746865206D696E74696E67206167656E742063616E206D696E7420 PUSH1 0x0 DUP3 ADD MSTORE PUSH32 0x6E657720746F6B656E7300000000000000000000000000000000000000000000 PUSH1 0x20 DUP3 ADD MSTORE POP JUMP JUMPDEST PUSH32 0x4E6F7420656E6F75676820617070726F76656420746F6B656E73000000000000 PUSH1 0x0 DUP3 ADD MSTORE POP JUMP JUMPDEST PUSH32 0x4E6F7420656E6F75676820746F6B656E73000000000000000000000000000000 PUSH1 0x0 DUP3 ADD MSTORE POP JUMP JUMPDEST PUSH2 0xD97 DUP2 PUSH2 0xC71 JUMP JUMPDEST DUP2 EQ PUSH2 0xDA2 JUMPI PUSH1 0x0 DUP1 REVERT JUMPDEST POP JUMP JUMPDEST PUSH2 0xDAE DUP2 PUSH2 0xCAF JUMP JUMPDEST DUP2 EQ PUSH2 0xDB9 JUMPI PUSH1 0x0 DUP1 REVERT JUMPDEST POP JUMP INVALID LOG2 PUSH5 0x6970667358 0x22 SLT KECCAK256 CALLVALUE DUP8 0x2E CREATE2 0x28 POP AND PUSH17 0x9AFC5105549CC5D9B52F59661DCC490ECC MOD 0x23 DELEGATECALL 0xB9 0xDD 0xB1 0xC1 PUSH5 0x736F6C6343 STOP ADDMOD SMOD STOP CALLER "
				},
				"gasEstimates": {
					"creation": {
						"codeDepositCost": "714000",
						"executionCost": "30027",
						"totalCost": "744027"
					},
					"external": {
						"allowance(address,address)": "infinite",
						"approve(address,uint256)": "infinite",
						"balanceOf(address)": "2863",
						"mint(address,uint256)": "infinite",
						"totalSupply()": "2460",
						"transfer(address,uint256)": "infinite",
						"transferFrom(address,address,uint256)": "infinite"
					}
				},
				"methodIdentifiers": {
					"allowance(address,address)": "dd62ed3e",
					"approve(address,uint256)": "095ea7b3",
					"balanceOf(address)": "70a08231",
					"mint(address,uint256)": "40c10f19",
					"totalSupply()": "18160ddd",
					"transfer(address,uint256)": "a9059cbb",
					"transferFrom(address,address,uint256)": "23b872dd"
				}
			},
			"storageLayout": {
				"storage": [
					{
						"astId": 72,
						"contract": "contracts/99_ShanToken.sol:ShanToken",
						"label": "_mintingAgent",
						"offset": 0,
						"slot": "0",
						"type": "t_address"
					},
					{
						"astId": 74,
						"contract": "contracts/99_ShanToken.sol:ShanToken",
						"label": "_totalSupply",
						"offset": 0,
						"slot": "1",
						"type": "t_uint256"
					},
					{
						"astId": 78,
						"contract": "contracts/99_ShanToken.sol:ShanToken",
						"label": "_balances",
						"offset": 0,
						"slot": "2",
						"type": "t_mapping(t_address,t_uint256)"
					},
					{
						"astId": 84,
						"contract": "contracts/99_ShanToken.sol:ShanToken",
						"label": "_allowances",
						"offset": 0,
						"slot": "3",
						"type": "t_mapping(t_address,t_mapping(t_address,t_uint256))"
					}
				],
				"types": {
					"t_address": {
						"encoding": "inplace",
						"label": "address",
						"numberOfBytes": "20"
					},
					"t_mapping(t_address,t_mapping(t_address,t_uint256))": {
						"encoding": "mapping",
						"key": "t_address",
						"label": "mapping(address => mapping(address => uint256))",
						"numberOfBytes": "32",
						"value": "t_mapping(t_address,t_uint256)"
					},
					"t_mapping(t_address,t_uint256)": {
						"encoding": "mapping",
						"key": "t_address",
						"label": "mapping(address => uint256)",
						"numberOfBytes": "32",
						"value": "t_uint256"
					},
					"t_uint256": {
						"encoding": "inplace",
						"label": "uint256",
						"numberOfBytes": "32"
					}
				}
			},
			"userdoc": {
				"kind": "user",
				"methods": {},
				"version": 1
			}
		}
	}
}