{
	"contracts/101_SafeMultiplyProxy.sol": {
		"SafeMultiplyProxy": {
			"abi": [
				{
					"inputs": [
						{
							"internalType": "uint256",
							"name": "_operand1",
							"type": "uint256"
						},
						{
							"internalType": "uint256",
							"name": "_operand2",
							"type": "uint256"
						}
					],
					"name": "multiplyProxy",
					"outputs": [
						{
							"internalType": "uint256",
							"name": "",
							"type": "uint256"
						}
					],
					"stateMutability": "pure",
					"type": "function"
				}
			],
			"devdoc": {
				"kind": "dev",
				"methods": {},
				"version": 1
			},
			"evm": {
				"assembly": "    /* \"contracts/101_SafeMultiplyProxy.sol\":107:330  contract SafeMultiplyProxy{\r... */\n  mstore(0x40, 0x80)\n  callvalue\n  dup1\n  iszero\n  tag_1\n  jumpi\n  0x00\n  dup1\n  revert\ntag_1:\n  pop\n  dataSize(sub_0)\n  dup1\n  dataOffset(sub_0)\n  0x00\n  codecopy\n  0x00\n  return\nstop\n\nsub_0: assembly {\n        /* \"contracts/101_SafeMultiplyProxy.sol\":107:330  contract SafeMultiplyProxy{\r... */\n      mstore(0x40, 0x80)\n      callvalue\n      dup1\n      iszero\n      tag_1\n      jumpi\n      0x00\n      dup1\n      revert\n    tag_1:\n      pop\n      jumpi(tag_2, lt(calldatasize, 0x04))\n      shr(0xe0, calldataload(0x00))\n      dup1\n      0x85d17dce\n      eq\n      tag_3\n      jumpi\n    tag_2:\n      0x00\n      dup1\n      revert\n        /* \"contracts/101_SafeMultiplyProxy.sol\":177:327  function multiplyProxy(uint256 _operand1, uint256 _operand2) public pure returns (uint256) {\r... */\n    tag_3:\n      tag_4\n      0x04\n      dup1\n      calldatasize\n      sub\n      dup2\n      add\n      swap1\n      tag_5\n      swap2\n      swap1\n      tag_6\n      jump\t// in\n    tag_5:\n      tag_7\n      jump\t// in\n    tag_4:\n      mload(0x40)\n      tag_8\n      swap2\n      swap1\n      tag_9\n      jump\t// in\n    tag_8:\n      mload(0x40)\n      dup1\n      swap2\n      sub\n      swap1\n      return\n    tag_7:\n        /* \"contracts/101_SafeMultiplyProxy.sol\":259:266  uint256 */\n      0x00\n        /* \"contracts/101_SafeMultiplyProxy.sol\":290:319  _operand1.multiply(_operand2) */\n      tag_11\n        /* \"contracts/101_SafeMultiplyProxy.sol\":309:318  _operand2 */\n      dup3\n        /* \"contracts/101_SafeMultiplyProxy.sol\":290:299  _operand1 */\n      dup5\n        /* \"contracts/101_SafeMultiplyProxy.sol\":290:308  _operand1.multiply */\n      tag_12\n      swap1\n        /* \"contracts/101_SafeMultiplyProxy.sol\":290:319  _operand1.multiply(_operand2) */\n      swap2\n      swap1\n      0xffffffff\n      and\n      jump\t// in\n    tag_11:\n        /* \"contracts/101_SafeMultiplyProxy.sol\":283:319  return _operand1.multiply(_operand2) */\n      swap1\n      pop\n        /* \"contracts/101_SafeMultiplyProxy.sol\":177:327  function multiplyProxy(uint256 _operand1, uint256 _operand2) public pure returns (uint256) {\r... */\n      swap3\n      swap2\n      pop\n      pop\n      jump\t// out\n        /* \"contracts/101_MathLibraries.sol\":86:415  function multiply(uint256 _operand1, uint256 _operand2)... */\n    tag_12:\n        /* \"contracts/101_MathLibraries.sol\":189:196  uint256 */\n      0x00\n        /* \"contracts/101_MathLibraries.sol\":229:230  0 */\n      dup1\n        /* \"contracts/101_MathLibraries.sol\":216:225  _operand1 */\n      dup4\n        /* \"contracts/101_MathLibraries.sol\":216:230  _operand1 == 0 */\n      eq\n        /* \"contracts/101_MathLibraries.sol\":216:248  _operand1 == 0 || _operand2 == 0 */\n      dup1\n      tag_14\n      jumpi\n      pop\n        /* \"contracts/101_MathLibraries.sol\":247:248  0 */\n      0x00\n        /* \"contracts/101_MathLibraries.sol\":234:243  _operand2 */\n      dup3\n        /* \"contracts/101_MathLibraries.sol\":234:248  _operand2 == 0 */\n      eq\n        /* \"contracts/101_MathLibraries.sol\":216:248  _operand1 == 0 || _operand2 == 0 */\n    tag_14:\n        /* \"contracts/101_MathLibraries.sol\":212:283  if (_operand1 == 0 || _operand2 == 0) {... */\n      iszero\n      tag_15\n      jumpi\n        /* \"contracts/101_MathLibraries.sol\":271:272  0 */\n      0x00\n        /* \"contracts/101_MathLibraries.sol\":264:272  return 0 */\n      swap1\n      pop\n      jump(tag_13)\n        /* \"contracts/101_MathLibraries.sol\":212:283  if (_operand1 == 0 || _operand2 == 0) {... */\n    tag_15:\n        /* \"contracts/101_MathLibraries.sol\":293:308  uint256 _result */\n      0x00\n        /* \"contracts/101_MathLibraries.sol\":323:332  _operand2 */\n      dup3\n        /* \"contracts/101_MathLibraries.sol\":311:320  _operand1 */\n      dup5\n        /* \"contracts/101_MathLibraries.sol\":311:332  _operand1 * _operand2 */\n      tag_16\n      swap2\n      swap1\n      tag_17\n      jump\t// in\n    tag_16:\n        /* \"contracts/101_MathLibraries.sol\":293:332  uint256 _result = _operand1 * _operand2 */\n      swap1\n      pop\n        /* \"contracts/101_MathLibraries.sol\":373:382  _operand2 */\n      dup3\n        /* \"contracts/101_MathLibraries.sol\":360:369  _operand1 */\n      dup5\n        /* \"contracts/101_MathLibraries.sol\":350:357  _result */\n      dup3\n        /* \"contracts/101_MathLibraries.sol\":350:369  _result / _operand1 */\n      tag_18\n      swap2\n      swap1\n      tag_19\n      jump\t// in\n    tag_18:\n        /* \"contracts/101_MathLibraries.sol\":350:382  _result / _operand1 == _operand2 */\n      eq\n        /* \"contracts/101_MathLibraries.sol\":342:383  require(_result / _operand1 == _operand2) */\n      tag_20\n      jumpi\n      0x00\n      dup1\n      revert\n    tag_20:\n        /* \"contracts/101_MathLibraries.sol\":401:408  _result */\n      dup1\n        /* \"contracts/101_MathLibraries.sol\":394:408  return _result */\n      swap2\n      pop\n      pop\n        /* \"contracts/101_MathLibraries.sol\":86:415  function multiply(uint256 _operand1, uint256 _operand2)... */\n    tag_13:\n      swap3\n      swap2\n      pop\n      pop\n      jump\t// out\n        /* \"#utility.yul\":7:146   */\n    tag_22:\n        /* \"#utility.yul\":53:58   */\n      0x00\n        /* \"#utility.yul\":91:97   */\n      dup2\n        /* \"#utility.yul\":78:98   */\n      calldataload\n        /* \"#utility.yul\":69:98   */\n      swap1\n      pop\n        /* \"#utility.yul\":107:140   */\n      tag_24\n        /* \"#utility.yul\":134:139   */\n      dup2\n        /* \"#utility.yul\":107:140   */\n      tag_25\n      jump\t// in\n    tag_24:\n        /* \"#utility.yul\":7:146   */\n      swap3\n      swap2\n      pop\n      pop\n      jump\t// out\n        /* \"#utility.yul\":152:626   */\n    tag_6:\n        /* \"#utility.yul\":220:226   */\n      0x00\n        /* \"#utility.yul\":228:234   */\n      dup1\n        /* \"#utility.yul\":277:279   */\n      0x40\n        /* \"#utility.yul\":265:274   */\n      dup4\n        /* \"#utility.yul\":256:263   */\n      dup6\n        /* \"#utility.yul\":252:275   */\n      sub\n        /* \"#utility.yul\":248:280   */\n      slt\n        /* \"#utility.yul\":245:364   */\n      iszero\n      tag_27\n      jumpi\n        /* \"#utility.yul\":283:362   */\n      tag_28\n      tag_29\n      jump\t// in\n    tag_28:\n        /* \"#utility.yul\":245:364   */\n    tag_27:\n        /* \"#utility.yul\":403:404   */\n      0x00\n        /* \"#utility.yul\":428:481   */\n      tag_30\n        /* \"#utility.yul\":473:480   */\n      dup6\n        /* \"#utility.yul\":464:470   */\n      dup3\n        /* \"#utility.yul\":453:462   */\n      dup7\n        /* \"#utility.yul\":449:471   */\n      add\n        /* \"#utility.yul\":428:481   */\n      tag_22\n      jump\t// in\n    tag_30:\n        /* \"#utility.yul\":418:481   */\n      swap3\n      pop\n        /* \"#utility.yul\":374:491   */\n      pop\n        /* \"#utility.yul\":530:532   */\n      0x20\n        /* \"#utility.yul\":556:609   */\n      tag_31\n        /* \"#utility.yul\":601:608   */\n      dup6\n        /* \"#utility.yul\":592:598   */\n      dup3\n        /* \"#utility.yul\":581:590   */\n      dup7\n        /* \"#utility.yul\":577:599   */\n      add\n        /* \"#utility.yul\":556:609   */\n      tag_22\n      jump\t// in\n    tag_31:\n        /* \"#utility.yul\":546:609   */\n      swap2\n      pop\n        /* \"#utility.yul\":501:619   */\n      pop\n        /* \"#utility.yul\":152:626   */\n      swap3\n      pop\n      swap3\n      swap1\n      pop\n      jump\t// out\n        /* \"#utility.yul\":632:750   */\n    tag_32:\n        /* \"#utility.yul\":719:743   */\n      tag_34\n        /* \"#utility.yul\":737:742   */\n      dup2\n        /* \"#utility.yul\":719:743   */\n      tag_35\n      jump\t// in\n    tag_34:\n        /* \"#utility.yul\":714:717   */\n      dup3\n        /* \"#utility.yul\":707:744   */\n      mstore\n        /* \"#utility.yul\":632:750   */\n      pop\n      pop\n      jump\t// out\n        /* \"#utility.yul\":756:978   */\n    tag_9:\n        /* \"#utility.yul\":849:853   */\n      0x00\n        /* \"#utility.yul\":887:889   */\n      0x20\n        /* \"#utility.yul\":876:885   */\n      dup3\n        /* \"#utility.yul\":872:890   */\n      add\n        /* \"#utility.yul\":864:890   */\n      swap1\n      pop\n        /* \"#utility.yul\":900:971   */\n      tag_37\n        /* \"#utility.yul\":968:969   */\n      0x00\n        /* \"#utility.yul\":957:966   */\n      dup4\n        /* \"#utility.yul\":953:970   */\n      add\n        /* \"#utility.yul\":944:950   */\n      dup5\n        /* \"#utility.yul\":900:971   */\n      tag_32\n      jump\t// in\n    tag_37:\n        /* \"#utility.yul\":756:978   */\n      swap3\n      swap2\n      pop\n      pop\n      jump\t// out\n        /* \"#utility.yul\":1065:1250   */\n    tag_19:\n        /* \"#utility.yul\":1105:1106   */\n      0x00\n        /* \"#utility.yul\":1122:1142   */\n      tag_41\n        /* \"#utility.yul\":1140:1141   */\n      dup3\n        /* \"#utility.yul\":1122:1142   */\n      tag_35\n      jump\t// in\n    tag_41:\n        /* \"#utility.yul\":1117:1142   */\n      swap2\n      pop\n        /* \"#utility.yul\":1156:1176   */\n      tag_42\n        /* \"#utility.yul\":1174:1175   */\n      dup4\n        /* \"#utility.yul\":1156:1176   */\n      tag_35\n      jump\t// in\n    tag_42:\n        /* \"#utility.yul\":1151:1176   */\n      swap3\n      pop\n        /* \"#utility.yul\":1195:1196   */\n      dup3\n        /* \"#utility.yul\":1185:1220   */\n      tag_43\n      jumpi\n        /* \"#utility.yul\":1200:1218   */\n      tag_44\n      tag_45\n      jump\t// in\n    tag_44:\n        /* \"#utility.yul\":1185:1220   */\n    tag_43:\n        /* \"#utility.yul\":1242:1243   */\n      dup3\n        /* \"#utility.yul\":1239:1240   */\n      dup3\n        /* \"#utility.yul\":1235:1244   */\n      div\n        /* \"#utility.yul\":1230:1244   */\n      swap1\n      pop\n        /* \"#utility.yul\":1065:1250   */\n      swap3\n      swap2\n      pop\n      pop\n      jump\t// out\n        /* \"#utility.yul\":1256:1604   */\n    tag_17:\n        /* \"#utility.yul\":1296:1303   */\n      0x00\n        /* \"#utility.yul\":1319:1339   */\n      tag_47\n        /* \"#utility.yul\":1337:1338   */\n      dup3\n        /* \"#utility.yul\":1319:1339   */\n      tag_35\n      jump\t// in\n    tag_47:\n        /* \"#utility.yul\":1314:1339   */\n      swap2\n      pop\n        /* \"#utility.yul\":1353:1373   */\n      tag_48\n        /* \"#utility.yul\":1371:1372   */\n      dup4\n        /* \"#utility.yul\":1353:1373   */\n      tag_35\n      jump\t// in\n    tag_48:\n        /* \"#utility.yul\":1348:1373   */\n      swap3\n      pop\n        /* \"#utility.yul\":1541:1542   */\n      dup2\n        /* \"#utility.yul\":1473:1539   */\n      0xffffffffffffffffffffffffffffffffffffffffffffffffffffffffffffffff\n        /* \"#utility.yul\":1469:1543   */\n      div\n        /* \"#utility.yul\":1466:1467   */\n      dup4\n        /* \"#utility.yul\":1463:1544   */\n      gt\n        /* \"#utility.yul\":1458:1459   */\n      dup3\n        /* \"#utility.yul\":1451:1460   */\n      iszero\n        /* \"#utility.yul\":1444:1461   */\n      iszero\n        /* \"#utility.yul\":1440:1545   */\n      and\n        /* \"#utility.yul\":1437:1568   */\n      iszero\n      tag_49\n      jumpi\n        /* \"#utility.yul\":1548:1566   */\n      tag_50\n      tag_51\n      jump\t// in\n    tag_50:\n        /* \"#utility.yul\":1437:1568   */\n    tag_49:\n        /* \"#utility.yul\":1596:1597   */\n      dup3\n        /* \"#utility.yul\":1593:1594   */\n      dup3\n        /* \"#utility.yul\":1589:1598   */\n      mul\n        /* \"#utility.yul\":1578:1598   */\n      swap1\n      pop\n        /* \"#utility.yul\":1256:1604   */\n      swap3\n      swap2\n      pop\n      pop\n      jump\t// out\n        /* \"#utility.yul\":1610:1687   */\n    tag_35:\n        /* \"#utility.yul\":1647:1654   */\n      0x00\n        /* \"#utility.yul\":1676:1681   */\n      dup2\n        /* \"#utility.yul\":1665:1681   */\n      swap1\n      pop\n        /* \"#utility.yul\":1610:1687   */\n      swap2\n      swap1\n      pop\n      jump\t// out\n        /* \"#utility.yul\":1693:1873   */\n    tag_51:\n        /* \"#utility.yul\":1741:1818   */\n      0x4e487b7100000000000000000000000000000000000000000000000000000000\n        /* \"#utility.yul\":1738:1739   */\n      0x00\n        /* \"#utility.yul\":1731:1819   */\n      mstore\n        /* \"#utility.yul\":1838:1842   */\n      0x11\n        /* \"#utility.yul\":1835:1836   */\n      0x04\n        /* \"#utility.yul\":1828:1843   */\n      mstore\n        /* \"#utility.yul\":1862:1866   */\n      0x24\n        /* \"#utility.yul\":1859:1860   */\n      0x00\n        /* \"#utility.yul\":1852:1867   */\n      revert\n        /* \"#utility.yul\":1879:2059   */\n    tag_45:\n        /* \"#utility.yul\":1927:2004   */\n      0x4e487b7100000000000000000000000000000000000000000000000000000000\n        /* \"#utility.yul\":1924:1925   */\n      0x00\n        /* \"#utility.yul\":1917:2005   */\n      mstore\n        /* \"#utility.yul\":2024:2028   */\n      0x12\n        /* \"#utility.yul\":2021:2022   */\n      0x04\n        /* \"#utility.yul\":2014:2029   */\n      mstore\n        /* \"#utility.yul\":2048:2052   */\n      0x24\n        /* \"#utility.yul\":2045:2046   */\n      0x00\n        /* \"#utility.yul\":2038:2053   */\n      revert\n        /* \"#utility.yul\":2188:2305   */\n    tag_29:\n        /* \"#utility.yul\":2297:2298   */\n      0x00\n        /* \"#utility.yul\":2294:2295   */\n      dup1\n        /* \"#utility.yul\":2287:2299   */\n      revert\n        /* \"#utility.yul\":2311:2433   */\n    tag_25:\n        /* \"#utility.yul\":2384:2408   */\n      tag_59\n        /* \"#utility.yul\":2402:2407   */\n      dup2\n        /* \"#utility.yul\":2384:2408   */\n      tag_35\n      jump\t// in\n    tag_59:\n        /* \"#utility.yul\":2377:2382   */\n      dup2\n        /* \"#utility.yul\":2374:2409   */\n      eq\n        /* \"#utility.yul\":2364:2427   */\n      tag_60\n      jumpi\n        /* \"#utility.yul\":2423:2424   */\n      0x00\n        /* \"#utility.yul\":2420:2421   */\n      dup1\n        /* \"#utility.yul\":2413:2425   */\n      revert\n        /* \"#utility.yul\":2364:2427   */\n    tag_60:\n        /* \"#utility.yul\":2311:2433   */\n      pop\n      jump\t// out\n\n    auxdata: 0xa26469706673582212209835a495659a2386cac21aed601c532d9516c176cbad6b68dfec5b6fd9c708de64736f6c63430008070033\n}\n",
				"bytecode": {
					"linkReferences": {},
					"object": "608060405234801561001057600080fd5b50610291806100206000396000f3fe608060405234801561001057600080fd5b506004361061002b5760003560e01c806385d17dce14610030575b600080fd5b61004a600480360381019061004591906100e2565b610060565b6040516100579190610131565b60405180910390f35b6000610075828461007d90919063ffffffff16565b905092915050565b60008083148061008d5750600082145b1561009b57600090506100c7565b600082846100a9919061017d565b90508284826100b8919061014c565b146100c257600080fd5b809150505b92915050565b6000813590506100dc81610244565b92915050565b600080604083850312156100f9576100f861023f565b5b6000610107858286016100cd565b9250506020610118858286016100cd565b9150509250929050565b61012b816101d7565b82525050565b60006020820190506101466000830184610122565b92915050565b6000610157826101d7565b9150610162836101d7565b92508261017257610171610210565b5b828204905092915050565b6000610188826101d7565b9150610193836101d7565b9250817fffffffffffffffffffffffffffffffffffffffffffffffffffffffffffffffff04831182151516156101cc576101cb6101e1565b5b828202905092915050565b6000819050919050565b7f4e487b7100000000000000000000000000000000000000000000000000000000600052601160045260246000fd5b7f4e487b7100000000000000000000000000000000000000000000000000000000600052601260045260246000fd5b600080fd5b61024d816101d7565b811461025857600080fd5b5056fea26469706673582212209835a495659a2386cac21aed601c532d9516c176cbad6b68dfec5b6fd9c708de64736f6c63430008070033",
					"opcodes": "PUSH1 0x80 PUSH1 0x40 MSTORE CALLVALUE DUP1 ISZERO PUSH2 0x10 JUMPI PUSH1 0x0 DUP1 REVERT JUMPDEST POP PUSH2 0x291 DUP1 PUSH2 0x20 PUSH1 0x0 CODECOPY PUSH1 0x0 RETURN INVALID PUSH1 0x80 PUSH1 0x40 MSTORE CALLVALUE DUP1 ISZERO PUSH2 0x10 JUMPI PUSH1 0x0 DUP1 REVERT JUMPDEST POP PUSH1 0x4 CALLDATASIZE LT PUSH2 0x2B JUMPI PUSH1 0x0 CALLDATALOAD PUSH1 0xE0 SHR DUP1 PUSH4 0x85D17DCE EQ PUSH2 0x30 JUMPI JUMPDEST PUSH1 0x0 DUP1 REVERT JUMPDEST PUSH2 0x4A PUSH1 0x4 DUP1 CALLDATASIZE SUB DUP2 ADD SWAP1 PUSH2 0x45 SWAP2 SWAP1 PUSH2 0xE2 JUMP JUMPDEST PUSH2 0x60 JUMP JUMPDEST PUSH1 0x40 MLOAD PUSH2 0x57 SWAP2 SWAP1 PUSH2 0x131 JUMP JUMPDEST PUSH1 0x40 MLOAD DUP1 SWAP2 SUB SWAP1 RETURN JUMPDEST PUSH1 0x0 PUSH2 0x75 DUP3 DUP5 PUSH2 0x7D SWAP1 SWAP2 SWAP1 PUSH4 0xFFFFFFFF AND JUMP JUMPDEST SWAP1 POP SWAP3 SWAP2 POP POP JUMP JUMPDEST PUSH1 0x0 DUP1 DUP4 EQ DUP1 PUSH2 0x8D JUMPI POP PUSH1 0x0 DUP3 EQ JUMPDEST ISZERO PUSH2 0x9B JUMPI PUSH1 0x0 SWAP1 POP PUSH2 0xC7 JUMP JUMPDEST PUSH1 0x0 DUP3 DUP5 PUSH2 0xA9 SWAP2 SWAP1 PUSH2 0x17D JUMP JUMPDEST SWAP1 POP DUP3 DUP5 DUP3 PUSH2 0xB8 SWAP2 SWAP1 PUSH2 0x14C JUMP JUMPDEST EQ PUSH2 0xC2 JUMPI PUSH1 0x0 DUP1 REVERT JUMPDEST DUP1 SWAP2 POP POP JUMPDEST SWAP3 SWAP2 POP POP JUMP JUMPDEST PUSH1 0x0 DUP2 CALLDATALOAD SWAP1 POP PUSH2 0xDC DUP2 PUSH2 0x244 JUMP JUMPDEST SWAP3 SWAP2 POP POP JUMP JUMPDEST PUSH1 0x0 DUP1 PUSH1 0x40 DUP4 DUP6 SUB SLT ISZERO PUSH2 0xF9 JUMPI PUSH2 0xF8 PUSH2 0x23F JUMP JUMPDEST JUMPDEST PUSH1 0x0 PUSH2 0x107 DUP6 DUP3 DUP7 ADD PUSH2 0xCD JUMP JUMPDEST SWAP3 POP POP PUSH1 0x20 PUSH2 0x118 DUP6 DUP3 DUP7 ADD PUSH2 0xCD JUMP JUMPDEST SWAP2 POP POP SWAP3 POP SWAP3 SWAP1 POP JUMP JUMPDEST PUSH2 0x12B DUP2 PUSH2 0x1D7 JUMP JUMPDEST DUP3 MSTORE POP POP JUMP JUMPDEST PUSH1 0x0 PUSH1 0x20 DUP3 ADD SWAP1 POP PUSH2 0x146 PUSH1 0x0 DUP4 ADD DUP5 PUSH2 0x122 JUMP JUMPDEST SWAP3 SWAP2 POP POP JUMP JUMPDEST PUSH1 0x0 PUSH2 0x157 DUP3 PUSH2 0x1D7 JUMP JUMPDEST SWAP2 POP PUSH2 0x162 DUP4 PUSH2 0x1D7 JUMP JUMPDEST SWAP3 POP DUP3 PUSH2 0x172 JUMPI PUSH2 0x171 PUSH2 0x210 JUMP JUMPDEST JUMPDEST DUP3 DUP3 DIV SWAP1 POP SWAP3 SWAP2 POP POP JUMP JUMPDEST PUSH1 0x0 PUSH2 0x188 DUP3 PUSH2 0x1D7 JUMP JUMPDEST SWAP2 POP PUSH2 0x193 DUP4 PUSH2 0x1D7 JUMP JUMPDEST SWAP3 POP DUP2 PUSH32 0xFFFFFFFFFFFFFFFFFFFFFFFFFFFFFFFFFFFFFFFFFFFFFFFFFFFFFFFFFFFFFFFF DIV DUP4 GT DUP3 ISZERO ISZERO AND ISZERO PUSH2 0x1CC JUMPI PUSH2 0x1CB PUSH2 0x1E1 JUMP JUMPDEST JUMPDEST DUP3 DUP3 MUL SWAP1 POP SWAP3 SWAP2 POP POP JUMP JUMPDEST PUSH1 0x0 DUP2 SWAP1 POP SWAP2 SWAP1 POP JUMP JUMPDEST PUSH32 0x4E487B7100000000000000000000000000000000000000000000000000000000 PUSH1 0x0 MSTORE PUSH1 0x11 PUSH1 0x4 MSTORE PUSH1 0x24 PUSH1 0x0 REVERT JUMPDEST PUSH32 0x4E487B7100000000000000000000000000000000000000000000000000000000 PUSH1 0x0 MSTORE PUSH1 0x12 PUSH1 0x4 MSTORE PUSH1 0x24 PUSH1 0x0 REVERT JUMPDEST PUSH1 0x0 DUP1 REVERT JUMPDEST PUSH2 0x24D DUP2 PUSH2 0x1D7 JUMP JUMPDEST DUP2 EQ PUSH2 0x258 JUMPI PUSH1 0x0 DUP1 REVERT JUMPDEST POP JUMP INVALID LOG2 PUSH5 0x6970667358 0x22 SLT KECCAK256 SWAP9 CALLDATALOAD LOG4 SWAP6 PUSH6 0x9A2386CAC21A 0xED PUSH1 0x1C MSTORE8 0x2D SWAP6 AND 0xC1 PUSH23 0xCBAD6B68DFEC5B6FD9C708DE64736F6C63430008070033 "
				},
				"gasEstimates": {
					"creation": {
						"codeDepositCost": "131400",
						"executionCost": "177",
						"totalCost": "131577"
					},
					"external": {
						"multiplyProxy(uint256,uint256)": "infinite"
					}
				},
				"methodIdentifiers": {
					"multiplyProxy(uint256,uint256)": "85d17dce"
				}
			},
			"storageLayout": {
				"storage": [],
				"types": null
			},
			"userdoc": {
				"kind": "user",
				"methods": {},
				"version": 1
			}
		}
	}
}